{
    "abi": [
        {
            "type": "constructor",
            "inputs": [
                {
                    "name": "initialMinter",
                    "type": "address",
                    "internalType": "address"
                }
            ],
            "stateMutability": "nonpayable"
        },
        {
            "type": "function",
            "name": "DEFAULT_ADMIN_ROLE",
            "inputs": [],
            "outputs": [
                {
                    "name": "",
                    "type": "bytes32",
                    "internalType": "bytes32"
                }
            ],
            "stateMutability": "view"
        },
        {
            "type": "function",
            "name": "MINTER_ROLE",
            "inputs": [],
            "outputs": [
                {
                    "name": "",
                    "type": "bytes32",
                    "internalType": "bytes32"
                }
            ],
            "stateMutability": "view"
        },
        {
            "type": "function",
            "name": "PAUSER_ROLE",
            "inputs": [],
            "outputs": [
                {
                    "name": "",
                    "type": "bytes32",
                    "internalType": "bytes32"
                }
            ],
            "stateMutability": "view"
        },
        {
            "type": "function",
            "name": "allowance",
            "inputs": [
                {
                    "name": "owner",
                    "type": "address",
                    "internalType": "address"
                },
                {
                    "name": "spender",
                    "type": "address",
                    "internalType": "address"
                }
            ],
            "outputs": [
                {
                    "name": "",
                    "type": "uint256",
                    "internalType": "uint256"
                }
            ],
            "stateMutability": "view"
        },
        {
            "type": "function",
            "name": "approve",
            "inputs": [
                {
                    "name": "spender",
                    "type": "address",
                    "internalType": "address"
                },
                {
                    "name": "value",
                    "type": "uint256",
                    "internalType": "uint256"
                }
            ],
            "outputs": [
                {
                    "name": "",
                    "type": "bool",
                    "internalType": "bool"
                }
            ],
            "stateMutability": "nonpayable"
        },
        {
            "type": "function",
            "name": "balanceOf",
            "inputs": [
                {
                    "name": "account",
                    "type": "address",
                    "internalType": "address"
                }
            ],
            "outputs": [
                {
                    "name": "",
                    "type": "uint256",
                    "internalType": "uint256"
                }
            ],
            "stateMutability": "view"
        },
        {
            "type": "function",
            "name": "burnFrom",
            "inputs": [
                {
                    "name": "from",
                    "type": "address",
                    "internalType": "address"
                },
                {
                    "name": "amount",
                    "type": "uint256",
                    "internalType": "uint256"
                }
            ],
            "outputs": [],
            "stateMutability": "nonpayable"
        },
        {
            "type": "function",
            "name": "decimals",
            "inputs": [],
            "outputs": [
                {
                    "name": "",
                    "type": "uint8",
                    "internalType": "uint8"
                }
            ],
            "stateMutability": "view"
        },
        {
            "type": "function",
            "name": "getRoleAdmin",
            "inputs": [
                {
                    "name": "role",
                    "type": "bytes32",
                    "internalType": "bytes32"
                }
            ],
            "outputs": [
                {
                    "name": "",
                    "type": "bytes32",
                    "internalType": "bytes32"
                }
            ],
            "stateMutability": "view"
        },
        {
            "type": "function",
            "name": "grantRole",
            "inputs": [
                {
                    "name": "role",
                    "type": "bytes32",
                    "internalType": "bytes32"
                },
                {
                    "name": "account",
                    "type": "address",
                    "internalType": "address"
                }
            ],
            "outputs": [],
            "stateMutability": "nonpayable"
        },
        {
            "type": "function",
            "name": "hasRole",
            "inputs": [
                {
                    "name": "role",
                    "type": "bytes32",
                    "internalType": "bytes32"
                },
                {
                    "name": "account",
                    "type": "address",
                    "internalType": "address"
                }
            ],
            "outputs": [
                {
                    "name": "",
                    "type": "bool",
                    "internalType": "bool"
                }
            ],
            "stateMutability": "view"
        },
        {
            "type": "function",
            "name": "mint",
            "inputs": [
                {
                    "name": "to",
                    "type": "address",
                    "internalType": "address"
                },
                {
                    "name": "amount",
                    "type": "uint256",
                    "internalType": "uint256"
                }
            ],
            "outputs": [],
            "stateMutability": "nonpayable"
        },
        {
            "type": "function",
            "name": "minter",
            "inputs": [],
            "outputs": [
                {
                    "name": "",
                    "type": "address",
                    "internalType": "address"
                }
            ],
            "stateMutability": "view"
        },
        {
            "type": "function",
            "name": "name",
            "inputs": [],
            "outputs": [
                {
                    "name": "",
                    "type": "string",
                    "internalType": "string"
                }
            ],
            "stateMutability": "view"
        },
        {
            "type": "function",
            "name": "pause",
            "inputs": [],
            "outputs": [],
            "stateMutability": "nonpayable"
        },
        {
            "type": "function",
            "name": "paused",
            "inputs": [],
            "outputs": [
                {
                    "name": "",
                    "type": "bool",
                    "internalType": "bool"
                }
            ],
            "stateMutability": "view"
        },
        {
            "type": "function",
            "name": "renounceRole",
            "inputs": [
                {
                    "name": "role",
                    "type": "bytes32",
                    "internalType": "bytes32"
                },
                {
                    "name": "callerConfirmation",
                    "type": "address",
                    "internalType": "address"
                }
            ],
            "outputs": [],
            "stateMutability": "nonpayable"
        },
        {
            "type": "function",
            "name": "revokeRole",
            "inputs": [
                {
                    "name": "role",
                    "type": "bytes32",
                    "internalType": "bytes32"
                },
                {
                    "name": "account",
                    "type": "address",
                    "internalType": "address"
                }
            ],
            "outputs": [],
            "stateMutability": "nonpayable"
        },
        {
            "type": "function",
            "name": "setMinter",
            "inputs": [
                {
                    "name": "newMinter",
                    "type": "address",
                    "internalType": "address"
                }
            ],
            "outputs": [],
            "stateMutability": "nonpayable"
        },
        {
            "type": "function",
            "name": "supportsInterface",
            "inputs": [
                {
                    "name": "interfaceId",
                    "type": "bytes4",
                    "internalType": "bytes4"
                }
            ],
            "outputs": [
                {
                    "name": "",
                    "type": "bool",
                    "internalType": "bool"
                }
            ],
            "stateMutability": "view"
        },
        {
            "type": "function",
            "name": "symbol",
            "inputs": [],
            "outputs": [
                {
                    "name": "",
                    "type": "string",
                    "internalType": "string"
                }
            ],
            "stateMutability": "view"
        },
        {
            "type": "function",
            "name": "totalSupply",
            "inputs": [],
            "outputs": [
                {
                    "name": "",
                    "type": "uint256",
                    "internalType": "uint256"
                }
            ],
            "stateMutability": "view"
        },
        {
            "type": "function",
            "name": "transfer",
            "inputs": [
                {
                    "name": "to",
                    "type": "address",
                    "internalType": "address"
                },
                {
                    "name": "value",
                    "type": "uint256",
                    "internalType": "uint256"
                }
            ],
            "outputs": [
                {
                    "name": "",
                    "type": "bool",
                    "internalType": "bool"
                }
            ],
            "stateMutability": "nonpayable"
        },
        {
            "type": "function",
            "name": "transferFrom",
            "inputs": [
                {
                    "name": "from",
                    "type": "address",
                    "internalType": "address"
                },
                {
                    "name": "to",
                    "type": "address",
                    "internalType": "address"
                },
                {
                    "name": "value",
                    "type": "uint256",
                    "internalType": "uint256"
                }
            ],
            "outputs": [
                {
                    "name": "",
                    "type": "bool",
                    "internalType": "bool"
                }
            ],
            "stateMutability": "nonpayable"
        },
        {
            "type": "function",
            "name": "unpause",
            "inputs": [],
            "outputs": [],
            "stateMutability": "nonpayable"
        },
        {
            "type": "event",
            "name": "Approval",
            "inputs": [
                {
                    "name": "owner",
                    "type": "address",
                    "indexed": true,
                    "internalType": "address"
                },
                {
                    "name": "spender",
                    "type": "address",
                    "indexed": true,
                    "internalType": "address"
                },
                {
                    "name": "value",
                    "type": "uint256",
                    "indexed": false,
                    "internalType": "uint256"
                }
            ],
            "anonymous": false
        },
        {
            "type": "event",
            "name": "MinterUpdated",
            "inputs": [
                {
                    "name": "previousMinter",
                    "type": "address",
                    "indexed": true,
                    "internalType": "address"
                },
                {
                    "name": "newMinter",
                    "type": "address",
                    "indexed": true,
                    "internalType": "address"
                }
            ],
            "anonymous": false
        },
        {
            "type": "event",
            "name": "Paused",
            "inputs": [
                {
                    "name": "account",
                    "type": "address",
                    "indexed": false,
                    "internalType": "address"
                }
            ],
            "anonymous": false
        },
        {
            "type": "event",
            "name": "RoleAdminChanged",
            "inputs": [
                {
                    "name": "role",
                    "type": "bytes32",
                    "indexed": true,
                    "internalType": "bytes32"
                },
                {
                    "name": "previousAdminRole",
                    "type": "bytes32",
                    "indexed": true,
                    "internalType": "bytes32"
                },
                {
                    "name": "newAdminRole",
                    "type": "bytes32",
                    "indexed": true,
                    "internalType": "bytes32"
                }
            ],
            "anonymous": false
        },
        {
            "type": "event",
            "name": "RoleGranted",
            "inputs": [
                {
                    "name": "role",
                    "type": "bytes32",
                    "indexed": true,
                    "internalType": "bytes32"
                },
                {
                    "name": "account",
                    "type": "address",
                    "indexed": true,
                    "internalType": "address"
                },
                {
                    "name": "sender",
                    "type": "address",
                    "indexed": true,
                    "internalType": "address"
                }
            ],
            "anonymous": false
        },
        {
            "type": "event",
            "name": "RoleRevoked",
            "inputs": [
                {
                    "name": "role",
                    "type": "bytes32",
                    "indexed": true,
                    "internalType": "bytes32"
                },
                {
                    "name": "account",
                    "type": "address",
                    "indexed": true,
                    "internalType": "address"
                },
                {
                    "name": "sender",
                    "type": "address",
                    "indexed": true,
                    "internalType": "address"
                }
            ],
            "anonymous": false
        },
        {
            "type": "event",
            "name": "Transfer",
            "inputs": [
                {
                    "name": "from",
                    "type": "address",
                    "indexed": true,
                    "internalType": "address"
                },
                {
                    "name": "to",
                    "type": "address",
                    "indexed": true,
                    "internalType": "address"
                },
                {
                    "name": "value",
                    "type": "uint256",
                    "indexed": false,
                    "internalType": "uint256"
                }
            ],
            "anonymous": false
        },
        {
            "type": "event",
            "name": "Unpaused",
            "inputs": [
                {
                    "name": "account",
                    "type": "address",
                    "indexed": false,
                    "internalType": "address"
                }
            ],
            "anonymous": false
        },
        {
            "type": "error",
            "name": "AccessControlBadConfirmation",
            "inputs": []
        },
        {
            "type": "error",
            "name": "AccessControlUnauthorizedAccount",
            "inputs": [
                {
                    "name": "account",
                    "type": "address",
                    "internalType": "address"
                },
                {
                    "name": "neededRole",
                    "type": "bytes32",
                    "internalType": "bytes32"
                }
            ]
        },
        {
            "type": "error",
            "name": "ERC20InsufficientAllowance",
            "inputs": [
                {
                    "name": "spender",
                    "type": "address",
                    "internalType": "address"
                },
                {
                    "name": "allowance",
                    "type": "uint256",
                    "internalType": "uint256"
                },
                {
                    "name": "needed",
                    "type": "uint256",
                    "internalType": "uint256"
                }
            ]
        },
        {
            "type": "error",
            "name": "ERC20InsufficientBalance",
            "inputs": [
                {
                    "name": "sender",
                    "type": "address",
                    "internalType": "address"
                },
                {
                    "name": "balance",
                    "type": "uint256",
                    "internalType": "uint256"
                },
                {
                    "name": "needed",
                    "type": "uint256",
                    "internalType": "uint256"
                }
            ]
        },
        {
            "type": "error",
            "name": "ERC20InvalidApprover",
            "inputs": [
                {
                    "name": "approver",
                    "type": "address",
                    "internalType": "address"
                }
            ]
        },
        {
            "type": "error",
            "name": "ERC20InvalidReceiver",
            "inputs": [
                {
                    "name": "receiver",
                    "type": "address",
                    "internalType": "address"
                }
            ]
        },
        {
            "type": "error",
            "name": "ERC20InvalidSender",
            "inputs": [
                {
                    "name": "sender",
                    "type": "address",
                    "internalType": "address"
                }
            ]
        },
        {
            "type": "error",
            "name": "ERC20InvalidSpender",
            "inputs": [
                {
                    "name": "spender",
                    "type": "address",
                    "internalType": "address"
                }
            ]
        },
        {
            "type": "error",
            "name": "EnforcedPause",
            "inputs": []
        },
        {
            "type": "error",
            "name": "ExpectedPause",
            "inputs": []
        },
        {
            "type": "error",
            "name": "OnlyMinter",
            "inputs": []
        },
        {
            "type": "error",
            "name": "ZeroAddress",
            "inputs": []
        }
    ],
    "bytecode": {
        "object": "0x608060405234801561000f575f5ffd5b50604051612475380380612475833981810160405281019061003191906103f9565b6040518060400160405280600481526020017f4b363133000000000000000000000000000000000000000000000000000000008152506040518060400160405280600481526020017f4b3631330000000000000000000000000000000000000000000000000000000081525081600390816100ac9190610672565b5080600490816100bc9190610672565b5050505f73ffffffffffffffffffffffffffffffffffffffff168173ffffffffffffffffffffffffffffffffffffffff1603610124576040517fd92e233d00000000000000000000000000000000000000000000000000000000815260040160405180910390fd5b6101365f5f1b3361023a60201b60201c565b506101677f65d7a28e3265b37a6474929f336521b332c1681b933f6cb9f3376673440d862a3361023a60201b60201c565b5080600660016101000a81548173ffffffffffffffffffffffffffffffffffffffff021916908373ffffffffffffffffffffffffffffffffffffffff1602179055506101d97f9f2df0fed2c77648de5860a4cc508cd0818c85b8b8a1ab4ceeef8d981c8956a68261023a60201b60201c565b508073ffffffffffffffffffffffffffffffffffffffff165f73ffffffffffffffffffffffffffffffffffffffff167f1cf2de25c5bf439ac0287061c3a0fa69b3b02867d0ccfd2ded34e42577050b7360405160405180910390a350610741565b5f61024b838361033060201b60201c565b61032657600160055f8581526020019081526020015f205f015f8473ffffffffffffffffffffffffffffffffffffffff1673ffffffffffffffffffffffffffffffffffffffff1681526020019081526020015f205f6101000a81548160ff0219169083151502179055506102c361039460201b60201c565b73ffffffffffffffffffffffffffffffffffffffff168273ffffffffffffffffffffffffffffffffffffffff16847f2f8788117e7eff1d82e926ec794901d17c78024a50270940304540a733656f0d60405160405180910390a46001905061032a565b5f90505b92915050565b5f60055f8481526020019081526020015f205f015f8373ffffffffffffffffffffffffffffffffffffffff1673ffffffffffffffffffffffffffffffffffffffff1681526020019081526020015f205f9054906101000a900460ff16905092915050565b5f33905090565b5f5ffd5b5f73ffffffffffffffffffffffffffffffffffffffff82169050919050565b5f6103c88261039f565b9050919050565b6103d8816103be565b81146103e2575f5ffd5b50565b5f815190506103f3816103cf565b92915050565b5f6020828403121561040e5761040d61039b565b5b5f61041b848285016103e5565b91505092915050565b5f81519050919050565b7f4e487b71000000000000000000000000000000000000000000000000000000005f52604160045260245ffd5b7f4e487b71000000000000000000000000000000000000000000000000000000005f52602260045260245ffd5b5f600282049050600182168061049f57607f821691505b6020821081036104b2576104b161045b565b5b50919050565b5f819050815f5260205f209050919050565b5f6020601f8301049050919050565b5f82821b905092915050565b5f600883026105147fffffffffffffffffffffffffffffffffffffffffffffffffffffffffffffffff826104d9565b61051e86836104d9565b95508019841693508086168417925050509392505050565b5f819050919050565b5f819050919050565b5f61056261055d61055884610536565b61053f565b610536565b9050919050565b5f819050919050565b61057b83610548565b61058f61058782610569565b8484546104e5565b825550505050565b5f5f905090565b6105a6610597565b6105b1818484610572565b505050565b5f5b828110156105d7576105cc5f82840161059e565b6001810190506105b8565b505050565b601f82111561062a5782821115610629576105f6816104b8565b6105ff836104ca565b610608856104ca565b6020861015610615575f90505b808301610624828403826105b6565b505050505b5b505050565b5f82821c905092915050565b5f61064a5f198460080261062f565b1980831691505092915050565b5f610662838361063b565b9150826002028217905092915050565b61067b82610424565b67ffffffffffffffff8111156106945761069361042e565b5b61069e8254610488565b6106a98282856105dc565b5f60209050601f8311600181146106da575f84156106c8578287015190505b6106d28582610657565b865550610739565b601f1984166106e8866104b8565b5f5b8281101561070f578489015182556001820191506020850194506020810190506106ea565b8683101561072c5784890151610728601f89168261063b565b8355505b6001600288020188555050505b505050505050565b611d278061074e5f395ff3fe608060405234801561000f575f5ffd5b5060043610610171575f3560e01c80635c975abb116100dc578063a217fddf11610095578063d547741f1161006f578063d547741f14610439578063dd62ed3e14610455578063e63ab1e914610485578063fca3b5aa146104a357610171565b8063a217fddf146103cd578063a9059cbb146103eb578063d53913931461041b57610171565b80635c975abb1461030b57806370a082311461032957806379cc6790146103595780638456cb591461037557806391d148541461037f57806395d89b41146103af57610171565b8063248a9ca31161012e578063248a9ca31461025f5780632f2ff15d1461028f578063313ce567146102ab57806336568abe146102c95780633f4ba83a146102e557806340c10f19146102ef57610171565b806301ffc9a71461017557806306fdde03146101a557806307546172146101c3578063095ea7b3146101e157806318160ddd1461021157806323b872dd1461022f575b5f5ffd5b61018f600480360381019061018a9190611790565b6104bf565b60405161019c91906117d5565b60405180910390f35b6101ad610538565b6040516101ba919061185e565b60405180910390f35b6101cb6105c8565b6040516101d891906118bd565b60405180910390f35b6101fb60048036038101906101f69190611933565b6105ee565b60405161020891906117d5565b60405180910390f35b610219610610565b6040516102269190611980565b60405180910390f35b61024960048036038101906102449190611999565b610619565b60405161025691906117d5565b60405180910390f35b61027960048036038101906102749190611a1c565b610647565b6040516102869190611a56565b60405180910390f35b6102a960048036038101906102a49190611a6f565b610664565b005b6102b3610686565b6040516102c09190611ac8565b60405180910390f35b6102e360048036038101906102de9190611a6f565b61068e565b005b6102ed610709565b005b61030960048036038101906103049190611933565b61073e565b005b6103136107ac565b60405161032091906117d5565b60405180910390f35b610343600480360381019061033e9190611ae1565b6107c1565b6040516103509190611980565b60405180910390f35b610373600480360381019061036e9190611933565b610806565b005b61037d6108d0565b005b61039960048036038101906103949190611a6f565b610905565b6040516103a691906117d5565b60405180910390f35b6103b7610969565b6040516103c4919061185e565b60405180910390f35b6103d56109f9565b6040516103e29190611a56565b60405180910390f35b61040560048036038101906104009190611933565b6109ff565b60405161041291906117d5565b60405180910390f35b610423610a21565b6040516104309190611a56565b60405180910390f35b610453600480360381019061044e9190611a6f565b610a45565b005b61046f600480360381019061046a9190611b0c565b610a67565b60405161047c9190611980565b60405180910390f35b61048d610ae9565b60405161049a9190611a56565b60405180910390f35b6104bd60048036038101906104b89190611ae1565b610b0d565b005b5f7f7965db0b000000000000000000000000000000000000000000000000000000007bffffffffffffffffffffffffffffffffffffffffffffffffffffffff1916827bffffffffffffffffffffffffffffffffffffffffffffffffffffffff19161480610531575061053082610cb7565b5b9050919050565b60606003805461054790611b77565b80601f016020809104026020016040519081016040528092919081815260200182805461057390611b77565b80156105be5780601f10610595576101008083540402835291602001916105be565b820191905f5260205f20905b8154815290600101906020018083116105a157829003601f168201915b5050505050905090565b600660019054906101000a900473ffffffffffffffffffffffffffffffffffffffff1681565b5f5f6105f8610d20565b9050610605818585610d27565b600191505092915050565b5f600254905090565b5f5f610623610d20565b9050610630858285610d39565b61063b858585610dcc565b60019150509392505050565b5f60055f8381526020019081526020015f20600101549050919050565b61066d82610647565b61067681610ebc565b6106808383610ed0565b50505050565b5f6012905090565b610696610d20565b73ffffffffffffffffffffffffffffffffffffffff168173ffffffffffffffffffffffffffffffffffffffff16146106fa576040517f6697b23200000000000000000000000000000000000000000000000000000000815260040160405180910390fd5b6107048282610fba565b505050565b7f65d7a28e3265b37a6474929f336521b332c1681b933f6cb9f3376673440d862a61073381610ebc565b61073b6110a4565b50565b6107687f9f2df0fed2c77648de5860a4cc508cd0818c85b8b8a1ab4ceeef8d981c8956a633610905565b61079e576040517f9cdc2ed500000000000000000000000000000000000000000000000000000000815260040160405180910390fd5b6107a88282611105565b5050565b5f60065f9054906101000a900460ff16905090565b5f5f5f8373ffffffffffffffffffffffffffffffffffffffff1673ffffffffffffffffffffffffffffffffffffffff1681526020019081526020015f20549050919050565b6108307f9f2df0fed2c77648de5860a4cc508cd0818c85b8b8a1ab4ceeef8d981c8956a633610905565b610866576040517f9cdc2ed500000000000000000000000000000000000000000000000000000000815260040160405180910390fd5b5f6108718333610a67565b9050818110156108b6576040517f08c379a00000000000000000000000000000000000000000000000000000000081526004016108ad90611c17565b60405180910390fd5b6108c1833384610d39565b6108cb8383611184565b505050565b7f65d7a28e3265b37a6474929f336521b332c1681b933f6cb9f3376673440d862a6108fa81610ebc565b610902611203565b50565b5f60055f8481526020019081526020015f205f015f8373ffffffffffffffffffffffffffffffffffffffff1673ffffffffffffffffffffffffffffffffffffffff1681526020019081526020015f205f9054906101000a900460ff16905092915050565b60606004805461097890611b77565b80601f01602080910402602001604051908101604052809291908181526020018280546109a490611b77565b80156109ef5780601f106109c6576101008083540402835291602001916109ef565b820191905f5260205f20905b8154815290600101906020018083116109d257829003601f168201915b5050505050905090565b5f5f1b81565b5f5f610a09610d20565b9050610a16818585610dcc565b600191505092915050565b7f9f2df0fed2c77648de5860a4cc508cd0818c85b8b8a1ab4ceeef8d981c8956a681565b610a4e82610647565b610a5781610ebc565b610a618383610fba565b50505050565b5f60015f8473ffffffffffffffffffffffffffffffffffffffff1673ffffffffffffffffffffffffffffffffffffffff1681526020019081526020015f205f8373ffffffffffffffffffffffffffffffffffffffff1673ffffffffffffffffffffffffffffffffffffffff1681526020019081526020015f2054905092915050565b7f65d7a28e3265b37a6474929f336521b332c1681b933f6cb9f3376673440d862a81565b5f5f1b610b1981610ebc565b5f73ffffffffffffffffffffffffffffffffffffffff168273ffffffffffffffffffffffffffffffffffffffff1603610b7e576040517fd92e233d00000000000000000000000000000000000000000000000000000000815260040160405180910390fd5b610bca7f9f2df0fed2c77648de5860a4cc508cd0818c85b8b8a1ab4ceeef8d981c8956a6600660019054906101000a900473ffffffffffffffffffffffffffffffffffffffff16610fba565b508173ffffffffffffffffffffffffffffffffffffffff16600660019054906101000a900473ffffffffffffffffffffffffffffffffffffffff1673ffffffffffffffffffffffffffffffffffffffff167f1cf2de25c5bf439ac0287061c3a0fa69b3b02867d0ccfd2ded34e42577050b7360405160405180910390a381600660016101000a81548173ffffffffffffffffffffffffffffffffffffffff021916908373ffffffffffffffffffffffffffffffffffffffff160217905550610cb27f9f2df0fed2c77648de5860a4cc508cd0818c85b8b8a1ab4ceeef8d981c8956a683610ed0565b505050565b5f7f01ffc9a7000000000000000000000000000000000000000000000000000000007bffffffffffffffffffffffffffffffffffffffffffffffffffffffff1916827bffffffffffffffffffffffffffffffffffffffffffffffffffffffff1916149050919050565b5f33905090565b610d348383836001611265565b505050565b5f610d448484610a67565b90507fffffffffffffffffffffffffffffffffffffffffffffffffffffffffffffffff811015610dc65781811015610db7578281836040517ffb8f41b2000000000000000000000000000000000000000000000000000000008152600401610dae93929190611c35565b60405180910390fd5b610dc584848484035f611265565b5b50505050565b5f73ffffffffffffffffffffffffffffffffffffffff168373ffffffffffffffffffffffffffffffffffffffff1603610e3c575f6040517f96c6fd1e000000000000000000000000000000000000000000000000000000008152600401610e3391906118bd565b60405180910390fd5b5f73ffffffffffffffffffffffffffffffffffffffff168273ffffffffffffffffffffffffffffffffffffffff1603610eac575f6040517fec442f05000000000000000000000000000000000000000000000000000000008152600401610ea391906118bd565b60405180910390fd5b610eb7838383611434565b505050565b610ecd81610ec8610d20565b61144c565b50565b5f610edb8383610905565b610fb057600160055f8581526020019081526020015f205f015f8473ffffffffffffffffffffffffffffffffffffffff1673ffffffffffffffffffffffffffffffffffffffff1681526020019081526020015f205f6101000a81548160ff021916908315150217905550610f4d610d20565b73ffffffffffffffffffffffffffffffffffffffff168273ffffffffffffffffffffffffffffffffffffffff16847f2f8788117e7eff1d82e926ec794901d17c78024a50270940304540a733656f0d60405160405180910390a460019050610fb4565b5f90505b92915050565b5f610fc58383610905565b1561109a575f60055f8581526020019081526020015f205f015f8473ffffffffffffffffffffffffffffffffffffffff1673ffffffffffffffffffffffffffffffffffffffff1681526020019081526020015f205f6101000a81548160ff021916908315150217905550611037610d20565b73ffffffffffffffffffffffffffffffffffffffff168273ffffffffffffffffffffffffffffffffffffffff16847ff6391f5c32d9c69d2a47ea670b442974b53935d1edc7fd64eb21e047a839171b60405160405180910390a46001905061109e565b5f90505b92915050565b6110ac61149d565b5f60065f6101000a81548160ff0219169083151502179055507f5db9ee0a495bf2e6ff9c91a7834c1ba4fdd244a5e8aa4e537bd38aeae4b073aa6110ee610d20565b6040516110fb91906118bd565b60405180910390a1565b5f73ffffffffffffffffffffffffffffffffffffffff168273ffffffffffffffffffffffffffffffffffffffff1603611175575f6040517fec442f0500000000000000000000000000000000000000000000000000000000815260040161116c91906118bd565b60405180910390fd5b6111805f8383611434565b5050565b5f73ffffffffffffffffffffffffffffffffffffffff168273ffffffffffffffffffffffffffffffffffffffff16036111f4575f6040517f96c6fd1e0000000000000000000000000000000000000000000000000000000081526004016111eb91906118bd565b60405180910390fd5b6111ff825f83611434565b5050565b61120b6114dd565b600160065f6101000a81548160ff0219169083151502179055507f62e78cea01bee320cd4e420270b5ea74000d11b0c9f74754ebdbfc544b05a25861124e610d20565b60405161125b91906118bd565b60405180910390a1565b5f73ffffffffffffffffffffffffffffffffffffffff168473ffffffffffffffffffffffffffffffffffffffff16036112d5575f6040517fe602df050000000000000000000000000000000000000000000000000000000081526004016112cc91906118bd565b60405180910390fd5b5f73ffffffffffffffffffffffffffffffffffffffff168373ffffffffffffffffffffffffffffffffffffffff1603611345575f6040517f94280d6200000000000000000000000000000000000000000000000000000000815260040161133c91906118bd565b60405180910390fd5b8160015f8673ffffffffffffffffffffffffffffffffffffffff1673ffffffffffffffffffffffffffffffffffffffff1681526020019081526020015f205f8573ffffffffffffffffffffffffffffffffffffffff1673ffffffffffffffffffffffffffffffffffffffff1681526020019081526020015f2081905550801561142e578273ffffffffffffffffffffffffffffffffffffffff168473ffffffffffffffffffffffffffffffffffffffff167f8c5be1e5ebec7d5bd14f71427d1e84f3dd0314c0f7b2291e5b200ac8c7c3b925846040516114259190611980565b60405180910390a35b50505050565b61143c6114dd565b61144783838361151e565b505050565b6114568282610905565b6114995780826040517fe2517d3f000000000000000000000000000000000000000000000000000000008152600401611490929190611c6a565b60405180910390fd5b5050565b6114a56107ac565b6114db576040517f8dfc202b00000000000000000000000000000000000000000000000000000000815260040160405180910390fd5b565b6114e56107ac565b1561151c576040517fd93c066500000000000000000000000000000000000000000000000000000000815260040160405180910390fd5b565b5f73ffffffffffffffffffffffffffffffffffffffff168373ffffffffffffffffffffffffffffffffffffffff160361156e578060025f8282546115629190611cbe565b9250508190555061163c565b5f5f5f8573ffffffffffffffffffffffffffffffffffffffff1673ffffffffffffffffffffffffffffffffffffffff1681526020019081526020015f20549050818110156115f7578381836040517fe450d38c0000000000000000000000000000000000000000000000000000000081526004016115ee93929190611c35565b60405180910390fd5b8181035f5f8673ffffffffffffffffffffffffffffffffffffffff1673ffffffffffffffffffffffffffffffffffffffff1681526020019081526020015f2081905550505b5f73ffffffffffffffffffffffffffffffffffffffff168273ffffffffffffffffffffffffffffffffffffffff1603611683578060025f82825403925050819055506116cd565b805f5f8473ffffffffffffffffffffffffffffffffffffffff1673ffffffffffffffffffffffffffffffffffffffff1681526020019081526020015f205f82825401925050819055505b8173ffffffffffffffffffffffffffffffffffffffff168373ffffffffffffffffffffffffffffffffffffffff167fddf252ad1be2c89b69c2b068fc378daa952ba7f163c4a11628f55a4df523b3ef8360405161172a9190611980565b60405180910390a3505050565b5f5ffd5b5f7fffffffff0000000000000000000000000000000000000000000000000000000082169050919050565b61176f8161173b565b8114611779575f5ffd5b50565b5f8135905061178a81611766565b92915050565b5f602082840312156117a5576117a4611737565b5b5f6117b28482850161177c565b91505092915050565b5f8115159050919050565b6117cf816117bb565b82525050565b5f6020820190506117e85f8301846117c6565b92915050565b5f81519050919050565b5f82825260208201905092915050565b8281835e5f83830152505050565b5f601f19601f8301169050919050565b5f611830826117ee565b61183a81856117f8565b935061184a818560208601611808565b61185381611816565b840191505092915050565b5f6020820190508181035f8301526118768184611826565b905092915050565b5f73ffffffffffffffffffffffffffffffffffffffff82169050919050565b5f6118a78261187e565b9050919050565b6118b78161189d565b82525050565b5f6020820190506118d05f8301846118ae565b92915050565b6118df8161189d565b81146118e9575f5ffd5b50565b5f813590506118fa816118d6565b92915050565b5f819050919050565b61191281611900565b811461191c575f5ffd5b50565b5f8135905061192d81611909565b92915050565b5f5f6040838503121561194957611948611737565b5b5f611956858286016118ec565b92505060206119678582860161191f565b9150509250929050565b61197a81611900565b82525050565b5f6020820190506119935f830184611971565b92915050565b5f5f5f606084860312156119b0576119af611737565b5b5f6119bd868287016118ec565b93505060206119ce868287016118ec565b92505060406119df8682870161191f565b9150509250925092565b5f819050919050565b6119fb816119e9565b8114611a05575f5ffd5b50565b5f81359050611a16816119f2565b92915050565b5f60208284031215611a3157611a30611737565b5b5f611a3e84828501611a08565b91505092915050565b611a50816119e9565b82525050565b5f602082019050611a695f830184611a47565b92915050565b5f5f60408385031215611a8557611a84611737565b5b5f611a9285828601611a08565b9250506020611aa3858286016118ec565b9150509250929050565b5f60ff82169050919050565b611ac281611aad565b82525050565b5f602082019050611adb5f830184611ab9565b92915050565b5f60208284031215611af657611af5611737565b5b5f611b03848285016118ec565b91505092915050565b5f5f60408385031215611b2257611b21611737565b5b5f611b2f858286016118ec565b9250506020611b40858286016118ec565b9150509250929050565b7f4e487b71000000000000000000000000000000000000000000000000000000005f52602260045260245ffd5b5f6002820490506001821680611b8e57607f821691505b602082108103611ba157611ba0611b4a565b5b50919050565b7f45524332303a206275726e20616d6f756e74206578636565647320616c6c6f775f8201527f616e636500000000000000000000000000000000000000000000000000000000602082015250565b5f611c016024836117f8565b9150611c0c82611ba7565b604082019050919050565b5f6020820190508181035f830152611c2e81611bf5565b9050919050565b5f606082019050611c485f8301866118ae565b611c556020830185611971565b611c626040830184611971565b949350505050565b5f604082019050611c7d5f8301856118ae565b611c8a6020830184611a47565b9392505050565b7f4e487b71000000000000000000000000000000000000000000000000000000005f52601160045260245ffd5b5f611cc882611900565b9150611cd383611900565b9250828201905080821115611ceb57611cea611c91565b5b9291505056fea2646970667358221220fae99c2f3e33993884c7f883d242c609d9d87afdfe6d2e2c8199b8329337e67764736f6c63430008220033",
        "linkReferences": {}
    },
    "methodIdentifiers": {
        "DEFAULT_ADMIN_ROLE()": "a217fddf",
        "MINTER_ROLE()": "d5391393",
        "PAUSER_ROLE()": "e63ab1e9",
        "allowance(address,address)": "dd62ed3e",
        "approve(address,uint256)": "095ea7b3",
        "balanceOf(address)": "70a08231",
        "burnFrom(address,uint256)": "79cc6790",
        "decimals()": "313ce567",
        "getRoleAdmin(bytes32)": "248a9ca3",
        "grantRole(bytes32,address)": "2f2ff15d",
        "hasRole(bytes32,address)": "91d14854",
        "mint(address,uint256)": "40c10f19",
        "minter()": "07546172",
        "name()": "06fdde03",
        "pause()": "8456cb59",
        "paused()": "5c975abb",
        "renounceRole(bytes32,address)": "36568abe",
        "revokeRole(bytes32,address)": "d547741f",
        "setMinter(address)": "fca3b5aa",
        "supportsInterface(bytes4)": "01ffc9a7",
        "symbol()": "95d89b41",
        "totalSupply()": "18160ddd",
        "transfer(address,uint256)": "a9059cbb",
        "transferFrom(address,address,uint256)": "23b872dd",
        "unpause()": "3f4ba83a"
    },
    "id": 42
}