{
    "abi": [
        {
            "type": "constructor",
            "inputs": [
                {
                    "name": "stakingToken_",
                    "type": "address",
                    "internalType": "address"
                },
                {
                    "name": "rewardToken_",
                    "type": "address",
                    "internalType": "address"
                },
                {
                    "name": "k613_",
                    "type": "address",
                    "internalType": "address"
                },
                {
                    "name": "epochDuration_",
                    "type": "uint256",
                    "internalType": "uint256"
                }
            ],
            "stateMutability": "nonpayable"
        },
        {
            "type": "function",
            "name": "DEFAULT_ADMIN_ROLE",
            "inputs": [],
            "outputs": [
                {
                    "name": "",
                    "type": "bytes32",
                    "internalType": "bytes32"
                }
            ],
            "stateMutability": "view"
        },
        {
            "type": "function",
            "name": "MIN_INITIAL_DEPOSIT",
            "inputs": [],
            "outputs": [
                {
                    "name": "",
                    "type": "uint256",
                    "internalType": "uint256"
                }
            ],
            "stateMutability": "view"
        },
        {
            "type": "function",
            "name": "MIN_NOTIFY",
            "inputs": [],
            "outputs": [
                {
                    "name": "",
                    "type": "uint256",
                    "internalType": "uint256"
                }
            ],
            "stateMutability": "view"
        },
        {
            "type": "function",
            "name": "MIN_PENALTY_FLUSH",
            "inputs": [],
            "outputs": [
                {
                    "name": "",
                    "type": "uint256",
                    "internalType": "uint256"
                }
            ],
            "stateMutability": "view"
        },
        {
            "type": "function",
            "name": "PAUSER_ROLE",
            "inputs": [],
            "outputs": [
                {
                    "name": "",
                    "type": "bytes32",
                    "internalType": "bytes32"
                }
            ],
            "stateMutability": "view"
        },
        {
            "type": "function",
            "name": "REWARDS_NOTIFIER_ROLE",
            "inputs": [],
            "outputs": [
                {
                    "name": "",
                    "type": "bytes32",
                    "internalType": "bytes32"
                }
            ],
            "stateMutability": "view"
        },
        {
            "type": "function",
            "name": "accRewardPerShare",
            "inputs": [],
            "outputs": [
                {
                    "name": "",
                    "type": "uint256",
                    "internalType": "uint256"
                }
            ],
            "stateMutability": "view"
        },
        {
            "type": "function",
            "name": "addPendingPenalty",
            "inputs": [
                {
                    "name": "amount",
                    "type": "uint256",
                    "internalType": "uint256"
                }
            ],
            "outputs": [],
            "stateMutability": "nonpayable"
        },
        {
            "type": "function",
            "name": "advanceEpoch",
            "inputs": [],
            "outputs": [],
            "stateMutability": "nonpayable"
        },
        {
            "type": "function",
            "name": "balanceOf",
            "inputs": [
                {
                    "name": "",
                    "type": "address",
                    "internalType": "address"
                }
            ],
            "outputs": [
                {
                    "name": "",
                    "type": "uint256",
                    "internalType": "uint256"
                }
            ],
            "stateMutability": "view"
        },
        {
            "type": "function",
            "name": "claim",
            "inputs": [],
            "outputs": [],
            "stateMutability": "nonpayable"
        },
        {
            "type": "function",
            "name": "deposit",
            "inputs": [
                {
                    "name": "amount",
                    "type": "uint256",
                    "internalType": "uint256"
                }
            ],
            "outputs": [],
            "stateMutability": "nonpayable"
        },
        {
            "type": "function",
            "name": "epochDuration",
            "inputs": [],
            "outputs": [
                {
                    "name": "",
                    "type": "uint256",
                    "internalType": "uint256"
                }
            ],
            "stateMutability": "view"
        },
        {
            "type": "function",
            "name": "getRoleAdmin",
            "inputs": [
                {
                    "name": "role",
                    "type": "bytes32",
                    "internalType": "bytes32"
                }
            ],
            "outputs": [
                {
                    "name": "",
                    "type": "bytes32",
                    "internalType": "bytes32"
                }
            ],
            "stateMutability": "view"
        },
        {
            "type": "function",
            "name": "grantRole",
            "inputs": [
                {
                    "name": "role",
                    "type": "bytes32",
                    "internalType": "bytes32"
                },
                {
                    "name": "account",
                    "type": "address",
                    "internalType": "address"
                }
            ],
            "outputs": [],
            "stateMutability": "nonpayable"
        },
        {
            "type": "function",
            "name": "hasRole",
            "inputs": [
                {
                    "name": "role",
                    "type": "bytes32",
                    "internalType": "bytes32"
                },
                {
                    "name": "account",
                    "type": "address",
                    "internalType": "address"
                }
            ],
            "outputs": [
                {
                    "name": "",
                    "type": "bool",
                    "internalType": "bool"
                }
            ],
            "stateMutability": "view"
        },
        {
            "type": "function",
            "name": "k613",
            "inputs": [],
            "outputs": [
                {
                    "name": "",
                    "type": "address",
                    "internalType": "contract IERC20"
                }
            ],
            "stateMutability": "view"
        },
        {
            "type": "function",
            "name": "lastEpochFlushAt",
            "inputs": [],
            "outputs": [
                {
                    "name": "",
                    "type": "uint256",
                    "internalType": "uint256"
                }
            ],
            "stateMutability": "view"
        },
        {
            "type": "function",
            "name": "nextEpochAt",
            "inputs": [],
            "outputs": [
                {
                    "name": "",
                    "type": "uint256",
                    "internalType": "uint256"
                }
            ],
            "stateMutability": "view"
        },
        {
            "type": "function",
            "name": "notifyReward",
            "inputs": [
                {
                    "name": "amount",
                    "type": "uint256",
                    "internalType": "uint256"
                }
            ],
            "outputs": [],
            "stateMutability": "nonpayable"
        },
        {
            "type": "function",
            "name": "pause",
            "inputs": [],
            "outputs": [],
            "stateMutability": "nonpayable"
        },
        {
            "type": "function",
            "name": "paused",
            "inputs": [],
            "outputs": [
                {
                    "name": "",
                    "type": "bool",
                    "internalType": "bool"
                }
            ],
            "stateMutability": "view"
        },
        {
            "type": "function",
            "name": "pendingPenalties",
            "inputs": [],
            "outputs": [
                {
                    "name": "",
                    "type": "uint256",
                    "internalType": "uint256"
                }
            ],
            "stateMutability": "view"
        },
        {
            "type": "function",
            "name": "pendingRewards",
            "inputs": [],
            "outputs": [
                {
                    "name": "",
                    "type": "uint256",
                    "internalType": "uint256"
                }
            ],
            "stateMutability": "view"
        },
        {
            "type": "function",
            "name": "pendingRewardsOf",
            "inputs": [
                {
                    "name": "account",
                    "type": "address",
                    "internalType": "address"
                }
            ],
            "outputs": [
                {
                    "name": "",
                    "type": "uint256",
                    "internalType": "uint256"
                }
            ],
            "stateMutability": "view"
        },
        {
            "type": "function",
            "name": "renounceRole",
            "inputs": [
                {
                    "name": "role",
                    "type": "bytes32",
                    "internalType": "bytes32"
                },
                {
                    "name": "callerConfirmation",
                    "type": "address",
                    "internalType": "address"
                }
            ],
            "outputs": [],
            "stateMutability": "nonpayable"
        },
        {
            "type": "function",
            "name": "revokeRole",
            "inputs": [
                {
                    "name": "role",
                    "type": "bytes32",
                    "internalType": "bytes32"
                },
                {
                    "name": "account",
                    "type": "address",
                    "internalType": "address"
                }
            ],
            "outputs": [],
            "stateMutability": "nonpayable"
        },
        {
            "type": "function",
            "name": "rewardToken",
            "inputs": [],
            "outputs": [
                {
                    "name": "",
                    "type": "address",
                    "internalType": "contract IERC20"
                }
            ],
            "stateMutability": "view"
        },
        {
            "type": "function",
            "name": "setStaking",
            "inputs": [
                {
                    "name": "staking_",
                    "type": "address",
                    "internalType": "address"
                }
            ],
            "outputs": [],
            "stateMutability": "nonpayable"
        },
        {
            "type": "function",
            "name": "staking",
            "inputs": [],
            "outputs": [
                {
                    "name": "",
                    "type": "address",
                    "internalType": "address"
                }
            ],
            "stateMutability": "view"
        },
        {
            "type": "function",
            "name": "stakingToken",
            "inputs": [],
            "outputs": [
                {
                    "name": "",
                    "type": "address",
                    "internalType": "contract IERC20"
                }
            ],
            "stateMutability": "view"
        },
        {
            "type": "function",
            "name": "supportsInterface",
            "inputs": [
                {
                    "name": "interfaceId",
                    "type": "bytes4",
                    "internalType": "bytes4"
                }
            ],
            "outputs": [
                {
                    "name": "",
                    "type": "bool",
                    "internalType": "bool"
                }
            ],
            "stateMutability": "view"
        },
        {
            "type": "function",
            "name": "totalDeposits",
            "inputs": [],
            "outputs": [
                {
                    "name": "",
                    "type": "uint256",
                    "internalType": "uint256"
                }
            ],
            "stateMutability": "view"
        },
        {
            "type": "function",
            "name": "unpause",
            "inputs": [],
            "outputs": [],
            "stateMutability": "nonpayable"
        },
        {
            "type": "function",
            "name": "userPendingRewards",
            "inputs": [
                {
                    "name": "",
                    "type": "address",
                    "internalType": "address"
                }
            ],
            "outputs": [
                {
                    "name": "",
                    "type": "uint256",
                    "internalType": "uint256"
                }
            ],
            "stateMutability": "view"
        },
        {
            "type": "function",
            "name": "userRewardDebt",
            "inputs": [
                {
                    "name": "",
                    "type": "address",
                    "internalType": "address"
                }
            ],
            "outputs": [
                {
                    "name": "",
                    "type": "uint256",
                    "internalType": "uint256"
                }
            ],
            "stateMutability": "view"
        },
        {
            "type": "function",
            "name": "withdraw",
            "inputs": [
                {
                    "name": "amount",
                    "type": "uint256",
                    "internalType": "uint256"
                }
            ],
            "outputs": [],
            "stateMutability": "nonpayable"
        },
        {
            "type": "event",
            "name": "Claimed",
            "inputs": [
                {
                    "name": "account",
                    "type": "address",
                    "indexed": true,
                    "internalType": "address"
                },
                {
                    "name": "amount",
                    "type": "uint256",
                    "indexed": false,
                    "internalType": "uint256"
                }
            ],
            "anonymous": false
        },
        {
            "type": "event",
            "name": "Deposited",
            "inputs": [
                {
                    "name": "account",
                    "type": "address",
                    "indexed": true,
                    "internalType": "address"
                },
                {
                    "name": "amount",
                    "type": "uint256",
                    "indexed": false,
                    "internalType": "uint256"
                }
            ],
            "anonymous": false
        },
        {
            "type": "event",
            "name": "EpochAdvanced",
            "inputs": [
                {
                    "name": "timestamp",
                    "type": "uint256",
                    "indexed": false,
                    "internalType": "uint256"
                }
            ],
            "anonymous": false
        },
        {
            "type": "event",
            "name": "Paused",
            "inputs": [
                {
                    "name": "account",
                    "type": "address",
                    "indexed": false,
                    "internalType": "address"
                }
            ],
            "anonymous": false
        },
        {
            "type": "event",
            "name": "PenaltyAdded",
            "inputs": [
                {
                    "name": "amount",
                    "type": "uint256",
                    "indexed": false,
                    "internalType": "uint256"
                }
            ],
            "anonymous": false
        },
        {
            "type": "event",
            "name": "RewardNotified",
            "inputs": [
                {
                    "name": "amount",
                    "type": "uint256",
                    "indexed": false,
                    "internalType": "uint256"
                }
            ],
            "anonymous": false
        },
        {
            "type": "event",
            "name": "RoleAdminChanged",
            "inputs": [
                {
                    "name": "role",
                    "type": "bytes32",
                    "indexed": true,
                    "internalType": "bytes32"
                },
                {
                    "name": "previousAdminRole",
                    "type": "bytes32",
                    "indexed": true,
                    "internalType": "bytes32"
                },
                {
                    "name": "newAdminRole",
                    "type": "bytes32",
                    "indexed": true,
                    "internalType": "bytes32"
                }
            ],
            "anonymous": false
        },
        {
            "type": "event",
            "name": "RoleGranted",
            "inputs": [
                {
                    "name": "role",
                    "type": "bytes32",
                    "indexed": true,
                    "internalType": "bytes32"
                },
                {
                    "name": "account",
                    "type": "address",
                    "indexed": true,
                    "internalType": "address"
                },
                {
                    "name": "sender",
                    "type": "address",
                    "indexed": true,
                    "internalType": "address"
                }
            ],
            "anonymous": false
        },
        {
            "type": "event",
            "name": "RoleRevoked",
            "inputs": [
                {
                    "name": "role",
                    "type": "bytes32",
                    "indexed": true,
                    "internalType": "bytes32"
                },
                {
                    "name": "account",
                    "type": "address",
                    "indexed": true,
                    "internalType": "address"
                },
                {
                    "name": "sender",
                    "type": "address",
                    "indexed": true,
                    "internalType": "address"
                }
            ],
            "anonymous": false
        },
        {
            "type": "event",
            "name": "StakingUpdated",
            "inputs": [
                {
                    "name": "staking",
                    "type": "address",
                    "indexed": true,
                    "internalType": "address"
                }
            ],
            "anonymous": false
        },
        {
            "type": "event",
            "name": "Unpaused",
            "inputs": [
                {
                    "name": "account",
                    "type": "address",
                    "indexed": false,
                    "internalType": "address"
                }
            ],
            "anonymous": false
        },
        {
            "type": "event",
            "name": "Withdrawn",
            "inputs": [
                {
                    "name": "account",
                    "type": "address",
                    "indexed": true,
                    "internalType": "address"
                },
                {
                    "name": "amount",
                    "type": "uint256",
                    "indexed": false,
                    "internalType": "uint256"
                }
            ],
            "anonymous": false
        },
        {
            "type": "error",
            "name": "AccessControlBadConfirmation",
            "inputs": []
        },
        {
            "type": "error",
            "name": "AccessControlUnauthorizedAccount",
            "inputs": [
                {
                    "name": "account",
                    "type": "address",
                    "internalType": "address"
                },
                {
                    "name": "neededRole",
                    "type": "bytes32",
                    "internalType": "bytes32"
                }
            ]
        },
        {
            "type": "error",
            "name": "EnforcedPause",
            "inputs": []
        },
        {
            "type": "error",
            "name": "EpochNotReady",
            "inputs": []
        },
        {
            "type": "error",
            "name": "ExitVestingActive",
            "inputs": []
        },
        {
            "type": "error",
            "name": "ExpectedPause",
            "inputs": []
        },
        {
            "type": "error",
            "name": "InsufficientBalance",
            "inputs": []
        },
        {
            "type": "error",
            "name": "InvalidEpochDuration",
            "inputs": []
        },
        {
            "type": "error",
            "name": "MinimumInitialDeposit",
            "inputs": []
        },
        {
            "type": "error",
            "name": "MinimumNotify",
            "inputs": []
        },
        {
            "type": "error",
            "name": "NoRewards",
            "inputs": []
        },
        {
            "type": "error",
            "name": "ReentrancyGuardReentrantCall",
            "inputs": []
        },
        {
            "type": "error",
            "name": "SafeERC20FailedOperation",
            "inputs": [
                {
                    "name": "token",
                    "type": "address",
                    "internalType": "address"
                }
            ]
        },
        {
            "type": "error",
            "name": "ZeroAddress",
            "inputs": []
        },
        {
            "type": "error",
            "name": "ZeroAmount",
            "inputs": []
        }
    ],
    "bytecode": {
        "object": "0x610100604052348015610010575f5ffd5b506040516130073803806130078339818101604052810190610032919061047b565b600161005061004561025960201b60201c565b61028260201b60201c565b5f01819055505f73ffffffffffffffffffffffffffffffffffffffff168473ffffffffffffffffffffffffffffffffffffffff1614806100bb57505f73ffffffffffffffffffffffffffffffffffffffff168373ffffffffffffffffffffffffffffffffffffffff16145b806100f157505f73ffffffffffffffffffffffffffffffffffffffff168273ffffffffffffffffffffffffffffffffffffffff16145b15610128576040517fd92e233d00000000000000000000000000000000000000000000000000000000815260040160405180910390fd5b5f8103610161576040517fd1ebf1e200000000000000000000000000000000000000000000000000000000815260040160405180910390fd5b6101735f5f1b3361028b60201b60201c565b506101a47f65d7a28e3265b37a6474929f336521b332c1681b933f6cb9f3376673440d862a3361028b60201b60201c565b508373ffffffffffffffffffffffffffffffffffffffff1660808173ffffffffffffffffffffffffffffffffffffffff16815250508273ffffffffffffffffffffffffffffffffffffffff1660a08173ffffffffffffffffffffffffffffffffffffffff16815250508173ffffffffffffffffffffffffffffffffffffffff1660c08173ffffffffffffffffffffffffffffffffffffffff16815250508060e0818152505042600281905550505050506104df565b5f7f9b779b17422d0df92223018b32b4d1fa46e071723d6817e2486d003becc55f005f1b905090565b5f819050919050565b5f61029c838361038060201b60201c565b6103765760015f5f8581526020019081526020015f205f015f8473ffffffffffffffffffffffffffffffffffffffff1673ffffffffffffffffffffffffffffffffffffffff1681526020019081526020015f205f6101000a81548160ff0219169083151502179055506103136103e360201b60201c565b73ffffffffffffffffffffffffffffffffffffffff168273ffffffffffffffffffffffffffffffffffffffff16847f2f8788117e7eff1d82e926ec794901d17c78024a50270940304540a733656f0d60405160405180910390a46001905061037a565b5f90505b92915050565b5f5f5f8481526020019081526020015f205f015f8373ffffffffffffffffffffffffffffffffffffffff1673ffffffffffffffffffffffffffffffffffffffff1681526020019081526020015f205f9054906101000a900460ff16905092915050565b5f33905090565b5f5ffd5b5f73ffffffffffffffffffffffffffffffffffffffff82169050919050565b5f610417826103ee565b9050919050565b6104278161040d565b8114610431575f5ffd5b50565b5f815190506104428161041e565b92915050565b5f819050919050565b61045a81610448565b8114610464575f5ffd5b50565b5f8151905061047581610451565b92915050565b5f5f5f5f60808587031215610493576104926103ea565b5b5f6104a087828801610434565b94505060206104b187828801610434565b93505060406104c287828801610434565b92505060606104d387828801610467565b91505092959194509250565b60805160a05160c05160e051612aaf6105585f395f8181610ae201528181610cdb015281816110c801528181611837015261207d01525f818161129401528181611dde01528181611ead0152611fa001525f8181611029015261189401525f81816109150152818161126a015261176b0152612aaf5ff3fe608060405234801561000f575f5ffd5b5060043610610225575f3560e01c80637d8820971161012e578063a217fddf116100b6578063da566df61161007a578063da566df6146105f5578063e63ab1e914610613578063eded3fda14610631578063f7c618c11461064f578063fc9d77111461066d57610225565b8063a217fddf14610563578063a750e69414610581578063b6b55f251461059f578063c7c11f3e146105bb578063d547741f146105d957610225565b80638aef97ce116100fd5780638aef97ce146104bd5780638deb8fc8146104db5780638ff39099146104f957806391d1485414610515578063939d62371461054557610225565b80637d8820971461045b57806383767b78146104795780638456cb591461049757806389423406146104a157610225565b8063497a04e0116101b15780634ff0876a116101805780634ff0876a146103b55780635c975abb146103d357806360993b5b146103f157806370a082311461040d57806372f702f31461043d57610225565b8063497a04e01461033f5780634bf6f9e71461035d5780634cf088d91461038d5780634e71d92d146103ab57610225565b80632f2ff15d116101f85780632f2ff15d146102c357806336568abe146102df5780633988bad8146102fb5780633cf80e6c1461032b5780633f4ba83a1461033557610225565b806301ffc9a714610229578063248a9ca3146102595780632ad876e0146102895780632e1a7d4d146102a7575b5f5ffd5b610243600480360381019061023e9190612619565b61069d565b604051610250919061265e565b60405180910390f35b610273600480360381019061026e91906126aa565b610716565b60405161028091906126e4565b60405180910390f35b610291610732565b60405161029e9190612715565b60405180910390f35b6102c160048036038101906102bc9190612758565b61073b565b005b6102dd60048036038101906102d891906127dd565b6109b2565b005b6102f960048036038101906102f491906127dd565b6109d4565b005b6103156004803603810190610310919061281b565b610a4f565b6040516103229190612715565b60405180910390f35b610333610cc1565b005b61033d610d5d565b005b610347610d92565b6040516103549190612715565b60405180910390f35b6103776004803603810190610372919061281b565b610d9e565b6040516103849190612715565b60405180910390f35b610395610db3565b6040516103a29190612855565b60405180910390f35b6103b3610dd8565b005b6103bd6110c6565b6040516103ca9190612715565b60405180910390f35b6103db6110ea565b6040516103e8919061265e565b60405180910390f35b61040b60048036038101906104069190612758565b6110ff565b005b6104276004803603810190610422919061281b565b611253565b6040516104349190612715565b60405180910390f35b610445611268565b60405161045291906128c9565b60405180910390f35b61046361128c565b6040516104709190612715565b60405180910390f35b610481611292565b60405161048e91906128c9565b60405180910390f35b61049f6112b6565b005b6104bb60048036038101906104b69190612758565b6112eb565b005b6104c5611389565b6040516104d29190612715565b60405180910390f35b6104e361138f565b6040516104f09190612715565b60405180910390f35b610513600480360381019061050e919061281b565b611395565b005b61052f600480360381019061052a91906127dd565b611528565b60405161053c919061265e565b60405180910390f35b61054d61158b565b60405161055a9190612715565b60405180910390f35b61056b611591565b60405161057891906126e4565b60405180910390f35b610589611597565b60405161059691906126e4565b60405180910390f35b6105b960048036038101906105b49190612758565b6115bb565b005b6105c3611809565b6040516105d09190612715565b60405180910390f35b6105f360048036038101906105ee91906127dd565b611812565b005b6105fd611834565b60405161060a9190612715565b60405180910390f35b61061b611868565b60405161062891906126e4565b60405180910390f35b61063961188c565b6040516106469190612715565b60405180910390f35b610657611892565b60405161066491906128c9565b60405180910390f35b6106876004803603810190610682919061281b565b6118b6565b6040516106949190612715565b60405180910390f35b5f7f7965db0b000000000000000000000000000000000000000000000000000000007bffffffffffffffffffffffffffffffffffffffffffffffffffffffff1916827bffffffffffffffffffffffffffffffffffffffffffffffffffffffff1916148061070f575061070e826118cb565b5b9050919050565b5f5f5f8381526020019081526020015f20600101549050919050565b64e8d4a5100081565b610743611934565b61074b611956565b5f8103610784576040517f1f2a200500000000000000000000000000000000000000000000000000000000815260040160405180910390fd5b8060075f3373ffffffffffffffffffffffffffffffffffffffff1673ffffffffffffffffffffffffffffffffffffffff1681526020019081526020015f205410156107fb576040517ff4d678b800000000000000000000000000000000000000000000000000000000815260040160405180910390fd5b61080433611997565b8060075f3373ffffffffffffffffffffffffffffffffffffffff1673ffffffffffffffffffffffffffffffffffffffff1681526020019081526020015f205f828254610850919061290f565b925050819055508060065f828254610868919061290f565b92505081905550670de0b6b3a764000060035460075f3373ffffffffffffffffffffffffffffffffffffffff1673ffffffffffffffffffffffffffffffffffffffff1681526020019081526020015f20546108c39190612942565b6108cd91906129b0565b60085f3373ffffffffffffffffffffffffffffffffffffffff1673ffffffffffffffffffffffffffffffffffffffff1681526020019081526020015f208190555061095933827f000000000000000000000000000000000000000000000000000000000000000073ffffffffffffffffffffffffffffffffffffffff16611b2c9092919063ffffffff16565b3373ffffffffffffffffffffffffffffffffffffffff167f7084f5476618d8e60b11ef0d7d3f06914655adb8793e28ff7f018d4c76d505d58260405161099f9190612715565b60405180910390a26109af611b7f565b50565b6109bb82610716565b6109c481611b99565b6109ce8383611bad565b50505050565b6109dc611c96565b73ffffffffffffffffffffffffffffffffffffffff168173ffffffffffffffffffffffffffffffffffffffff1614610a40576040517f6697b23200000000000000000000000000000000000000000000000000000000815260040160405180910390fd5b610a4a8282611c9d565b505050565b5f5f60065403610a9e5760095f8373ffffffffffffffffffffffffffffffffffffffff1673ffffffffffffffffffffffffffffffffffffffff1681526020019081526020015f20549050610cbc565b5f60035490505f6004541115610adf57600654670de0b6b3a7640000600454610ac79190612942565b610ad191906129b0565b81610adc91906129e0565b90505b5f7f0000000000000000000000000000000000000000000000000000000000000000600254610b0e91906129e0565b42101590505f670de0b6b3a7640000600554101580610b3757505f600554118015610b365750815b5b90508015610b7057600654670de0b6b3a7640000600554610b589190612942565b610b6291906129b0565b83610b6d91906129e0565b92505b5f60075f8773ffffffffffffffffffffffffffffffffffffffff1673ffffffffffffffffffffffffffffffffffffffff1681526020019081526020015f205490505f670de0b6b3a76400008583610bc79190612942565b610bd191906129b0565b90505f60085f8973ffffffffffffffffffffffffffffffffffffffff1673ffffffffffffffffffffffffffffffffffffffff1681526020019081526020015f20548211610c1e575f610c68565b60085f8973ffffffffffffffffffffffffffffffffffffffff1673ffffffffffffffffffffffffffffffffffffffff1681526020019081526020015f205482610c67919061290f565b5b90508060095f8a73ffffffffffffffffffffffffffffffffffffffff1673ffffffffffffffffffffffffffffffffffffffff1681526020019081526020015f2054610cb391906129e0565b96505050505050505b919050565b610cc9611934565b610cd1611956565b610cd9611d86565b7f0000000000000000000000000000000000000000000000000000000000000000600254610d0791906129e0565b421015610d40576040517fac4258ee00000000000000000000000000000000000000000000000000000000815260040160405180910390fd5b5f6006541115610d5357610d52611fe8565b5b610d5b611b7f565b565b7f65d7a28e3265b37a6474929f336521b332c1681b933f6cb9f3376673440d862a610d8781611b99565b610d8f6121a2565b50565b670de0b6b3a764000081565b6008602052805f5260405f205f915090505481565b600a5f9054906101000a900473ffffffffffffffffffffffffffffffffffffffff1681565b610de0611934565b610de8611956565b610df133611997565b5f60095f3373ffffffffffffffffffffffffffffffffffffffff1673ffffffffffffffffffffffffffffffffffffffff1681526020019081526020015f205490505f8103610e6b576040517f3fb087f400000000000000000000000000000000000000000000000000000000815260040160405180910390fd5b5f73ffffffffffffffffffffffffffffffffffffffff16600a5f9054906101000a900473ffffffffffffffffffffffffffffffffffffffff1673ffffffffffffffffffffffffffffffffffffffff1614158015610f5f57505f600a5f9054906101000a900473ffffffffffffffffffffffffffffffffffffffff1673ffffffffffffffffffffffffffffffffffffffff1663ce1e3921336040518263ffffffff1660e01b8152600401610f1e9190612855565b602060405180830381865afa158015610f39573d5f5f3e3d5ffd5b505050506040513d601f19601f82011682018060405250810190610f5d9190612a27565b115b15610fd8578060095f3373ffffffffffffffffffffffffffffffffffffffff1673ffffffffffffffffffffffffffffffffffffffff1681526020019081526020015f20819055506040517fc75b777100000000000000000000000000000000000000000000000000000000815260040160405180910390fd5b5f60095f3373ffffffffffffffffffffffffffffffffffffffff1673ffffffffffffffffffffffffffffffffffffffff1681526020019081526020015f2081905550611022611d86565b61106d33827f000000000000000000000000000000000000000000000000000000000000000073ffffffffffffffffffffffffffffffffffffffff16611b2c9092919063ffffffff16565b3373ffffffffffffffffffffffffffffffffffffffff167fd8138f8a3f377c5259ca548e70e4c2de94f129f5a11036a15b69513cba2b426a826040516110b39190612715565b60405180910390a2506110c4611b7f565b565b7f000000000000000000000000000000000000000000000000000000000000000081565b5f60015f9054906101000a900460ff16905090565b611107611934565b7f5cdba25167d99b7ec892ee2622f05561f779da5483692d63a6740a77a2c8d05661113181611b99565b611139611956565b5f8203611172576040517f1f2a200500000000000000000000000000000000000000000000000000000000815260040160405180910390fd5b64e8d4a510008210156111b1576040517f70d8eda600000000000000000000000000000000000000000000000000000000815260040160405180910390fd5b5f600654036111d7578160045f8282546111cb91906129e0565b92505081905550611247565b600654670de0b6b3a7640000836111ee9190612942565b6111f891906129b0565b60035f82825461120891906129e0565b925050819055507ff9a5da3a173eca8cd77c02ece3ff1467b8aa461ed3822201817f2d72fbc542838260405161123e9190612715565b60405180910390a15b50611250611b7f565b50565b6007602052805f5260405f205f915090505481565b7f000000000000000000000000000000000000000000000000000000000000000081565b60065481565b7f000000000000000000000000000000000000000000000000000000000000000081565b7f65d7a28e3265b37a6474929f336521b332c1681b933f6cb9f3376673440d862a6112e081611b99565b6112e8612203565b50565b6112f3611934565b7f5cdba25167d99b7ec892ee2622f05561f779da5483692d63a6740a77a2c8d05661131d81611b99565b611325611956565b5f82031561137d578160055f82825461133e91906129e0565b925050819055507f9db9090d4cd2fd574fb4903fcd18a7a99e1a8f3bdcf7ee81e24b8dfd209267b6826040516113749190612715565b60405180910390a15b50611386611b7f565b50565b60025481565b60055481565b5f5f1b6113a181611b99565b5f73ffffffffffffffffffffffffffffffffffffffff16600a5f9054906101000a900473ffffffffffffffffffffffffffffffffffffffff1673ffffffffffffffffffffffffffffffffffffffff1614611442576114407f5cdba25167d99b7ec892ee2622f05561f779da5483692d63a6740a77a2c8d056600a5f9054906101000a900473ffffffffffffffffffffffffffffffffffffffff16611c9d565b505b81600a5f6101000a81548173ffffffffffffffffffffffffffffffffffffffff021916908373ffffffffffffffffffffffffffffffffffffffff1602179055505f73ffffffffffffffffffffffffffffffffffffffff168273ffffffffffffffffffffffffffffffffffffffff16146114e1576114df7f5cdba25167d99b7ec892ee2622f05561f779da5483692d63a6740a77a2c8d05683611bad565b505b8173ffffffffffffffffffffffffffffffffffffffff167fe189a719dae2bf18df1013cfa028ecce01f9fafdbd456a862fa18e6d0143e3c260405160405180910390a25050565b5f5f5f8481526020019081526020015f205f015f8373ffffffffffffffffffffffffffffffffffffffff1673ffffffffffffffffffffffffffffffffffffffff1681526020019081526020015f205f9054906101000a900460ff16905092915050565b60035481565b5f5f1b81565b7f5cdba25167d99b7ec892ee2622f05561f779da5483692d63a6740a77a2c8d05681565b6115c3611934565b6115cb611956565b5f8103611604576040517f1f2a200500000000000000000000000000000000000000000000000000000000815260040160405180910390fd5b5f600654148015611619575064e8d4a5100081105b15611650576040517f306cc97600000000000000000000000000000000000000000000000000000000815260040160405180910390fd5b61165933611997565b8060075f3373ffffffffffffffffffffffffffffffffffffffff1673ffffffffffffffffffffffffffffffffffffffff1681526020019081526020015f205f8282546116a591906129e0565b925050819055508060065f8282546116bd91906129e0565b92505081905550670de0b6b3a764000060035460075f3373ffffffffffffffffffffffffffffffffffffffff1673ffffffffffffffffffffffffffffffffffffffff1681526020019081526020015f20546117189190612942565b61172291906129b0565b60085f3373ffffffffffffffffffffffffffffffffffffffff1673ffffffffffffffffffffffffffffffffffffffff1681526020019081526020015f20819055506117b03330837f000000000000000000000000000000000000000000000000000000000000000073ffffffffffffffffffffffffffffffffffffffff16612264909392919063ffffffff16565b3373ffffffffffffffffffffffffffffffffffffffff167f2da466a7b24304f47e87fa2e1e5a81b9831ce54fec19055ce277ca2f39ba42c4826040516117f69190612715565b60405180910390a2611806611b7f565b50565b64e8d4a5100081565b61181b82610716565b61182481611b99565b61182e8383611c9d565b50505050565b5f7f000000000000000000000000000000000000000000000000000000000000000060025461186391906129e0565b905090565b7f65d7a28e3265b37a6474929f336521b332c1681b933f6cb9f3376673440d862a81565b60045481565b7f000000000000000000000000000000000000000000000000000000000000000081565b6009602052805f5260405f205f915090505481565b5f7f01ffc9a7000000000000000000000000000000000000000000000000000000007bffffffffffffffffffffffffffffffffffffffffffffffffffffffff1916827bffffffffffffffffffffffffffffffffffffffffffffffffffffffff1916149050919050565b61193c6122b9565b600261194e6119496122fa565b612323565b5f0181905550565b61195e6110ea565b15611995576040517fd93c066500000000000000000000000000000000000000000000000000000000815260040160405180910390fd5b565b61199f611fe8565b5f60075f8373ffffffffffffffffffffffffffffffffffffffff1673ffffffffffffffffffffffffffffffffffffffff1681526020019081526020015f205490505f670de0b6b3a7640000600354836119f89190612942565b611a0291906129b0565b905060085f8473ffffffffffffffffffffffffffffffffffffffff1673ffffffffffffffffffffffffffffffffffffffff1681526020019081526020015f2054811115611ae55760085f8473ffffffffffffffffffffffffffffffffffffffff1673ffffffffffffffffffffffffffffffffffffffff1681526020019081526020015f205481611a92919061290f565b60095f8573ffffffffffffffffffffffffffffffffffffffff1673ffffffffffffffffffffffffffffffffffffffff1681526020019081526020015f205f828254611add91906129e0565b925050819055505b8060085f8573ffffffffffffffffffffffffffffffffffffffff1673ffffffffffffffffffffffffffffffffffffffff1681526020019081526020015f2081905550505050565b611b39838383600161232c565b611b7a57826040517f5274afe7000000000000000000000000000000000000000000000000000000008152600401611b719190612855565b60405180910390fd5b505050565b6001611b91611b8c6122fa565b612323565b5f0181905550565b611baa81611ba5611c96565b61238e565b50565b5f611bb88383611528565b611c8c5760015f5f8581526020019081526020015f205f015f8473ffffffffffffffffffffffffffffffffffffffff1673ffffffffffffffffffffffffffffffffffffffff1681526020019081526020015f205f6101000a81548160ff021916908315150217905550611c29611c96565b73ffffffffffffffffffffffffffffffffffffffff168273ffffffffffffffffffffffffffffffffffffffff16847f2f8788117e7eff1d82e926ec794901d17c78024a50270940304540a733656f0d60405160405180910390a460019050611c90565b5f90505b92915050565b5f33905090565b5f611ca88383611528565b15611d7c575f5f5f8581526020019081526020015f205f015f8473ffffffffffffffffffffffffffffffffffffffff1673ffffffffffffffffffffffffffffffffffffffff1681526020019081526020015f205f6101000a81548160ff021916908315150217905550611d19611c96565b73ffffffffffffffffffffffffffffffffffffffff168273ffffffffffffffffffffffffffffffffffffffff16847ff6391f5c32d9c69d2a47ea670b442974b53935d1edc7fd64eb21e047a839171b60405160405180910390a460019050611d80565b5f90505b92915050565b5f73ffffffffffffffffffffffffffffffffffffffff16600a5f9054906101000a900473ffffffffffffffffffffffffffffffffffffffff1673ffffffffffffffffffffffffffffffffffffffff160315611fe6575f7f000000000000000000000000000000000000000000000000000000000000000073ffffffffffffffffffffffffffffffffffffffff166370a08231306040518263ffffffff1660e01b8152600401611e359190612855565b602060405180830381865afa158015611e50573d5f5f3e3d5ffd5b505050506040513d601f19601f82011682018060405250810190611e749190612a27565b90506001811015611e855750611fe6565b611ef1600a5f9054906101000a900473ffffffffffffffffffffffffffffffffffffffff16827f000000000000000000000000000000000000000000000000000000000000000073ffffffffffffffffffffffffffffffffffffffff166123df9092919063ffffffff16565b600a5f9054906101000a900473ffffffffffffffffffffffffffffffffffffffff1673ffffffffffffffffffffffffffffffffffffffff1663a694fc3a826040518263ffffffff1660e01b8152600401611f4b9190612715565b5f604051808303815f87803b158015611f62575f5ffd5b505af1158015611f74573d5f5f3e3d5ffd5b50505050611fe4600a5f9054906101000a900473ffffffffffffffffffffffffffffffffffffffff165f7f000000000000000000000000000000000000000000000000000000000000000073ffffffffffffffffffffffffffffffffffffffff166123df9092919063ffffffff16565b505b565b5f60065403156121a0575f600454111561207a575f60045490505f600481905550600654670de0b6b3a7640000826120209190612942565b61202a91906129b0565b60035f82825461203a91906129e0565b925050819055507ff9a5da3a173eca8cd77c02ece3ff1467b8aa461ed3822201817f2d72fbc54283816040516120709190612715565b60405180910390a1505b5f7f00000000000000000000000000000000000000000000000000000000000000006002546120a991906129e0565b42101590505f670de0b6b3a76400006005541015806120d257505f6005541180156120d15750815b5b9050801561219d575f60055490505f600581905550600654670de0b6b3a7640000826120fe9190612942565b61210891906129b0565b60035f82825461211891906129e0565b925050819055507ff9a5da3a173eca8cd77c02ece3ff1467b8aa461ed3822201817f2d72fbc542838160405161214e9190612715565b60405180910390a1821561219b57426002819055507fb7f0e37f8e78f28f1f21b98f426d307e949c22f2997ca4b562ee90c3e5b30b30426040516121929190612715565b60405180910390a15b505b50505b565b6121aa612491565b5f60015f6101000a81548160ff0219169083151502179055507f5db9ee0a495bf2e6ff9c91a7834c1ba4fdd244a5e8aa4e537bd38aeae4b073aa6121ec611c96565b6040516121f99190612855565b60405180910390a1565b61220b611956565b6001805f6101000a81548160ff0219169083151502179055507f62e78cea01bee320cd4e420270b5ea74000d11b0c9f74754ebdbfc544b05a25861224d611c96565b60405161225a9190612855565b60405180910390a1565b6122728484848460016124d1565b6122b357836040517f5274afe70000000000000000000000000000000000000000000000000000000081526004016122aa9190612855565b60405180910390fd5b50505050565b6122c1612542565b156122f8576040517f3ee5aeb500000000000000000000000000000000000000000000000000000000815260040160405180910390fd5b565b5f7f9b779b17422d0df92223018b32b4d1fa46e071723d6817e2486d003becc55f005f1b905090565b5f819050919050565b5f5f63a9059cbb60e01b9050604051815f525f1960601c86166004528460245260205f60445f5f8b5af1925060015f51148316612380578383151615612374573d5f823e3d81fd5b5f873b113d1516831692505b806040525050949350505050565b6123988282611528565b6123db5780826040517fe2517d3f0000000000000000000000000000000000000000000000000000000081526004016123d2929190612a52565b60405180910390fd5b5050565b6123eb8383835f61255e565b61248c576123fc83835f600161255e565b61243d57826040517f5274afe70000000000000000000000000000000000000000000000000000000081526004016124349190612855565b60405180910390fd5b61244a838383600161255e565b61248b57826040517f5274afe70000000000000000000000000000000000000000000000000000000081526004016124829190612855565b60405180910390fd5b5b505050565b6124996110ea565b6124cf576040517f8dfc202b00000000000000000000000000000000000000000000000000000000815260040160405180910390fd5b565b5f5f6323b872dd60e01b9050604051815f525f1960601c87166004525f1960601c86166024528460445260205f60645f5f8c5af1925060015f5114831661252f578383151615612523573d5f823e3d81fd5b5f883b113d1516831692505b806040525f606052505095945050505050565b5f60026125556125506122fa565b612323565b5f015414905090565b5f5f63095ea7b360e01b9050604051815f525f1960601c86166004528460245260205f60445f5f8b5af1925060015f511483166125b25783831516156125a6573d5f823e3d81fd5b5f873b113d1516831692505b806040525050949350505050565b5f5ffd5b5f7fffffffff0000000000000000000000000000000000000000000000000000000082169050919050565b6125f8816125c4565b8114612602575f5ffd5b50565b5f81359050612613816125ef565b92915050565b5f6020828403121561262e5761262d6125c0565b5b5f61263b84828501612605565b91505092915050565b5f8115159050919050565b61265881612644565b82525050565b5f6020820190506126715f83018461264f565b92915050565b5f819050919050565b61268981612677565b8114612693575f5ffd5b50565b5f813590506126a481612680565b92915050565b5f602082840312156126bf576126be6125c0565b5b5f6126cc84828501612696565b91505092915050565b6126de81612677565b82525050565b5f6020820190506126f75f8301846126d5565b92915050565b5f819050919050565b61270f816126fd565b82525050565b5f6020820190506127285f830184612706565b92915050565b612737816126fd565b8114612741575f5ffd5b50565b5f813590506127528161272e565b92915050565b5f6020828403121561276d5761276c6125c0565b5b5f61277a84828501612744565b91505092915050565b5f73ffffffffffffffffffffffffffffffffffffffff82169050919050565b5f6127ac82612783565b9050919050565b6127bc816127a2565b81146127c6575f5ffd5b50565b5f813590506127d7816127b3565b92915050565b5f5f604083850312156127f3576127f26125c0565b5b5f61280085828601612696565b9250506020612811858286016127c9565b9150509250929050565b5f602082840312156128305761282f6125c0565b5b5f61283d848285016127c9565b91505092915050565b61284f816127a2565b82525050565b5f6020820190506128685f830184612846565b92915050565b5f819050919050565b5f61289161288c61288784612783565b61286e565b612783565b9050919050565b5f6128a282612877565b9050919050565b5f6128b382612898565b9050919050565b6128c3816128a9565b82525050565b5f6020820190506128dc5f8301846128ba565b92915050565b7f4e487b71000000000000000000000000000000000000000000000000000000005f52601160045260245ffd5b5f612919826126fd565b9150612924836126fd565b925082820390508181111561293c5761293b6128e2565b5b92915050565b5f61294c826126fd565b9150612957836126fd565b9250828202612965816126fd565b9150828204841483151761297c5761297b6128e2565b5b5092915050565b7f4e487b71000000000000000000000000000000000000000000000000000000005f52601260045260245ffd5b5f6129ba826126fd565b91506129c5836126fd565b9250826129d5576129d4612983565b5b828204905092915050565b5f6129ea826126fd565b91506129f5836126fd565b9250828201905080821115612a0d57612a0c6128e2565b5b92915050565b5f81519050612a218161272e565b92915050565b5f60208284031215612a3c57612a3b6125c0565b5b5f612a4984828501612a13565b91505092915050565b5f604082019050612a655f830185612846565b612a7260208301846126d5565b939250505056fea2646970667358221220acc53edd8114c2197069e7c66ab77e4a9067331c4f820ea8fb89daf2678023de64736f6c63430008220033",
        "linkReferences": {}
    },
    "methodIdentifiers": {
        "DEFAULT_ADMIN_ROLE()": "a217fddf",
        "MIN_INITIAL_DEPOSIT()": "2ad876e0",
        "MIN_NOTIFY()": "c7c11f3e",
        "MIN_PENALTY_FLUSH()": "497a04e0",
        "PAUSER_ROLE()": "e63ab1e9",
        "REWARDS_NOTIFIER_ROLE()": "a750e694",
        "accRewardPerShare()": "939d6237",
        "addPendingPenalty(uint256)": "89423406",
        "advanceEpoch()": "3cf80e6c",
        "balanceOf(address)": "70a08231",
        "claim()": "4e71d92d",
        "deposit(uint256)": "b6b55f25",
        "epochDuration()": "4ff0876a",
        "getRoleAdmin(bytes32)": "248a9ca3",
        "grantRole(bytes32,address)": "2f2ff15d",
        "hasRole(bytes32,address)": "91d14854",
        "k613()": "83767b78",
        "lastEpochFlushAt()": "8aef97ce",
        "nextEpochAt()": "da566df6",
        "notifyReward(uint256)": "60993b5b",
        "pause()": "8456cb59",
        "paused()": "5c975abb",
        "pendingPenalties()": "8deb8fc8",
        "pendingRewards()": "eded3fda",
        "pendingRewardsOf(address)": "3988bad8",
        "renounceRole(bytes32,address)": "36568abe",
        "revokeRole(bytes32,address)": "d547741f",
        "rewardToken()": "f7c618c1",
        "setStaking(address)": "8ff39099",
        "staking()": "4cf088d9",
        "stakingToken()": "72f702f3",
        "supportsInterface(bytes4)": "01ffc9a7",
        "totalDeposits()": "7d882097",
        "unpause()": "3f4ba83a",
        "userPendingRewards(address)": "fc9d7711",
        "userRewardDebt(address)": "4bf6f9e7",
        "withdraw(uint256)": "2e1a7d4d"
    },
    "id": 40
}