{
    "abi": [
        {
            "type": "constructor",
            "inputs": [
                {
                    "name": "xk613Token",
                    "type": "address",
                    "internalType": "address"
                },
                {
                    "name": "epochDuration_",
                    "type": "uint256",
                    "internalType": "uint256"
                }
            ],
            "stateMutability": "nonpayable"
        },
        {
            "type": "function",
            "name": "DEFAULT_ADMIN_ROLE",
            "inputs": [],
            "outputs": [
                {
                    "name": "",
                    "type": "bytes32",
                    "internalType": "bytes32"
                }
            ],
            "stateMutability": "view"
        },
        {
            "type": "function",
            "name": "MIN_INITIAL_DEPOSIT",
            "inputs": [],
            "outputs": [
                {
                    "name": "",
                    "type": "uint256",
                    "internalType": "uint256"
                }
            ],
            "stateMutability": "view"
        },
        {
            "type": "function",
            "name": "MIN_PENALTY_FLUSH",
            "inputs": [],
            "outputs": [
                {
                    "name": "",
                    "type": "uint256",
                    "internalType": "uint256"
                }
            ],
            "stateMutability": "view"
        },
        {
            "type": "function",
            "name": "PAUSER_ROLE",
            "inputs": [],
            "outputs": [
                {
                    "name": "",
                    "type": "bytes32",
                    "internalType": "bytes32"
                }
            ],
            "stateMutability": "view"
        },
        {
            "type": "function",
            "name": "REWARDS_NOTIFIER_ROLE",
            "inputs": [],
            "outputs": [
                {
                    "name": "",
                    "type": "bytes32",
                    "internalType": "bytes32"
                }
            ],
            "stateMutability": "view"
        },
        {
            "type": "function",
            "name": "accRewardPerShare",
            "inputs": [],
            "outputs": [
                {
                    "name": "",
                    "type": "uint256",
                    "internalType": "uint256"
                }
            ],
            "stateMutability": "view"
        },
        {
            "type": "function",
            "name": "addPendingPenalty",
            "inputs": [
                {
                    "name": "amount",
                    "type": "uint256",
                    "internalType": "uint256"
                }
            ],
            "outputs": [],
            "stateMutability": "nonpayable"
        },
        {
            "type": "function",
            "name": "advanceEpoch",
            "inputs": [],
            "outputs": [],
            "stateMutability": "nonpayable"
        },
        {
            "type": "function",
            "name": "balanceOf",
            "inputs": [
                {
                    "name": "",
                    "type": "address",
                    "internalType": "address"
                }
            ],
            "outputs": [
                {
                    "name": "",
                    "type": "uint256",
                    "internalType": "uint256"
                }
            ],
            "stateMutability": "view"
        },
        {
            "type": "function",
            "name": "claim",
            "inputs": [],
            "outputs": [],
            "stateMutability": "nonpayable"
        },
        {
            "type": "function",
            "name": "deposit",
            "inputs": [
                {
                    "name": "amount",
                    "type": "uint256",
                    "internalType": "uint256"
                }
            ],
            "outputs": [],
            "stateMutability": "nonpayable"
        },
        {
            "type": "function",
            "name": "epochDuration",
            "inputs": [],
            "outputs": [
                {
                    "name": "",
                    "type": "uint256",
                    "internalType": "uint256"
                }
            ],
            "stateMutability": "view"
        },
        {
            "type": "function",
            "name": "getRoleAdmin",
            "inputs": [
                {
                    "name": "role",
                    "type": "bytes32",
                    "internalType": "bytes32"
                }
            ],
            "outputs": [
                {
                    "name": "",
                    "type": "bytes32",
                    "internalType": "bytes32"
                }
            ],
            "stateMutability": "view"
        },
        {
            "type": "function",
            "name": "grantRole",
            "inputs": [
                {
                    "name": "role",
                    "type": "bytes32",
                    "internalType": "bytes32"
                },
                {
                    "name": "account",
                    "type": "address",
                    "internalType": "address"
                }
            ],
            "outputs": [],
            "stateMutability": "nonpayable"
        },
        {
            "type": "function",
            "name": "hasRole",
            "inputs": [
                {
                    "name": "role",
                    "type": "bytes32",
                    "internalType": "bytes32"
                },
                {
                    "name": "account",
                    "type": "address",
                    "internalType": "address"
                }
            ],
            "outputs": [
                {
                    "name": "",
                    "type": "bool",
                    "internalType": "bool"
                }
            ],
            "stateMutability": "view"
        },
        {
            "type": "function",
            "name": "lastEpochFlushAt",
            "inputs": [],
            "outputs": [
                {
                    "name": "",
                    "type": "uint256",
                    "internalType": "uint256"
                }
            ],
            "stateMutability": "view"
        },
        {
            "type": "function",
            "name": "nextEpochAt",
            "inputs": [],
            "outputs": [
                {
                    "name": "",
                    "type": "uint256",
                    "internalType": "uint256"
                }
            ],
            "stateMutability": "view"
        },
        {
            "type": "function",
            "name": "notifyReward",
            "inputs": [
                {
                    "name": "amount",
                    "type": "uint256",
                    "internalType": "uint256"
                }
            ],
            "outputs": [],
            "stateMutability": "nonpayable"
        },
        {
            "type": "function",
            "name": "pause",
            "inputs": [],
            "outputs": [],
            "stateMutability": "nonpayable"
        },
        {
            "type": "function",
            "name": "paused",
            "inputs": [],
            "outputs": [
                {
                    "name": "",
                    "type": "bool",
                    "internalType": "bool"
                }
            ],
            "stateMutability": "view"
        },
        {
            "type": "function",
            "name": "pendingPenalties",
            "inputs": [],
            "outputs": [
                {
                    "name": "",
                    "type": "uint256",
                    "internalType": "uint256"
                }
            ],
            "stateMutability": "view"
        },
        {
            "type": "function",
            "name": "pendingRewards",
            "inputs": [],
            "outputs": [
                {
                    "name": "",
                    "type": "uint256",
                    "internalType": "uint256"
                }
            ],
            "stateMutability": "view"
        },
        {
            "type": "function",
            "name": "pendingRewardsOf",
            "inputs": [
                {
                    "name": "account",
                    "type": "address",
                    "internalType": "address"
                }
            ],
            "outputs": [
                {
                    "name": "",
                    "type": "uint256",
                    "internalType": "uint256"
                }
            ],
            "stateMutability": "view"
        },
        {
            "type": "function",
            "name": "renounceRole",
            "inputs": [
                {
                    "name": "role",
                    "type": "bytes32",
                    "internalType": "bytes32"
                },
                {
                    "name": "callerConfirmation",
                    "type": "address",
                    "internalType": "address"
                }
            ],
            "outputs": [],
            "stateMutability": "nonpayable"
        },
        {
            "type": "function",
            "name": "revokeRole",
            "inputs": [
                {
                    "name": "role",
                    "type": "bytes32",
                    "internalType": "bytes32"
                },
                {
                    "name": "account",
                    "type": "address",
                    "internalType": "address"
                }
            ],
            "outputs": [],
            "stateMutability": "nonpayable"
        },
        {
            "type": "function",
            "name": "setStaking",
            "inputs": [
                {
                    "name": "staking_",
                    "type": "address",
                    "internalType": "address"
                }
            ],
            "outputs": [],
            "stateMutability": "nonpayable"
        },
        {
            "type": "function",
            "name": "staking",
            "inputs": [],
            "outputs": [
                {
                    "name": "",
                    "type": "address",
                    "internalType": "address"
                }
            ],
            "stateMutability": "view"
        },
        {
            "type": "function",
            "name": "supportsInterface",
            "inputs": [
                {
                    "name": "interfaceId",
                    "type": "bytes4",
                    "internalType": "bytes4"
                }
            ],
            "outputs": [
                {
                    "name": "",
                    "type": "bool",
                    "internalType": "bool"
                }
            ],
            "stateMutability": "view"
        },
        {
            "type": "function",
            "name": "totalDeposits",
            "inputs": [],
            "outputs": [
                {
                    "name": "",
                    "type": "uint256",
                    "internalType": "uint256"
                }
            ],
            "stateMutability": "view"
        },
        {
            "type": "function",
            "name": "unpause",
            "inputs": [],
            "outputs": [],
            "stateMutability": "nonpayable"
        },
        {
            "type": "function",
            "name": "userPendingRewards",
            "inputs": [
                {
                    "name": "",
                    "type": "address",
                    "internalType": "address"
                }
            ],
            "outputs": [
                {
                    "name": "",
                    "type": "uint256",
                    "internalType": "uint256"
                }
            ],
            "stateMutability": "view"
        },
        {
            "type": "function",
            "name": "userRewardDebt",
            "inputs": [
                {
                    "name": "",
                    "type": "address",
                    "internalType": "address"
                }
            ],
            "outputs": [
                {
                    "name": "",
                    "type": "uint256",
                    "internalType": "uint256"
                }
            ],
            "stateMutability": "view"
        },
        {
            "type": "function",
            "name": "withdraw",
            "inputs": [
                {
                    "name": "amount",
                    "type": "uint256",
                    "internalType": "uint256"
                }
            ],
            "outputs": [],
            "stateMutability": "nonpayable"
        },
        {
            "type": "function",
            "name": "xk613",
            "inputs": [],
            "outputs": [
                {
                    "name": "",
                    "type": "address",
                    "internalType": "contract IERC20"
                }
            ],
            "stateMutability": "view"
        },
        {
            "type": "event",
            "name": "Claimed",
            "inputs": [
                {
                    "name": "account",
                    "type": "address",
                    "indexed": true,
                    "internalType": "address"
                },
                {
                    "name": "amount",
                    "type": "uint256",
                    "indexed": false,
                    "internalType": "uint256"
                }
            ],
            "anonymous": false
        },
        {
            "type": "event",
            "name": "Deposited",
            "inputs": [
                {
                    "name": "account",
                    "type": "address",
                    "indexed": true,
                    "internalType": "address"
                },
                {
                    "name": "amount",
                    "type": "uint256",
                    "indexed": false,
                    "internalType": "uint256"
                }
            ],
            "anonymous": false
        },
        {
            "type": "event",
            "name": "EpochAdvanced",
            "inputs": [
                {
                    "name": "timestamp",
                    "type": "uint256",
                    "indexed": false,
                    "internalType": "uint256"
                }
            ],
            "anonymous": false
        },
        {
            "type": "event",
            "name": "Paused",
            "inputs": [
                {
                    "name": "account",
                    "type": "address",
                    "indexed": false,
                    "internalType": "address"
                }
            ],
            "anonymous": false
        },
        {
            "type": "event",
            "name": "PenaltyAdded",
            "inputs": [
                {
                    "name": "amount",
                    "type": "uint256",
                    "indexed": false,
                    "internalType": "uint256"
                }
            ],
            "anonymous": false
        },
        {
            "type": "event",
            "name": "RewardNotified",
            "inputs": [
                {
                    "name": "amount",
                    "type": "uint256",
                    "indexed": false,
                    "internalType": "uint256"
                }
            ],
            "anonymous": false
        },
        {
            "type": "event",
            "name": "RoleAdminChanged",
            "inputs": [
                {
                    "name": "role",
                    "type": "bytes32",
                    "indexed": true,
                    "internalType": "bytes32"
                },
                {
                    "name": "previousAdminRole",
                    "type": "bytes32",
                    "indexed": true,
                    "internalType": "bytes32"
                },
                {
                    "name": "newAdminRole",
                    "type": "bytes32",
                    "indexed": true,
                    "internalType": "bytes32"
                }
            ],
            "anonymous": false
        },
        {
            "type": "event",
            "name": "RoleGranted",
            "inputs": [
                {
                    "name": "role",
                    "type": "bytes32",
                    "indexed": true,
                    "internalType": "bytes32"
                },
                {
                    "name": "account",
                    "type": "address",
                    "indexed": true,
                    "internalType": "address"
                },
                {
                    "name": "sender",
                    "type": "address",
                    "indexed": true,
                    "internalType": "address"
                }
            ],
            "anonymous": false
        },
        {
            "type": "event",
            "name": "RoleRevoked",
            "inputs": [
                {
                    "name": "role",
                    "type": "bytes32",
                    "indexed": true,
                    "internalType": "bytes32"
                },
                {
                    "name": "account",
                    "type": "address",
                    "indexed": true,
                    "internalType": "address"
                },
                {
                    "name": "sender",
                    "type": "address",
                    "indexed": true,
                    "internalType": "address"
                }
            ],
            "anonymous": false
        },
        {
            "type": "event",
            "name": "StakingUpdated",
            "inputs": [
                {
                    "name": "staking",
                    "type": "address",
                    "indexed": true,
                    "internalType": "address"
                }
            ],
            "anonymous": false
        },
        {
            "type": "event",
            "name": "Unpaused",
            "inputs": [
                {
                    "name": "account",
                    "type": "address",
                    "indexed": false,
                    "internalType": "address"
                }
            ],
            "anonymous": false
        },
        {
            "type": "event",
            "name": "Withdrawn",
            "inputs": [
                {
                    "name": "account",
                    "type": "address",
                    "indexed": true,
                    "internalType": "address"
                },
                {
                    "name": "amount",
                    "type": "uint256",
                    "indexed": false,
                    "internalType": "uint256"
                }
            ],
            "anonymous": false
        },
        {
            "type": "error",
            "name": "AccessControlBadConfirmation",
            "inputs": []
        },
        {
            "type": "error",
            "name": "AccessControlUnauthorizedAccount",
            "inputs": [
                {
                    "name": "account",
                    "type": "address",
                    "internalType": "address"
                },
                {
                    "name": "neededRole",
                    "type": "bytes32",
                    "internalType": "bytes32"
                }
            ]
        },
        {
            "type": "error",
            "name": "EnforcedPause",
            "inputs": []
        },
        {
            "type": "error",
            "name": "ExpectedPause",
            "inputs": []
        },
        {
            "type": "error",
            "name": "InsufficientBalance",
            "inputs": []
        },
        {
            "type": "error",
            "name": "InvalidEpochDuration",
            "inputs": []
        },
        {
            "type": "error",
            "name": "MinimumInitialDeposit",
            "inputs": []
        },
        {
            "type": "error",
            "name": "NoRewards",
            "inputs": []
        },
        {
            "type": "error",
            "name": "ReentrancyGuardReentrantCall",
            "inputs": []
        },
        {
            "type": "error",
            "name": "SafeERC20FailedOperation",
            "inputs": [
                {
                    "name": "token",
                    "type": "address",
                    "internalType": "address"
                }
            ]
        },
        {
            "type": "error",
            "name": "ZeroAddress",
            "inputs": []
        },
        {
            "type": "error",
            "name": "ZeroAmount",
            "inputs": []
        }
    ],
    "bytecode": {
        "object": "0x60c060405234801561000f575f5ffd5b50604051612837380380612837833981810160405281019061003191906103a3565b600161004f61004461018160201b60201c565b6101aa60201b60201c565b5f01819055505f73ffffffffffffffffffffffffffffffffffffffff168273ffffffffffffffffffffffffffffffffffffffff16036100ba576040517fd92e233d00000000000000000000000000000000000000000000000000000000815260040160405180910390fd5b5f81036100f3576040517fd1ebf1e200000000000000000000000000000000000000000000000000000000815260040160405180910390fd5b6101055f5f1b336101b360201b60201c565b506101367f65d7a28e3265b37a6474929f336521b332c1681b933f6cb9f3376673440d862a336101b360201b60201c565b508173ffffffffffffffffffffffffffffffffffffffff1660808173ffffffffffffffffffffffffffffffffffffffff16815250508060a081815250504260028190555050506103e1565b5f7f9b779b17422d0df92223018b32b4d1fa46e071723d6817e2486d003becc55f005f1b905090565b5f819050919050565b5f6101c483836102a860201b60201c565b61029e5760015f5f8581526020019081526020015f205f015f8473ffffffffffffffffffffffffffffffffffffffff1673ffffffffffffffffffffffffffffffffffffffff1681526020019081526020015f205f6101000a81548160ff02191690831515021790555061023b61030b60201b60201c565b73ffffffffffffffffffffffffffffffffffffffff168273ffffffffffffffffffffffffffffffffffffffff16847f2f8788117e7eff1d82e926ec794901d17c78024a50270940304540a733656f0d60405160405180910390a4600190506102a2565b5f90505b92915050565b5f5f5f8481526020019081526020015f205f015f8373ffffffffffffffffffffffffffffffffffffffff1673ffffffffffffffffffffffffffffffffffffffff1681526020019081526020015f205f9054906101000a900460ff16905092915050565b5f33905090565b5f5ffd5b5f73ffffffffffffffffffffffffffffffffffffffff82169050919050565b5f61033f82610316565b9050919050565b61034f81610335565b8114610359575f5ffd5b50565b5f8151905061036a81610346565b92915050565b5f819050919050565b61038281610370565b811461038c575f5ffd5b50565b5f8151905061039d81610379565b92915050565b5f5f604083850312156103b9576103b8610312565b5b5f6103c68582860161035c565b92505060206103d78582860161038f565b9150509250929050565b60805160a05161240b61042c5f395f8181610a6701528181610e69015281816115480152611b2c01525f818161089a01528181610dca0152818161148501526115a5015261240b5ff3fe608060405234801561000f575f5ffd5b5060043610610204575f3560e01c80637d88209711610118578063a217fddf116100ab578063da566df61161007a578063da566df61461057a578063e63ab1e914610598578063eded3fda146105b6578063f8e8289e146105d4578063fc9d7711146105f257610204565b8063a217fddf14610506578063a750e69414610524578063b6b55f2514610542578063d547741f1461055e57610204565b80638deb8fc8116100e75780638deb8fc81461047e5780638ff390991461049c57806391d14854146104b8578063939d6237146104e857610204565b80637d8820971461041c5780638456cb591461043a57806389423406146104445780638aef97ce1461046057610204565b80633f4ba83a1161019b5780634e71d92d1161016a5780634e71d92d1461038a5780634ff0876a146103945780635c975abb146103b257806360993b5b146103d057806370a08231146103ec57610204565b80633f4ba83a14610314578063497a04e01461031e5780634bf6f9e71461033c5780634cf088d91461036c57610204565b80632f2ff15d116101d75780632f2ff15d146102a257806336568abe146102be5780633988bad8146102da5780633cf80e6c1461030a57610204565b806301ffc9a714610208578063248a9ca3146102385780632ad876e0146102685780632e1a7d4d14610286575b5f5ffd5b610222600480360381019061021d9190611fb4565b610622565b60405161022f9190611ff9565b60405180910390f35b610252600480360381019061024d9190612045565b61069b565b60405161025f919061207f565b60405180910390f35b6102706106b7565b60405161027d91906120b0565b60405180910390f35b6102a0600480360381019061029b91906120f3565b6106c0565b005b6102bc60048036038101906102b79190612178565b610937565b005b6102d860048036038101906102d39190612178565b610959565b005b6102f460048036038101906102ef91906121b6565b6109d4565b60405161030191906120b0565b60405180910390f35b610312610c46565b005b61031c610c73565b005b610326610ca8565b60405161033391906120b0565b60405180910390f35b610356600480360381019061035191906121b6565b610cb4565b60405161036391906120b0565b60405180910390f35b610374610cc9565b60405161038191906121f0565b60405180910390f35b610392610cee565b005b61039c610e67565b6040516103a991906120b0565b60405180910390f35b6103ba610e8b565b6040516103c79190611ff9565b60405180910390f35b6103ea60048036038101906103e591906120f3565b610ea0565b005b610406600480360381019061040191906121b6565b610fb5565b60405161041391906120b0565b60405180910390f35b610424610fca565b60405161043191906120b0565b60405180910390f35b610442610fd0565b005b61045e600480360381019061045991906120f3565b611005565b005b6104686110a3565b60405161047591906120b0565b60405180910390f35b6104866110a9565b60405161049391906120b0565b60405180910390f35b6104b660048036038101906104b191906121b6565b6110af565b005b6104d260048036038101906104cd9190612178565b611242565b6040516104df9190611ff9565b60405180910390f35b6104f06112a5565b6040516104fd91906120b0565b60405180910390f35b61050e6112ab565b60405161051b919061207f565b60405180910390f35b61052c6112b1565b604051610539919061207f565b60405180910390f35b61055c600480360381019061055791906120f3565b6112d5565b005b61057860048036038101906105739190612178565b611523565b005b610582611545565b60405161058f91906120b0565b60405180910390f35b6105a0611579565b6040516105ad919061207f565b60405180910390f35b6105be61159d565b6040516105cb91906120b0565b60405180910390f35b6105dc6115a3565b6040516105e99190612264565b60405180910390f35b61060c600480360381019061060791906121b6565b6115c7565b60405161061991906120b0565b60405180910390f35b5f7f7965db0b000000000000000000000000000000000000000000000000000000007bffffffffffffffffffffffffffffffffffffffffffffffffffffffff1916827bffffffffffffffffffffffffffffffffffffffffffffffffffffffff191614806106945750610693826115dc565b5b9050919050565b5f5f5f8381526020019081526020015f20600101549050919050565b64e8d4a5100081565b6106c8611645565b6106d0611667565b5f8103610709576040517f1f2a200500000000000000000000000000000000000000000000000000000000815260040160405180910390fd5b8060075f3373ffffffffffffffffffffffffffffffffffffffff1673ffffffffffffffffffffffffffffffffffffffff1681526020019081526020015f20541015610780576040517ff4d678b800000000000000000000000000000000000000000000000000000000815260040160405180910390fd5b610789336116a8565b8060075f3373ffffffffffffffffffffffffffffffffffffffff1673ffffffffffffffffffffffffffffffffffffffff1681526020019081526020015f205f8282546107d591906122aa565b925050819055508060065f8282546107ed91906122aa565b92505081905550670de0b6b3a764000060035460075f3373ffffffffffffffffffffffffffffffffffffffff1673ffffffffffffffffffffffffffffffffffffffff1681526020019081526020015f205461084891906122dd565b610852919061234b565b60085f3373ffffffffffffffffffffffffffffffffffffffff1673ffffffffffffffffffffffffffffffffffffffff1681526020019081526020015f20819055506108de33827f000000000000000000000000000000000000000000000000000000000000000073ffffffffffffffffffffffffffffffffffffffff1661183d9092919063ffffffff16565b3373ffffffffffffffffffffffffffffffffffffffff167f7084f5476618d8e60b11ef0d7d3f06914655adb8793e28ff7f018d4c76d505d58260405161092491906120b0565b60405180910390a2610934611890565b50565b6109408261069b565b610949816118aa565b61095383836118be565b50505050565b6109616119a7565b73ffffffffffffffffffffffffffffffffffffffff168173ffffffffffffffffffffffffffffffffffffffff16146109c5576040517f6697b23200000000000000000000000000000000000000000000000000000000815260040160405180910390fd5b6109cf82826119ae565b505050565b5f5f60065403610a235760095f8373ffffffffffffffffffffffffffffffffffffffff1673ffffffffffffffffffffffffffffffffffffffff1681526020019081526020015f20549050610c41565b5f60035490505f6004541115610a6457600654670de0b6b3a7640000600454610a4c91906122dd565b610a56919061234b565b81610a61919061237b565b90505b5f7f0000000000000000000000000000000000000000000000000000000000000000600254610a93919061237b565b42101590505f670de0b6b3a7640000600554101580610abc57505f600554118015610abb5750815b5b90508015610af557600654670de0b6b3a7640000600554610add91906122dd565b610ae7919061234b565b83610af2919061237b565b92505b5f60075f8773ffffffffffffffffffffffffffffffffffffffff1673ffffffffffffffffffffffffffffffffffffffff1681526020019081526020015f205490505f670de0b6b3a76400008583610b4c91906122dd565b610b56919061234b565b90505f60085f8973ffffffffffffffffffffffffffffffffffffffff1673ffffffffffffffffffffffffffffffffffffffff1681526020019081526020015f20548211610ba3575f610bed565b60085f8973ffffffffffffffffffffffffffffffffffffffff1673ffffffffffffffffffffffffffffffffffffffff1681526020019081526020015f205482610bec91906122aa565b5b90508060095f8a73ffffffffffffffffffffffffffffffffffffffff1673ffffffffffffffffffffffffffffffffffffffff1681526020019081526020015f2054610c38919061237b565b96505050505050505b919050565b610c4e611645565b610c56611667565b5f6006541115610c6957610c68611a97565b5b610c71611890565b565b7f65d7a28e3265b37a6474929f336521b332c1681b933f6cb9f3376673440d862a610c9d816118aa565b610ca5611c51565b50565b670de0b6b3a764000081565b6008602052805f5260405f205f915090505481565b600a5f9054906101000a900473ffffffffffffffffffffffffffffffffffffffff1681565b610cf6611645565b610cfe611667565b610d07336116a8565b5f60095f3373ffffffffffffffffffffffffffffffffffffffff1673ffffffffffffffffffffffffffffffffffffffff1681526020019081526020015f205490505f8103610d81576040517f3fb087f400000000000000000000000000000000000000000000000000000000815260040160405180910390fd5b5f60095f3373ffffffffffffffffffffffffffffffffffffffff1673ffffffffffffffffffffffffffffffffffffffff1681526020019081526020015f2081905550610e0e33827f000000000000000000000000000000000000000000000000000000000000000073ffffffffffffffffffffffffffffffffffffffff1661183d9092919063ffffffff16565b3373ffffffffffffffffffffffffffffffffffffffff167fd8138f8a3f377c5259ca548e70e4c2de94f129f5a11036a15b69513cba2b426a82604051610e5491906120b0565b60405180910390a250610e65611890565b565b7f000000000000000000000000000000000000000000000000000000000000000081565b5f60015f9054906101000a900460ff16905090565b610ea8611645565b7f5cdba25167d99b7ec892ee2622f05561f779da5483692d63a6740a77a2c8d056610ed2816118aa565b610eda611667565b5f8203610f13576040517f1f2a200500000000000000000000000000000000000000000000000000000000815260040160405180910390fd5b5f60065403610f39578160045f828254610f2d919061237b565b92505081905550610fa9565b600654670de0b6b3a764000083610f5091906122dd565b610f5a919061234b565b60035f828254610f6a919061237b565b925050819055507ff9a5da3a173eca8cd77c02ece3ff1467b8aa461ed3822201817f2d72fbc5428382604051610fa091906120b0565b60405180910390a15b50610fb2611890565b50565b6007602052805f5260405f205f915090505481565b60065481565b7f65d7a28e3265b37a6474929f336521b332c1681b933f6cb9f3376673440d862a610ffa816118aa565b611002611cb2565b50565b61100d611645565b7f5cdba25167d99b7ec892ee2622f05561f779da5483692d63a6740a77a2c8d056611037816118aa565b61103f611667565b5f820315611097578160055f828254611058919061237b565b925050819055507f9db9090d4cd2fd574fb4903fcd18a7a99e1a8f3bdcf7ee81e24b8dfd209267b68260405161108e91906120b0565b60405180910390a15b506110a0611890565b50565b60025481565b60055481565b5f5f1b6110bb816118aa565b5f73ffffffffffffffffffffffffffffffffffffffff16600a5f9054906101000a900473ffffffffffffffffffffffffffffffffffffffff1673ffffffffffffffffffffffffffffffffffffffff161461115c5761115a7f5cdba25167d99b7ec892ee2622f05561f779da5483692d63a6740a77a2c8d056600a5f9054906101000a900473ffffffffffffffffffffffffffffffffffffffff166119ae565b505b81600a5f6101000a81548173ffffffffffffffffffffffffffffffffffffffff021916908373ffffffffffffffffffffffffffffffffffffffff1602179055505f73ffffffffffffffffffffffffffffffffffffffff168273ffffffffffffffffffffffffffffffffffffffff16146111fb576111f97f5cdba25167d99b7ec892ee2622f05561f779da5483692d63a6740a77a2c8d056836118be565b505b8173ffffffffffffffffffffffffffffffffffffffff167fe189a719dae2bf18df1013cfa028ecce01f9fafdbd456a862fa18e6d0143e3c260405160405180910390a25050565b5f5f5f8481526020019081526020015f205f015f8373ffffffffffffffffffffffffffffffffffffffff1673ffffffffffffffffffffffffffffffffffffffff1681526020019081526020015f205f9054906101000a900460ff16905092915050565b60035481565b5f5f1b81565b7f5cdba25167d99b7ec892ee2622f05561f779da5483692d63a6740a77a2c8d05681565b6112dd611645565b6112e5611667565b5f810361131e576040517f1f2a200500000000000000000000000000000000000000000000000000000000815260040160405180910390fd5b5f600654148015611333575064e8d4a5100081105b1561136a576040517f306cc97600000000000000000000000000000000000000000000000000000000815260040160405180910390fd5b611373336116a8565b8060075f3373ffffffffffffffffffffffffffffffffffffffff1673ffffffffffffffffffffffffffffffffffffffff1681526020019081526020015f205f8282546113bf919061237b565b925050819055508060065f8282546113d7919061237b565b92505081905550670de0b6b3a764000060035460075f3373ffffffffffffffffffffffffffffffffffffffff1673ffffffffffffffffffffffffffffffffffffffff1681526020019081526020015f205461143291906122dd565b61143c919061234b565b60085f3373ffffffffffffffffffffffffffffffffffffffff1673ffffffffffffffffffffffffffffffffffffffff1681526020019081526020015f20819055506114ca3330837f000000000000000000000000000000000000000000000000000000000000000073ffffffffffffffffffffffffffffffffffffffff16611d13909392919063ffffffff16565b3373ffffffffffffffffffffffffffffffffffffffff167f2da466a7b24304f47e87fa2e1e5a81b9831ce54fec19055ce277ca2f39ba42c48260405161151091906120b0565b60405180910390a2611520611890565b50565b61152c8261069b565b611535816118aa565b61153f83836119ae565b50505050565b5f7f0000000000000000000000000000000000000000000000000000000000000000600254611574919061237b565b905090565b7f65d7a28e3265b37a6474929f336521b332c1681b933f6cb9f3376673440d862a81565b60045481565b7f000000000000000000000000000000000000000000000000000000000000000081565b6009602052805f5260405f205f915090505481565b5f7f01ffc9a7000000000000000000000000000000000000000000000000000000007bffffffffffffffffffffffffffffffffffffffffffffffffffffffff1916827bffffffffffffffffffffffffffffffffffffffffffffffffffffffff1916149050919050565b61164d611d68565b600261165f61165a611da9565b611dd2565b5f0181905550565b61166f610e8b565b156116a6576040517fd93c066500000000000000000000000000000000000000000000000000000000815260040160405180910390fd5b565b6116b0611a97565b5f60075f8373ffffffffffffffffffffffffffffffffffffffff1673ffffffffffffffffffffffffffffffffffffffff1681526020019081526020015f205490505f670de0b6b3a76400006003548361170991906122dd565b611713919061234b565b905060085f8473ffffffffffffffffffffffffffffffffffffffff1673ffffffffffffffffffffffffffffffffffffffff1681526020019081526020015f20548111156117f65760085f8473ffffffffffffffffffffffffffffffffffffffff1673ffffffffffffffffffffffffffffffffffffffff1681526020019081526020015f2054816117a391906122aa565b60095f8573ffffffffffffffffffffffffffffffffffffffff1673ffffffffffffffffffffffffffffffffffffffff1681526020019081526020015f205f8282546117ee919061237b565b925050819055505b8060085f8573ffffffffffffffffffffffffffffffffffffffff1673ffffffffffffffffffffffffffffffffffffffff1681526020019081526020015f2081905550505050565b61184a8383836001611ddb565b61188b57826040517f5274afe700000000000000000000000000000000000000000000000000000000815260040161188291906121f0565b60405180910390fd5b505050565b60016118a261189d611da9565b611dd2565b5f0181905550565b6118bb816118b66119a7565b611e3d565b50565b5f6118c98383611242565b61199d5760015f5f8581526020019081526020015f205f015f8473ffffffffffffffffffffffffffffffffffffffff1673ffffffffffffffffffffffffffffffffffffffff1681526020019081526020015f205f6101000a81548160ff02191690831515021790555061193a6119a7565b73ffffffffffffffffffffffffffffffffffffffff168273ffffffffffffffffffffffffffffffffffffffff16847f2f8788117e7eff1d82e926ec794901d17c78024a50270940304540a733656f0d60405160405180910390a4600190506119a1565b5f90505b92915050565b5f33905090565b5f6119b98383611242565b15611a8d575f5f5f8581526020019081526020015f205f015f8473ffffffffffffffffffffffffffffffffffffffff1673ffffffffffffffffffffffffffffffffffffffff1681526020019081526020015f205f6101000a81548160ff021916908315150217905550611a2a6119a7565b73ffffffffffffffffffffffffffffffffffffffff168273ffffffffffffffffffffffffffffffffffffffff16847ff6391f5c32d9c69d2a47ea670b442974b53935d1edc7fd64eb21e047a839171b60405160405180910390a460019050611a91565b5f90505b92915050565b5f6006540315611c4f575f6004541115611b29575f60045490505f600481905550600654670de0b6b3a764000082611acf91906122dd565b611ad9919061234b565b60035f828254611ae9919061237b565b925050819055507ff9a5da3a173eca8cd77c02ece3ff1467b8aa461ed3822201817f2d72fbc5428381604051611b1f91906120b0565b60405180910390a1505b5f7f0000000000000000000000000000000000000000000000000000000000000000600254611b58919061237b565b42101590505f670de0b6b3a7640000600554101580611b8157505f600554118015611b805750815b5b90508015611c4c575f60055490505f600581905550600654670de0b6b3a764000082611bad91906122dd565b611bb7919061234b565b60035f828254611bc7919061237b565b925050819055507ff9a5da3a173eca8cd77c02ece3ff1467b8aa461ed3822201817f2d72fbc5428381604051611bfd91906120b0565b60405180910390a18215611c4a57426002819055507fb7f0e37f8e78f28f1f21b98f426d307e949c22f2997ca4b562ee90c3e5b30b3042604051611c4191906120b0565b60405180910390a15b505b50505b565b611c59611e8e565b5f60015f6101000a81548160ff0219169083151502179055507f5db9ee0a495bf2e6ff9c91a7834c1ba4fdd244a5e8aa4e537bd38aeae4b073aa611c9b6119a7565b604051611ca891906121f0565b60405180910390a1565b611cba611667565b6001805f6101000a81548160ff0219169083151502179055507f62e78cea01bee320cd4e420270b5ea74000d11b0c9f74754ebdbfc544b05a258611cfc6119a7565b604051611d0991906121f0565b60405180910390a1565b611d21848484846001611ece565b611d6257836040517f5274afe7000000000000000000000000000000000000000000000000000000008152600401611d5991906121f0565b60405180910390fd5b50505050565b611d70611f3f565b15611da7576040517f3ee5aeb500000000000000000000000000000000000000000000000000000000815260040160405180910390fd5b565b5f7f9b779b17422d0df92223018b32b4d1fa46e071723d6817e2486d003becc55f005f1b905090565b5f819050919050565b5f5f63a9059cbb60e01b9050604051815f525f1960601c86166004528460245260205f60445f5f8b5af1925060015f51148316611e2f578383151615611e23573d5f823e3d81fd5b5f873b113d1516831692505b806040525050949350505050565b611e478282611242565b611e8a5780826040517fe2517d3f000000000000000000000000000000000000000000000000000000008152600401611e819291906123ae565b60405180910390fd5b5050565b611e96610e8b565b611ecc576040517f8dfc202b00000000000000000000000000000000000000000000000000000000815260040160405180910390fd5b565b5f5f6323b872dd60e01b9050604051815f525f1960601c87166004525f1960601c86166024528460445260205f60645f5f8c5af1925060015f51148316611f2c578383151615611f20573d5f823e3d81fd5b5f883b113d1516831692505b806040525f606052505095945050505050565b5f6002611f52611f4d611da9565b611dd2565b5f015414905090565b5f5ffd5b5f7fffffffff0000000000000000000000000000000000000000000000000000000082169050919050565b611f9381611f5f565b8114611f9d575f5ffd5b50565b5f81359050611fae81611f8a565b92915050565b5f60208284031215611fc957611fc8611f5b565b5b5f611fd684828501611fa0565b91505092915050565b5f8115159050919050565b611ff381611fdf565b82525050565b5f60208201905061200c5f830184611fea565b92915050565b5f819050919050565b61202481612012565b811461202e575f5ffd5b50565b5f8135905061203f8161201b565b92915050565b5f6020828403121561205a57612059611f5b565b5b5f61206784828501612031565b91505092915050565b61207981612012565b82525050565b5f6020820190506120925f830184612070565b92915050565b5f819050919050565b6120aa81612098565b82525050565b5f6020820190506120c35f8301846120a1565b92915050565b6120d281612098565b81146120dc575f5ffd5b50565b5f813590506120ed816120c9565b92915050565b5f6020828403121561210857612107611f5b565b5b5f612115848285016120df565b91505092915050565b5f73ffffffffffffffffffffffffffffffffffffffff82169050919050565b5f6121478261211e565b9050919050565b6121578161213d565b8114612161575f5ffd5b50565b5f813590506121728161214e565b92915050565b5f5f6040838503121561218e5761218d611f5b565b5b5f61219b85828601612031565b92505060206121ac85828601612164565b9150509250929050565b5f602082840312156121cb576121ca611f5b565b5b5f6121d884828501612164565b91505092915050565b6121ea8161213d565b82525050565b5f6020820190506122035f8301846121e1565b92915050565b5f819050919050565b5f61222c6122276122228461211e565b612209565b61211e565b9050919050565b5f61223d82612212565b9050919050565b5f61224e82612233565b9050919050565b61225e81612244565b82525050565b5f6020820190506122775f830184612255565b92915050565b7f4e487b71000000000000000000000000000000000000000000000000000000005f52601160045260245ffd5b5f6122b482612098565b91506122bf83612098565b92508282039050818111156122d7576122d661227d565b5b92915050565b5f6122e782612098565b91506122f283612098565b925082820261230081612098565b915082820484148315176123175761231661227d565b5b5092915050565b7f4e487b71000000000000000000000000000000000000000000000000000000005f52601260045260245ffd5b5f61235582612098565b915061236083612098565b9250826123705761236f61231e565b5b828204905092915050565b5f61238582612098565b915061239083612098565b92508282019050808211156123a8576123a761227d565b5b92915050565b5f6040820190506123c15f8301856121e1565b6123ce6020830184612070565b939250505056fea264697066735822122058ae24d7bdc784a901116396da82bea9d42b805a999544a21c56ab9889a2b4bc64736f6c63430008210033",
        "linkReferences": {}
    },
    "methodIdentifiers": {
        "DEFAULT_ADMIN_ROLE()": "a217fddf",
        "MIN_INITIAL_DEPOSIT()": "2ad876e0",
        "MIN_PENALTY_FLUSH()": "497a04e0",
        "PAUSER_ROLE()": "e63ab1e9",
        "REWARDS_NOTIFIER_ROLE()": "a750e694",
        "accRewardPerShare()": "939d6237",
        "addPendingPenalty(uint256)": "89423406",
        "advanceEpoch()": "3cf80e6c",
        "balanceOf(address)": "70a08231",
        "claim()": "4e71d92d",
        "deposit(uint256)": "b6b55f25",
        "epochDuration()": "4ff0876a",
        "getRoleAdmin(bytes32)": "248a9ca3",
        "grantRole(bytes32,address)": "2f2ff15d",
        "hasRole(bytes32,address)": "91d14854",
        "lastEpochFlushAt()": "8aef97ce",
        "nextEpochAt()": "da566df6",
        "notifyReward(uint256)": "60993b5b",
        "pause()": "8456cb59",
        "paused()": "5c975abb",
        "pendingPenalties()": "8deb8fc8",
        "pendingRewards()": "eded3fda",
        "pendingRewardsOf(address)": "3988bad8",
        "renounceRole(bytes32,address)": "36568abe",
        "revokeRole(bytes32,address)": "d547741f",
        "setStaking(address)": "8ff39099",
        "staking()": "4cf088d9",
        "supportsInterface(bytes4)": "01ffc9a7",
        "totalDeposits()": "7d882097",
        "unpause()": "3f4ba83a",
        "userPendingRewards(address)": "fc9d7711",
        "userRewardDebt(address)": "4bf6f9e7",
        "withdraw(uint256)": "2e1a7d4d",
        "xk613()": "f8e8289e"
    },
    "id": 38
}