{
    "abi": [
        {
            "type": "constructor",
            "inputs": [
                {
                    "name": "k613Token",
                    "type": "address",
                    "internalType": "address"
                },
                {
                    "name": "xk613Token",
                    "type": "address",
                    "internalType": "address"
                },
                {
                    "name": "lockDuration_",
                    "type": "uint256",
                    "internalType": "uint256"
                },
                {
                    "name": "instantExitPenaltyBps_",
                    "type": "uint256",
                    "internalType": "uint256"
                }
            ],
            "stateMutability": "nonpayable"
        },
        {
            "type": "function",
            "name": "DEFAULT_ADMIN_ROLE",
            "inputs": [],
            "outputs": [
                {
                    "name": "",
                    "type": "bytes32",
                    "internalType": "bytes32"
                }
            ],
            "stateMutability": "view"
        },
        {
            "type": "function",
            "name": "MAX_EXIT_REQUESTS",
            "inputs": [],
            "outputs": [
                {
                    "name": "",
                    "type": "uint256",
                    "internalType": "uint256"
                }
            ],
            "stateMutability": "view"
        },
        {
            "type": "function",
            "name": "PAUSER_ROLE",
            "inputs": [],
            "outputs": [
                {
                    "name": "",
                    "type": "bytes32",
                    "internalType": "bytes32"
                }
            ],
            "stateMutability": "view"
        },
        {
            "type": "function",
            "name": "cancelExit",
            "inputs": [
                {
                    "name": "index",
                    "type": "uint256",
                    "internalType": "uint256"
                }
            ],
            "outputs": [],
            "stateMutability": "nonpayable"
        },
        {
            "type": "function",
            "name": "deposits",
            "inputs": [
                {
                    "name": "user",
                    "type": "address",
                    "internalType": "address"
                }
            ],
            "outputs": [
                {
                    "name": "amount",
                    "type": "uint256",
                    "internalType": "uint256"
                },
                {
                    "name": "exitQueue",
                    "type": "tuple[]",
                    "internalType": "struct Staking.ExitRequest[]",
                    "components": [
                        {
                            "name": "amount",
                            "type": "uint256",
                            "internalType": "uint256"
                        },
                        {
                            "name": "exitInitiatedAt",
                            "type": "uint256",
                            "internalType": "uint256"
                        }
                    ]
                }
            ],
            "stateMutability": "view"
        },
        {
            "type": "function",
            "name": "exit",
            "inputs": [
                {
                    "name": "index",
                    "type": "uint256",
                    "internalType": "uint256"
                }
            ],
            "outputs": [],
            "stateMutability": "nonpayable"
        },
        {
            "type": "function",
            "name": "exitQueueLength",
            "inputs": [
                {
                    "name": "user",
                    "type": "address",
                    "internalType": "address"
                }
            ],
            "outputs": [
                {
                    "name": "",
                    "type": "uint256",
                    "internalType": "uint256"
                }
            ],
            "stateMutability": "view"
        },
        {
            "type": "function",
            "name": "exitRequestAt",
            "inputs": [
                {
                    "name": "user",
                    "type": "address",
                    "internalType": "address"
                },
                {
                    "name": "index",
                    "type": "uint256",
                    "internalType": "uint256"
                }
            ],
            "outputs": [
                {
                    "name": "amount",
                    "type": "uint256",
                    "internalType": "uint256"
                },
                {
                    "name": "exitInitiatedAt",
                    "type": "uint256",
                    "internalType": "uint256"
                }
            ],
            "stateMutability": "view"
        },
        {
            "type": "function",
            "name": "getRoleAdmin",
            "inputs": [
                {
                    "name": "role",
                    "type": "bytes32",
                    "internalType": "bytes32"
                }
            ],
            "outputs": [
                {
                    "name": "",
                    "type": "bytes32",
                    "internalType": "bytes32"
                }
            ],
            "stateMutability": "view"
        },
        {
            "type": "function",
            "name": "grantRole",
            "inputs": [
                {
                    "name": "role",
                    "type": "bytes32",
                    "internalType": "bytes32"
                },
                {
                    "name": "account",
                    "type": "address",
                    "internalType": "address"
                }
            ],
            "outputs": [],
            "stateMutability": "nonpayable"
        },
        {
            "type": "function",
            "name": "hasRole",
            "inputs": [
                {
                    "name": "role",
                    "type": "bytes32",
                    "internalType": "bytes32"
                },
                {
                    "name": "account",
                    "type": "address",
                    "internalType": "address"
                }
            ],
            "outputs": [
                {
                    "name": "",
                    "type": "bool",
                    "internalType": "bool"
                }
            ],
            "stateMutability": "view"
        },
        {
            "type": "function",
            "name": "initiateExit",
            "inputs": [
                {
                    "name": "amount",
                    "type": "uint256",
                    "internalType": "uint256"
                }
            ],
            "outputs": [],
            "stateMutability": "nonpayable"
        },
        {
            "type": "function",
            "name": "instantExit",
            "inputs": [
                {
                    "name": "index",
                    "type": "uint256",
                    "internalType": "uint256"
                }
            ],
            "outputs": [],
            "stateMutability": "nonpayable"
        },
        {
            "type": "function",
            "name": "instantExitPenaltyBps",
            "inputs": [],
            "outputs": [
                {
                    "name": "",
                    "type": "uint256",
                    "internalType": "uint256"
                }
            ],
            "stateMutability": "view"
        },
        {
            "type": "function",
            "name": "k613",
            "inputs": [],
            "outputs": [
                {
                    "name": "",
                    "type": "address",
                    "internalType": "contract IERC20"
                }
            ],
            "stateMutability": "view"
        },
        {
            "type": "function",
            "name": "lockDuration",
            "inputs": [],
            "outputs": [
                {
                    "name": "",
                    "type": "uint256",
                    "internalType": "uint256"
                }
            ],
            "stateMutability": "view"
        },
        {
            "type": "function",
            "name": "pause",
            "inputs": [],
            "outputs": [],
            "stateMutability": "nonpayable"
        },
        {
            "type": "function",
            "name": "paused",
            "inputs": [],
            "outputs": [
                {
                    "name": "",
                    "type": "bool",
                    "internalType": "bool"
                }
            ],
            "stateMutability": "view"
        },
        {
            "type": "function",
            "name": "renounceRole",
            "inputs": [
                {
                    "name": "role",
                    "type": "bytes32",
                    "internalType": "bytes32"
                },
                {
                    "name": "callerConfirmation",
                    "type": "address",
                    "internalType": "address"
                }
            ],
            "outputs": [],
            "stateMutability": "nonpayable"
        },
        {
            "type": "function",
            "name": "revokeRole",
            "inputs": [
                {
                    "name": "role",
                    "type": "bytes32",
                    "internalType": "bytes32"
                },
                {
                    "name": "account",
                    "type": "address",
                    "internalType": "address"
                }
            ],
            "outputs": [],
            "stateMutability": "nonpayable"
        },
        {
            "type": "function",
            "name": "rewardsDistributor",
            "inputs": [],
            "outputs": [
                {
                    "name": "",
                    "type": "address",
                    "internalType": "contract RewardsDistributor"
                }
            ],
            "stateMutability": "view"
        },
        {
            "type": "function",
            "name": "setRewardsDistributor",
            "inputs": [
                {
                    "name": "distributor",
                    "type": "address",
                    "internalType": "address"
                }
            ],
            "outputs": [],
            "stateMutability": "nonpayable"
        },
        {
            "type": "function",
            "name": "stake",
            "inputs": [
                {
                    "name": "amount",
                    "type": "uint256",
                    "internalType": "uint256"
                }
            ],
            "outputs": [],
            "stateMutability": "nonpayable"
        },
        {
            "type": "function",
            "name": "supportsInterface",
            "inputs": [
                {
                    "name": "interfaceId",
                    "type": "bytes4",
                    "internalType": "bytes4"
                }
            ],
            "outputs": [
                {
                    "name": "",
                    "type": "bool",
                    "internalType": "bool"
                }
            ],
            "stateMutability": "view"
        },
        {
            "type": "function",
            "name": "unpause",
            "inputs": [],
            "outputs": [],
            "stateMutability": "nonpayable"
        },
        {
            "type": "function",
            "name": "withdrawPenalties",
            "inputs": [
                {
                    "name": "to",
                    "type": "address",
                    "internalType": "address"
                }
            ],
            "outputs": [],
            "stateMutability": "nonpayable"
        },
        {
            "type": "function",
            "name": "withdrawablePenalties",
            "inputs": [],
            "outputs": [
                {
                    "name": "",
                    "type": "uint256",
                    "internalType": "uint256"
                }
            ],
            "stateMutability": "view"
        },
        {
            "type": "function",
            "name": "xk613",
            "inputs": [],
            "outputs": [
                {
                    "name": "",
                    "type": "address",
                    "internalType": "contract xK613"
                }
            ],
            "stateMutability": "view"
        },
        {
            "type": "event",
            "name": "ExitCancelled",
            "inputs": [
                {
                    "name": "account",
                    "type": "address",
                    "indexed": true,
                    "internalType": "address"
                },
                {
                    "name": "index",
                    "type": "uint256",
                    "indexed": false,
                    "internalType": "uint256"
                }
            ],
            "anonymous": false
        },
        {
            "type": "event",
            "name": "ExitInitiated",
            "inputs": [
                {
                    "name": "account",
                    "type": "address",
                    "indexed": true,
                    "internalType": "address"
                },
                {
                    "name": "index",
                    "type": "uint256",
                    "indexed": false,
                    "internalType": "uint256"
                },
                {
                    "name": "amount",
                    "type": "uint256",
                    "indexed": false,
                    "internalType": "uint256"
                },
                {
                    "name": "exitInitiatedAt",
                    "type": "uint256",
                    "indexed": false,
                    "internalType": "uint256"
                }
            ],
            "anonymous": false
        },
        {
            "type": "event",
            "name": "Exited",
            "inputs": [
                {
                    "name": "account",
                    "type": "address",
                    "indexed": true,
                    "internalType": "address"
                },
                {
                    "name": "index",
                    "type": "uint256",
                    "indexed": false,
                    "internalType": "uint256"
                },
                {
                    "name": "amount",
                    "type": "uint256",
                    "indexed": false,
                    "internalType": "uint256"
                }
            ],
            "anonymous": false
        },
        {
            "type": "event",
            "name": "InstantExit",
            "inputs": [
                {
                    "name": "account",
                    "type": "address",
                    "indexed": true,
                    "internalType": "address"
                },
                {
                    "name": "index",
                    "type": "uint256",
                    "indexed": false,
                    "internalType": "uint256"
                },
                {
                    "name": "amount",
                    "type": "uint256",
                    "indexed": false,
                    "internalType": "uint256"
                },
                {
                    "name": "penalty",
                    "type": "uint256",
                    "indexed": false,
                    "internalType": "uint256"
                }
            ],
            "anonymous": false
        },
        {
            "type": "event",
            "name": "Paused",
            "inputs": [
                {
                    "name": "account",
                    "type": "address",
                    "indexed": false,
                    "internalType": "address"
                }
            ],
            "anonymous": false
        },
        {
            "type": "event",
            "name": "PenaltiesWithdrawn",
            "inputs": [
                {
                    "name": "to",
                    "type": "address",
                    "indexed": true,
                    "internalType": "address"
                },
                {
                    "name": "amount",
                    "type": "uint256",
                    "indexed": false,
                    "internalType": "uint256"
                }
            ],
            "anonymous": false
        },
        {
            "type": "event",
            "name": "RewardsDistributorUpdated",
            "inputs": [
                {
                    "name": "distributor",
                    "type": "address",
                    "indexed": true,
                    "internalType": "address"
                }
            ],
            "anonymous": false
        },
        {
            "type": "event",
            "name": "RoleAdminChanged",
            "inputs": [
                {
                    "name": "role",
                    "type": "bytes32",
                    "indexed": true,
                    "internalType": "bytes32"
                },
                {
                    "name": "previousAdminRole",
                    "type": "bytes32",
                    "indexed": true,
                    "internalType": "bytes32"
                },
                {
                    "name": "newAdminRole",
                    "type": "bytes32",
                    "indexed": true,
                    "internalType": "bytes32"
                }
            ],
            "anonymous": false
        },
        {
            "type": "event",
            "name": "RoleGranted",
            "inputs": [
                {
                    "name": "role",
                    "type": "bytes32",
                    "indexed": true,
                    "internalType": "bytes32"
                },
                {
                    "name": "account",
                    "type": "address",
                    "indexed": true,
                    "internalType": "address"
                },
                {
                    "name": "sender",
                    "type": "address",
                    "indexed": true,
                    "internalType": "address"
                }
            ],
            "anonymous": false
        },
        {
            "type": "event",
            "name": "RoleRevoked",
            "inputs": [
                {
                    "name": "role",
                    "type": "bytes32",
                    "indexed": true,
                    "internalType": "bytes32"
                },
                {
                    "name": "account",
                    "type": "address",
                    "indexed": true,
                    "internalType": "address"
                },
                {
                    "name": "sender",
                    "type": "address",
                    "indexed": true,
                    "internalType": "address"
                }
            ],
            "anonymous": false
        },
        {
            "type": "event",
            "name": "Staked",
            "inputs": [
                {
                    "name": "account",
                    "type": "address",
                    "indexed": true,
                    "internalType": "address"
                },
                {
                    "name": "amount",
                    "type": "uint256",
                    "indexed": false,
                    "internalType": "uint256"
                }
            ],
            "anonymous": false
        },
        {
            "type": "event",
            "name": "Unpaused",
            "inputs": [
                {
                    "name": "account",
                    "type": "address",
                    "indexed": false,
                    "internalType": "address"
                }
            ],
            "anonymous": false
        },
        {
            "type": "error",
            "name": "AccessControlBadConfirmation",
            "inputs": []
        },
        {
            "type": "error",
            "name": "AccessControlUnauthorizedAccount",
            "inputs": [
                {
                    "name": "account",
                    "type": "address",
                    "internalType": "address"
                },
                {
                    "name": "neededRole",
                    "type": "bytes32",
                    "internalType": "bytes32"
                }
            ]
        },
        {
            "type": "error",
            "name": "AmountExceedsStake",
            "inputs": []
        },
        {
            "type": "error",
            "name": "EnforcedPause",
            "inputs": []
        },
        {
            "type": "error",
            "name": "ExitQueueFull",
            "inputs": []
        },
        {
            "type": "error",
            "name": "ExpectedPause",
            "inputs": []
        },
        {
            "type": "error",
            "name": "InsufficientxK613",
            "inputs": []
        },
        {
            "type": "error",
            "name": "InvalidBps",
            "inputs": []
        },
        {
            "type": "error",
            "name": "InvalidExitIndex",
            "inputs": []
        },
        {
            "type": "error",
            "name": "Locked",
            "inputs": []
        },
        {
            "type": "error",
            "name": "NothingToInitiate",
            "inputs": []
        },
        {
            "type": "error",
            "name": "ReentrancyGuardReentrantCall",
            "inputs": []
        },
        {
            "type": "error",
            "name": "RewardsDistributorNotSet",
            "inputs": []
        },
        {
            "type": "error",
            "name": "SafeERC20FailedOperation",
            "inputs": [
                {
                    "name": "token",
                    "type": "address",
                    "internalType": "address"
                }
            ]
        },
        {
            "type": "error",
            "name": "Unlocked",
            "inputs": []
        },
        {
            "type": "error",
            "name": "ZeroAddress",
            "inputs": []
        },
        {
            "type": "error",
            "name": "ZeroAmount",
            "inputs": []
        }
    ],
    "bytecode": {
        "object": "0x610100604052348015610010575f5ffd5b50604051612f35380380612f3583398181016040528101906100329190610415565b60016100506100456101f360201b60201c565b61021c60201b60201c565b5f01819055505f73ffffffffffffffffffffffffffffffffffffffff168473ffffffffffffffffffffffffffffffffffffffff1614806100bb57505f73ffffffffffffffffffffffffffffffffffffffff168373ffffffffffffffffffffffffffffffffffffffff16145b156100f2576040517fd92e233d00000000000000000000000000000000000000000000000000000000815260040160405180910390fd5b61271081111561012e576040517fc6cc5d7f00000000000000000000000000000000000000000000000000000000815260040160405180910390fd5b6101405f5f1b3361022560201b60201c565b506101717f65d7a28e3265b37a6474929f336521b332c1681b933f6cb9f3376673440d862a3361022560201b60201c565b508373ffffffffffffffffffffffffffffffffffffffff1660808173ffffffffffffffffffffffffffffffffffffffff16815250508273ffffffffffffffffffffffffffffffffffffffff1660a08173ffffffffffffffffffffffffffffffffffffffff16815250508160c081815250508060e0818152505050505050610479565b5f7f9b779b17422d0df92223018b32b4d1fa46e071723d6817e2486d003becc55f005f1b905090565b5f819050919050565b5f610236838361031a60201b60201c565b6103105760015f5f8581526020019081526020015f205f015f8473ffffffffffffffffffffffffffffffffffffffff1673ffffffffffffffffffffffffffffffffffffffff1681526020019081526020015f205f6101000a81548160ff0219169083151502179055506102ad61037d60201b60201c565b73ffffffffffffffffffffffffffffffffffffffff168273ffffffffffffffffffffffffffffffffffffffff16847f2f8788117e7eff1d82e926ec794901d17c78024a50270940304540a733656f0d60405160405180910390a460019050610314565b5f90505b92915050565b5f5f5f8481526020019081526020015f205f015f8373ffffffffffffffffffffffffffffffffffffffff1673ffffffffffffffffffffffffffffffffffffffff1681526020019081526020015f205f9054906101000a900460ff16905092915050565b5f33905090565b5f5ffd5b5f73ffffffffffffffffffffffffffffffffffffffff82169050919050565b5f6103b182610388565b9050919050565b6103c1816103a7565b81146103cb575f5ffd5b50565b5f815190506103dc816103b8565b92915050565b5f819050919050565b6103f4816103e2565b81146103fe575f5ffd5b50565b5f8151905061040f816103eb565b92915050565b5f5f5f5f6080858703121561042d5761042c610384565b5b5f61043a878288016103ce565b945050602061044b878288016103ce565b935050604061045c87828801610401565b925050606061046d87828801610401565b91505092959194509250565b60805160a05160c05160e051612a1961051c5f395f81816109ab015261120f01525f81816105bb01528181610a84015261119c01525f818161090a01528181610b2f01528181610e2901528181611322015281816113b2015281816117cd0152818161193701526119f001525f81816105e101528181610bbc01528181610c6001528181610de201528181610f850152818161104401526114e60152612a195ff3fe608060405234801561000f575f5ffd5b50600436106101c2575f3560e01c806383767b78116100f7578063ce1e392111610095578063e63ab1e91161006f578063e63ab1e9146104b7578063f23c620c146104d5578063f8e8289e146104f1578063fc7e286d1461050f576101c2565b8063ce1e39211461044f578063d1f5c33b1461047f578063d547741f1461049b576101c2565b8063a217fddf116100d1578063a217fddf146103dd578063a694fc3a146103fb578063aa3ce18314610417578063c4e9c05614610433576101c2565b806383767b78146103855780638456cb59146103a357806391d14854146103ad576101c2565b80633f2a5540116101645780635c975abb1161013e5780635c975abb14610311578063726123b41461032f5780637582a0f61461034b5780637f8661a114610369576101c2565b80633f2a5540146102cb5780633f4ba83a146102e957806347a743ad146102f3576101c2565b80630c136286116101a05780630c13628614610232578063248a9ca3146102635780632f2ff15d1461029357806336568abe146102af576101c2565b806301ffc9a7146101c657806304554443146101f657806308aa16b614610214575b5f5ffd5b6101e060048036038101906101db91906122e4565b610540565b6040516101ed9190612329565b60405180910390f35b6101fe6105b9565b60405161020b919061235a565b60405180910390f35b61021c6105dd565b604051610229919061235a565b60405180910390f35b61024c600480360381019061024791906123f7565b61069d565b60405161025a929190612435565b60405180910390f35b61027d6004803603810190610278919061248f565b610715565b60405161028a91906124c9565b60405180910390f35b6102ad60048036038101906102a891906124e2565b610731565b005b6102c960048036038101906102c491906124e2565b610753565b005b6102d36107ce565b6040516102e0919061257b565b60405180910390f35b6102f16107f2565b005b6102fb610827565b604051610308919061235a565b60405180910390f35b61031961082c565b6040516103269190612329565b60405180910390f35b61034960048036038101906103449190612594565b610841565b005b6103536109a9565b604051610360919061235a565b60405180910390f35b610383600480360381019061037e9190612594565b6109cd565b005b61038d610c5e565b60405161039a91906125df565b60405180910390f35b6103ab610c82565b005b6103c760048036038101906103c291906124e2565b610cb7565b6040516103d49190612329565b60405180910390f35b6103e5610d1a565b6040516103f291906124c9565b60405180910390f35b61041560048036038101906104109190612594565b610d20565b005b610431600480360381019061042c91906125f8565b610f09565b005b61044d60048036038101906104489190612594565b6110e5565b005b610469600480360381019061046491906125f8565b61158c565b604051610476919061235a565b60405180910390f35b610499600480360381019061049491906125f8565b6115d8565b005b6104b560048036038101906104b091906124e2565b61166b565b005b6104bf61168d565b6040516104cc91906124c9565b60405180910390f35b6104ef60048036038101906104ea9190612594565b6116b1565b005b6104f96119ee565b6040516105069190612643565b60405180910390f35b610529600480360381019061052491906125f8565b611a12565b604051610537929190612740565b60405180910390f35b5f7f7965db0b000000000000000000000000000000000000000000000000000000007bffffffffffffffffffffffffffffffffffffffffffffffffffffffff1916827bffffffffffffffffffffffffffffffffffffffffffffffffffffffff191614806105b257506105b182611acd565b5b9050919050565b7f000000000000000000000000000000000000000000000000000000000000000081565b5f5f7f000000000000000000000000000000000000000000000000000000000000000073ffffffffffffffffffffffffffffffffffffffff166370a08231306040518263ffffffff1660e01b8152600401610638919061277d565b602060405180830381865afa158015610653573d5f5f3e3d5ffd5b505050506040513d601f19601f8201168201806040525081019061067791906127aa565b90506003548111610688575f610697565b600354816106969190612802565b5b91505090565b5f5f5f60025f8673ffffffffffffffffffffffffffffffffffffffff1673ffffffffffffffffffffffffffffffffffffffff1681526020019081526020015f2060010184815481106106f2576106f1612835565b5b905f5260205f2090600202019050805f0154816001015492509250509250929050565b5f5f5f8381526020019081526020015f20600101549050919050565b61073a82610715565b61074381611b36565b61074d8383611b4a565b50505050565b61075b611c33565b73ffffffffffffffffffffffffffffffffffffffff168173ffffffffffffffffffffffffffffffffffffffff16146107bf576040517f6697b23200000000000000000000000000000000000000000000000000000000815260040160405180910390fd5b6107c98282611c3a565b505050565b60018054906101000a900473ffffffffffffffffffffffffffffffffffffffff1681565b7f65d7a28e3265b37a6474929f336521b332c1681b933f6cb9f3376673440d862a61081c81611b36565b610824611d23565b50565b600a81565b5f60015f9054906101000a900460ff16905090565b610849611d84565b610851611da6565b5f60025f3373ffffffffffffffffffffffffffffffffffffffff1673ffffffffffffffffffffffffffffffffffffffff1681526020019081526020015f209050806001018054905082106108d1576040517f9ca8eef900000000000000000000000000000000000000000000000000000000815260040160405180910390fd5b5f8160010183815481106108e8576108e7612835565b5b905f5260205f2090600202015f015490506109033384611de7565b61094e33827f000000000000000000000000000000000000000000000000000000000000000073ffffffffffffffffffffffffffffffffffffffff16611edd9092919063ffffffff16565b3373ffffffffffffffffffffffffffffffffffffffff167fc13b3459e1e44bb22a6eaf26970a9cbea34628d966d84909f839f724003175e384604051610994919061235a565b60405180910390a250506109a6611f30565b50565b7f000000000000000000000000000000000000000000000000000000000000000081565b6109d5611d84565b6109dd611da6565b5f60025f3373ffffffffffffffffffffffffffffffffffffffff1673ffffffffffffffffffffffffffffffffffffffff1681526020019081526020015f20905080600101805490508210610a5d576040517f9ca8eef900000000000000000000000000000000000000000000000000000000815260040160405180910390fd5b5f816001018381548110610a7457610a73612835565b5b905f5260205f20906002020190507f00000000000000000000000000000000000000000000000000000000000000008160010154610ab29190612862565b421015610aeb576040517f0f2e5b6c00000000000000000000000000000000000000000000000000000000815260040160405180910390fd5b5f815f01549050610afc3385611de7565b80835f015f828254610b0e9190612802565b925050819055508060035f828254610b269190612802565b925050819055507f000000000000000000000000000000000000000000000000000000000000000073ffffffffffffffffffffffffffffffffffffffff166379cc679030836040518363ffffffff1660e01b8152600401610b88929190612895565b5f604051808303815f87803b158015610b9f575f5ffd5b505af1158015610bb1573d5f5f3e3d5ffd5b50505050610c0033827f000000000000000000000000000000000000000000000000000000000000000073ffffffffffffffffffffffffffffffffffffffff16611edd9092919063ffffffff16565b3373ffffffffffffffffffffffffffffffffffffffff167fba49bb5279636ff80eebc4fcda6a47bdf6053db74c3719cc3f9cc54e44b2878b8583604051610c48929190612435565b60405180910390a2505050610c5b611f30565b50565b7f000000000000000000000000000000000000000000000000000000000000000081565b7f65d7a28e3265b37a6474929f336521b332c1681b933f6cb9f3376673440d862a610cac81611b36565b610cb4611f4a565b50565b5f5f5f8481526020019081526020015f205f015f8373ffffffffffffffffffffffffffffffffffffffff1673ffffffffffffffffffffffffffffffffffffffff1681526020019081526020015f205f9054906101000a900460ff16905092915050565b5f5f1b81565b610d28611d84565b610d30611da6565b5f8103610d69576040517f1f2a200500000000000000000000000000000000000000000000000000000000815260040160405180910390fd5b5f60025f3373ffffffffffffffffffffffffffffffffffffffff1673ffffffffffffffffffffffffffffffffffffffff1681526020019081526020015f20905081815f015f828254610dbb9190612862565b925050819055508160035f828254610dd39190612862565b92505081905550610e273330847f000000000000000000000000000000000000000000000000000000000000000073ffffffffffffffffffffffffffffffffffffffff16611fab909392919063ffffffff16565b7f000000000000000000000000000000000000000000000000000000000000000073ffffffffffffffffffffffffffffffffffffffff166340c10f1933846040518363ffffffff1660e01b8152600401610e82929190612895565b5f604051808303815f87803b158015610e99575f5ffd5b505af1158015610eab573d5f5f3e3d5ffd5b505050503373ffffffffffffffffffffffffffffffffffffffff167f9e71bc8eea02a63969f509818f2dafb9254532904319f9dbda79b67bd34a5f3d83604051610ef5919061235a565b60405180910390a250610f06611f30565b50565b610f11611d84565b5f5f1b610f1d81611b36565b5f73ffffffffffffffffffffffffffffffffffffffff168273ffffffffffffffffffffffffffffffffffffffff1603610f82576040517fd92e233d00000000000000000000000000000000000000000000000000000000815260040160405180910390fd5b5f7f000000000000000000000000000000000000000000000000000000000000000073ffffffffffffffffffffffffffffffffffffffff166370a08231306040518263ffffffff1660e01b8152600401610fdc919061277d565b602060405180830381865afa158015610ff7573d5f5f3e3d5ffd5b505050506040513d601f19601f8201168201806040525081019061101b91906127aa565b9050600354811161102c57506110d9565b5f6003548261103b9190612802565b905061108884827f000000000000000000000000000000000000000000000000000000000000000073ffffffffffffffffffffffffffffffffffffffff16611edd9092919063ffffffff16565b8373ffffffffffffffffffffffffffffffffffffffff167f7528cd95284c56c76f1ee87e767ac1ec5aae54d0717ba2da867a2c230cb9c63f826040516110ce919061235a565b60405180910390a250505b506110e2611f30565b50565b6110ed611d84565b6110f5611da6565b5f60025f3373ffffffffffffffffffffffffffffffffffffffff1673ffffffffffffffffffffffffffffffffffffffff1681526020019081526020015f20905080600101805490508210611175576040517f9ca8eef900000000000000000000000000000000000000000000000000000000815260040160405180910390fd5b5f81600101838154811061118c5761118b612835565b5b905f5260205f20906002020190507f000000000000000000000000000000000000000000000000000000000000000081600101546111ca9190612862565b4210611202576040517f19aad37100000000000000000000000000000000000000000000000000000000815260040160405180910390fd5b5f815f015490505f6127107f00000000000000000000000000000000000000000000000000000000000000008361123991906128bc565b611243919061292a565b90505f81836112529190612802565b90505f821180156112ae57505f73ffffffffffffffffffffffffffffffffffffffff1660018054906101000a900473ffffffffffffffffffffffffffffffffffffffff1673ffffffffffffffffffffffffffffffffffffffff16145b156112e5576040517ff8fb53dc00000000000000000000000000000000000000000000000000000000815260040160405180910390fd5b6112ef3387611de7565b82855f015f8282546113019190612802565b925050819055508260035f8282546113199190612802565b925050819055507f000000000000000000000000000000000000000000000000000000000000000073ffffffffffffffffffffffffffffffffffffffff166379cc679030856040518363ffffffff1660e01b815260040161137b929190612895565b5f604051808303815f87803b158015611392575f5ffd5b505af11580156113a4573d5f5f3e3d5ffd5b505050505f8211156114df577f000000000000000000000000000000000000000000000000000000000000000073ffffffffffffffffffffffffffffffffffffffff166340c10f1960018054906101000a900473ffffffffffffffffffffffffffffffffffffffff16846040518363ffffffff1660e01b815260040161142b929190612895565b5f604051808303815f87803b158015611442575f5ffd5b505af1158015611454573d5f5f3e3d5ffd5b5050505060018054906101000a900473ffffffffffffffffffffffffffffffffffffffff1673ffffffffffffffffffffffffffffffffffffffff166389423406836040518263ffffffff1660e01b81526004016114b1919061235a565b5f604051808303815f87803b1580156114c8575f5ffd5b505af11580156114da573d5f5f3e3d5ffd5b505050505b61152a33827f000000000000000000000000000000000000000000000000000000000000000073ffffffffffffffffffffffffffffffffffffffff16611edd9092919063ffffffff16565b3373ffffffffffffffffffffffffffffffffffffffff167f1285dbd6094157b530d43e51966a26a3514412fa92ad718fc1290f26e80b66158785856040516115749392919061295a565b60405180910390a25050505050611589611f30565b50565b5f60025f8373ffffffffffffffffffffffffffffffffffffffff1673ffffffffffffffffffffffffffffffffffffffff1681526020019081526020015f20600101805490509050919050565b5f5f1b6115e481611b36565b816001806101000a81548173ffffffffffffffffffffffffffffffffffffffff021916908373ffffffffffffffffffffffffffffffffffffffff1602179055508173ffffffffffffffffffffffffffffffffffffffff167f1cc0d0fcd88df90cde5f20b27b655722f28afe56a6384c3c7a339ec18564c43960405160405180910390a25050565b61167482610715565b61167d81611b36565b6116878383611c3a565b50505050565b7f65d7a28e3265b37a6474929f336521b332c1681b933f6cb9f3376673440d862a81565b6116b9611d84565b6116c1611da6565b5f81036116fa576040517f1f2a200500000000000000000000000000000000000000000000000000000000815260040160405180910390fd5b5f60025f3373ffffffffffffffffffffffffffffffffffffffff1673ffffffffffffffffffffffffffffffffffffffff1681526020019081526020015f2090505f61174433612000565b905080825f015411611782576040517fff42052900000000000000000000000000000000000000000000000000000000815260040160405180910390fd5b80825f01546117919190612802565b8311156117ca576040517fb4760d1900000000000000000000000000000000000000000000000000000000815260040160405180910390fd5b827f000000000000000000000000000000000000000000000000000000000000000073ffffffffffffffffffffffffffffffffffffffff166370a08231336040518263ffffffff1660e01b8152600401611824919061277d565b602060405180830381865afa15801561183f573d5f5f3e3d5ffd5b505050506040513d601f19601f8201168201806040525081019061186391906127aa565b101561189b576040517f2f24e33a00000000000000000000000000000000000000000000000000000000815260040160405180910390fd5b600a8260010180549050106118dc576040517f83fdb1cd00000000000000000000000000000000000000000000000000000000815260040160405180910390fd5b81600101604051806040016040528085815260200142815250908060018154018082558091505060019003905f5260205f2090600202015f909190919091505f820151815f015560208201518160010155505061197c3330857f000000000000000000000000000000000000000000000000000000000000000073ffffffffffffffffffffffffffffffffffffffff16611fab909392919063ffffffff16565b3373ffffffffffffffffffffffffffffffffffffffff167fe4e87814b2d0d60d699b2f45f4e9558efd4e7ac2e6f14567c4f9cd929be45c6f600184600101805490506119c89190612802565b85426040516119d99392919061295a565b60405180910390a250506119eb611f30565b50565b7f000000000000000000000000000000000000000000000000000000000000000081565b5f60605f60025f8573ffffffffffffffffffffffffffffffffffffffff1673ffffffffffffffffffffffffffffffffffffffff1681526020019081526020015f209050805f0154925080600101805480602002602001604051908101604052809291908181526020015f905b82821015611ac1578382905f5260205f2090600202016040518060400160405290815f820154815260200160018201548152505081526020019060010190611a7e565b50505050915050915091565b5f7f01ffc9a7000000000000000000000000000000000000000000000000000000007bffffffffffffffffffffffffffffffffffffffffffffffffffffffff1916827bffffffffffffffffffffffffffffffffffffffffffffffffffffffff1916149050919050565b611b4781611b42611c33565b612098565b50565b5f611b558383610cb7565b611c295760015f5f8581526020019081526020015f205f015f8473ffffffffffffffffffffffffffffffffffffffff1673ffffffffffffffffffffffffffffffffffffffff1681526020019081526020015f205f6101000a81548160ff021916908315150217905550611bc6611c33565b73ffffffffffffffffffffffffffffffffffffffff168273ffffffffffffffffffffffffffffffffffffffff16847f2f8788117e7eff1d82e926ec794901d17c78024a50270940304540a733656f0d60405160405180910390a460019050611c2d565b5f90505b92915050565b5f33905090565b5f611c458383610cb7565b15611d19575f5f5f8581526020019081526020015f205f015f8473ffffffffffffffffffffffffffffffffffffffff1673ffffffffffffffffffffffffffffffffffffffff1681526020019081526020015f205f6101000a81548160ff021916908315150217905550611cb6611c33565b73ffffffffffffffffffffffffffffffffffffffff168273ffffffffffffffffffffffffffffffffffffffff16847ff6391f5c32d9c69d2a47ea670b442974b53935d1edc7fd64eb21e047a839171b60405160405180910390a460019050611d1d565b5f90505b92915050565b611d2b6120e9565b5f60015f6101000a81548160ff0219169083151502179055507f5db9ee0a495bf2e6ff9c91a7834c1ba4fdd244a5e8aa4e537bd38aeae4b073aa611d6d611c33565b604051611d7a919061277d565b60405180910390a1565b611d8c612129565b6002611d9e611d9961216a565b612193565b5f0181905550565b611dae61082c565b15611de5576040517fd93c066500000000000000000000000000000000000000000000000000000000815260040160405180910390fd5b565b5f60025f8473ffffffffffffffffffffffffffffffffffffffff1673ffffffffffffffffffffffffffffffffffffffff1681526020019081526020015f2090505f60018260010180549050611e3c9190612802565b9050808314611e9f57816001018181548110611e5b57611e5a612835565b5b905f5260205f209060020201826001018481548110611e7d57611e7c612835565b5b905f5260205f2090600202015f820154815f0155600182015481600101559050505b81600101805480611eb357611eb261298f565b5b600190038181905f5260205f2090600202015f5f82015f9055600182015f90555050905550505050565b611eea838383600161219c565b611f2b57826040517f5274afe7000000000000000000000000000000000000000000000000000000008152600401611f22919061277d565b60405180910390fd5b505050565b6001611f42611f3d61216a565b612193565b5f0181905550565b611f52611da6565b6001805f6101000a81548160ff0219169083151502179055507f62e78cea01bee320cd4e420270b5ea74000d11b0c9f74754ebdbfc544b05a258611f94611c33565b604051611fa1919061277d565b60405180910390a1565b611fb98484848460016121fe565b611ffa57836040517f5274afe7000000000000000000000000000000000000000000000000000000008152600401611ff1919061277d565b60405180910390fd5b50505050565b5f5f60025f8473ffffffffffffffffffffffffffffffffffffffff1673ffffffffffffffffffffffffffffffffffffffff1681526020019081526020015f2060010190505f5f90505b81805490508110156120915781818154811061206857612067612835565b5b905f5260205f2090600202015f0154836120829190612862565b92508080600101915050612049565b5050919050565b6120a28282610cb7565b6120e55780826040517fe2517d3f0000000000000000000000000000000000000000000000000000000081526004016120dc9291906129bc565b60405180910390fd5b5050565b6120f161082c565b612127576040517f8dfc202b00000000000000000000000000000000000000000000000000000000815260040160405180910390fd5b565b61213161226f565b15612168576040517f3ee5aeb500000000000000000000000000000000000000000000000000000000815260040160405180910390fd5b565b5f7f9b779b17422d0df92223018b32b4d1fa46e071723d6817e2486d003becc55f005f1b905090565b5f819050919050565b5f5f63a9059cbb60e01b9050604051815f525f1960601c86166004528460245260205f60445f5f8b5af1925060015f511483166121f05783831516156121e4573d5f823e3d81fd5b5f873b113d1516831692505b806040525050949350505050565b5f5f6323b872dd60e01b9050604051815f525f1960601c87166004525f1960601c86166024528460445260205f60645f5f8c5af1925060015f5114831661225c578383151615612250573d5f823e3d81fd5b5f883b113d1516831692505b806040525f606052505095945050505050565b5f600261228261227d61216a565b612193565b5f015414905090565b5f5ffd5b5f7fffffffff0000000000000000000000000000000000000000000000000000000082169050919050565b6122c38161228f565b81146122cd575f5ffd5b50565b5f813590506122de816122ba565b92915050565b5f602082840312156122f9576122f861228b565b5b5f612306848285016122d0565b91505092915050565b5f8115159050919050565b6123238161230f565b82525050565b5f60208201905061233c5f83018461231a565b92915050565b5f819050919050565b61235481612342565b82525050565b5f60208201905061236d5f83018461234b565b92915050565b5f73ffffffffffffffffffffffffffffffffffffffff82169050919050565b5f61239c82612373565b9050919050565b6123ac81612392565b81146123b6575f5ffd5b50565b5f813590506123c7816123a3565b92915050565b6123d681612342565b81146123e0575f5ffd5b50565b5f813590506123f1816123cd565b92915050565b5f5f6040838503121561240d5761240c61228b565b5b5f61241a858286016123b9565b925050602061242b858286016123e3565b9150509250929050565b5f6040820190506124485f83018561234b565b612455602083018461234b565b9392505050565b5f819050919050565b61246e8161245c565b8114612478575f5ffd5b50565b5f8135905061248981612465565b92915050565b5f602082840312156124a4576124a361228b565b5b5f6124b18482850161247b565b91505092915050565b6124c38161245c565b82525050565b5f6020820190506124dc5f8301846124ba565b92915050565b5f5f604083850312156124f8576124f761228b565b5b5f6125058582860161247b565b9250506020612516858286016123b9565b9150509250929050565b5f819050919050565b5f61254361253e61253984612373565b612520565b612373565b9050919050565b5f61255482612529565b9050919050565b5f6125658261254a565b9050919050565b6125758161255b565b82525050565b5f60208201905061258e5f83018461256c565b92915050565b5f602082840312156125a9576125a861228b565b5b5f6125b6848285016123e3565b91505092915050565b5f6125c98261254a565b9050919050565b6125d9816125bf565b82525050565b5f6020820190506125f25f8301846125d0565b92915050565b5f6020828403121561260d5761260c61228b565b5b5f61261a848285016123b9565b91505092915050565b5f61262d8261254a565b9050919050565b61263d81612623565b82525050565b5f6020820190506126565f830184612634565b92915050565b5f81519050919050565b5f82825260208201905092915050565b5f819050602082019050919050565b61268e81612342565b82525050565b604082015f8201516126a85f850182612685565b5060208201516126bb6020850182612685565b50505050565b5f6126cc8383612694565b60408301905092915050565b5f602082019050919050565b5f6126ee8261265c565b6126f88185612666565b935061270383612676565b805f5b8381101561273357815161271a88826126c1565b9750612725836126d8565b925050600181019050612706565b5085935050505092915050565b5f6040820190506127535f83018561234b565b818103602083015261276581846126e4565b90509392505050565b61277781612392565b82525050565b5f6020820190506127905f83018461276e565b92915050565b5f815190506127a4816123cd565b92915050565b5f602082840312156127bf576127be61228b565b5b5f6127cc84828501612796565b91505092915050565b7f4e487b71000000000000000000000000000000000000000000000000000000005f52601160045260245ffd5b5f61280c82612342565b915061281783612342565b925082820390508181111561282f5761282e6127d5565b5b92915050565b7f4e487b71000000000000000000000000000000000000000000000000000000005f52603260045260245ffd5b5f61286c82612342565b915061287783612342565b925082820190508082111561288f5761288e6127d5565b5b92915050565b5f6040820190506128a85f83018561276e565b6128b5602083018461234b565b9392505050565b5f6128c682612342565b91506128d183612342565b92508282026128df81612342565b915082820484148315176128f6576128f56127d5565b5b5092915050565b7f4e487b71000000000000000000000000000000000000000000000000000000005f52601260045260245ffd5b5f61293482612342565b915061293f83612342565b92508261294f5761294e6128fd565b5b828204905092915050565b5f60608201905061296d5f83018661234b565b61297a602083018561234b565b612987604083018461234b565b949350505050565b7f4e487b71000000000000000000000000000000000000000000000000000000005f52603160045260245ffd5b5f6040820190506129cf5f83018561276e565b6129dc60208301846124ba565b939250505056fea2646970667358221220a7f3a2d9e3b79ab81cb4563f4570256b67ebd9b706298bf510633105e56a9e0964736f6c63430008210033",
        "linkReferences": {}
    },
    "methodIdentifiers": {
        "DEFAULT_ADMIN_ROLE()": "a217fddf",
        "MAX_EXIT_REQUESTS()": "47a743ad",
        "PAUSER_ROLE()": "e63ab1e9",
        "cancelExit(uint256)": "726123b4",
        "deposits(address)": "fc7e286d",
        "exit(uint256)": "7f8661a1",
        "exitQueueLength(address)": "ce1e3921",
        "exitRequestAt(address,uint256)": "0c136286",
        "getRoleAdmin(bytes32)": "248a9ca3",
        "grantRole(bytes32,address)": "2f2ff15d",
        "hasRole(bytes32,address)": "91d14854",
        "initiateExit(uint256)": "f23c620c",
        "instantExit(uint256)": "c4e9c056",
        "instantExitPenaltyBps()": "7582a0f6",
        "k613()": "83767b78",
        "lockDuration()": "04554443",
        "pause()": "8456cb59",
        "paused()": "5c975abb",
        "renounceRole(bytes32,address)": "36568abe",
        "revokeRole(bytes32,address)": "d547741f",
        "rewardsDistributor()": "3f2a5540",
        "setRewardsDistributor(address)": "d1f5c33b",
        "stake(uint256)": "a694fc3a",
        "supportsInterface(bytes4)": "01ffc9a7",
        "unpause()": "3f4ba83a",
        "withdrawPenalties(address)": "aa3ce183",
        "withdrawablePenalties()": "08aa16b6",
        "xk613()": "f8e8289e"
    },
    "id": 39
}