{
    "abi": [
        {
            "type": "constructor",
            "inputs": [
                {
                    "name": "k613Token",
                    "type": "address",
                    "internalType": "address"
                },
                {
                    "name": "xk613Token",
                    "type": "address",
                    "internalType": "address"
                },
                {
                    "name": "lockDuration_",
                    "type": "uint256",
                    "internalType": "uint256"
                },
                {
                    "name": "instantExitPenaltyBps_",
                    "type": "uint256",
                    "internalType": "uint256"
                }
            ],
            "stateMutability": "nonpayable"
        },
        {
            "type": "function",
            "name": "DEFAULT_ADMIN_ROLE",
            "inputs": [],
            "outputs": [
                {
                    "name": "",
                    "type": "bytes32",
                    "internalType": "bytes32"
                }
            ],
            "stateMutability": "view"
        },
        {
            "type": "function",
            "name": "MAX_BASIS_POINTS",
            "inputs": [],
            "outputs": [
                {
                    "name": "",
                    "type": "uint256",
                    "internalType": "uint256"
                }
            ],
            "stateMutability": "view"
        },
        {
            "type": "function",
            "name": "MAX_EXIT_REQUESTS",
            "inputs": [],
            "outputs": [
                {
                    "name": "",
                    "type": "uint256",
                    "internalType": "uint256"
                }
            ],
            "stateMutability": "view"
        },
        {
            "type": "function",
            "name": "PAUSER_ROLE",
            "inputs": [],
            "outputs": [
                {
                    "name": "",
                    "type": "bytes32",
                    "internalType": "bytes32"
                }
            ],
            "stateMutability": "view"
        },
        {
            "type": "function",
            "name": "backingIntegrity",
            "inputs": [],
            "outputs": [
                {
                    "name": "",
                    "type": "bool",
                    "internalType": "bool"
                }
            ],
            "stateMutability": "view"
        },
        {
            "type": "function",
            "name": "cancelExit",
            "inputs": [
                {
                    "name": "index",
                    "type": "uint256",
                    "internalType": "uint256"
                }
            ],
            "outputs": [],
            "stateMutability": "nonpayable"
        },
        {
            "type": "function",
            "name": "deposits",
            "inputs": [
                {
                    "name": "user",
                    "type": "address",
                    "internalType": "address"
                }
            ],
            "outputs": [
                {
                    "name": "amount",
                    "type": "uint256",
                    "internalType": "uint256"
                },
                {
                    "name": "exitQueue",
                    "type": "tuple[]",
                    "internalType": "struct Staking.ExitRequest[]",
                    "components": [
                        {
                            "name": "amount",
                            "type": "uint256",
                            "internalType": "uint256"
                        },
                        {
                            "name": "exitInitiatedAt",
                            "type": "uint256",
                            "internalType": "uint256"
                        }
                    ]
                }
            ],
            "stateMutability": "view"
        },
        {
            "type": "function",
            "name": "exit",
            "inputs": [
                {
                    "name": "index",
                    "type": "uint256",
                    "internalType": "uint256"
                }
            ],
            "outputs": [],
            "stateMutability": "nonpayable"
        },
        {
            "type": "function",
            "name": "exitQueueLength",
            "inputs": [
                {
                    "name": "user",
                    "type": "address",
                    "internalType": "address"
                }
            ],
            "outputs": [
                {
                    "name": "",
                    "type": "uint256",
                    "internalType": "uint256"
                }
            ],
            "stateMutability": "view"
        },
        {
            "type": "function",
            "name": "exitRequestAt",
            "inputs": [
                {
                    "name": "user",
                    "type": "address",
                    "internalType": "address"
                },
                {
                    "name": "index",
                    "type": "uint256",
                    "internalType": "uint256"
                }
            ],
            "outputs": [
                {
                    "name": "amount",
                    "type": "uint256",
                    "internalType": "uint256"
                },
                {
                    "name": "exitInitiatedAt",
                    "type": "uint256",
                    "internalType": "uint256"
                }
            ],
            "stateMutability": "view"
        },
        {
            "type": "function",
            "name": "getRoleAdmin",
            "inputs": [
                {
                    "name": "role",
                    "type": "bytes32",
                    "internalType": "bytes32"
                }
            ],
            "outputs": [
                {
                    "name": "",
                    "type": "bytes32",
                    "internalType": "bytes32"
                }
            ],
            "stateMutability": "view"
        },
        {
            "type": "function",
            "name": "grantRole",
            "inputs": [
                {
                    "name": "role",
                    "type": "bytes32",
                    "internalType": "bytes32"
                },
                {
                    "name": "account",
                    "type": "address",
                    "internalType": "address"
                }
            ],
            "outputs": [],
            "stateMutability": "nonpayable"
        },
        {
            "type": "function",
            "name": "hasRole",
            "inputs": [
                {
                    "name": "role",
                    "type": "bytes32",
                    "internalType": "bytes32"
                },
                {
                    "name": "account",
                    "type": "address",
                    "internalType": "address"
                }
            ],
            "outputs": [
                {
                    "name": "",
                    "type": "bool",
                    "internalType": "bool"
                }
            ],
            "stateMutability": "view"
        },
        {
            "type": "function",
            "name": "initiateExit",
            "inputs": [
                {
                    "name": "amount",
                    "type": "uint256",
                    "internalType": "uint256"
                }
            ],
            "outputs": [],
            "stateMutability": "nonpayable"
        },
        {
            "type": "function",
            "name": "instantExit",
            "inputs": [
                {
                    "name": "index",
                    "type": "uint256",
                    "internalType": "uint256"
                }
            ],
            "outputs": [],
            "stateMutability": "nonpayable"
        },
        {
            "type": "function",
            "name": "instantExitPenaltyBps",
            "inputs": [],
            "outputs": [
                {
                    "name": "",
                    "type": "uint256",
                    "internalType": "uint256"
                }
            ],
            "stateMutability": "view"
        },
        {
            "type": "function",
            "name": "k613",
            "inputs": [],
            "outputs": [
                {
                    "name": "",
                    "type": "address",
                    "internalType": "contract IERC20"
                }
            ],
            "stateMutability": "view"
        },
        {
            "type": "function",
            "name": "lockDuration",
            "inputs": [],
            "outputs": [
                {
                    "name": "",
                    "type": "uint256",
                    "internalType": "uint256"
                }
            ],
            "stateMutability": "view"
        },
        {
            "type": "function",
            "name": "pause",
            "inputs": [],
            "outputs": [],
            "stateMutability": "nonpayable"
        },
        {
            "type": "function",
            "name": "paused",
            "inputs": [],
            "outputs": [
                {
                    "name": "",
                    "type": "bool",
                    "internalType": "bool"
                }
            ],
            "stateMutability": "view"
        },
        {
            "type": "function",
            "name": "renounceRole",
            "inputs": [
                {
                    "name": "role",
                    "type": "bytes32",
                    "internalType": "bytes32"
                },
                {
                    "name": "callerConfirmation",
                    "type": "address",
                    "internalType": "address"
                }
            ],
            "outputs": [],
            "stateMutability": "nonpayable"
        },
        {
            "type": "function",
            "name": "revokeRole",
            "inputs": [
                {
                    "name": "role",
                    "type": "bytes32",
                    "internalType": "bytes32"
                },
                {
                    "name": "account",
                    "type": "address",
                    "internalType": "address"
                }
            ],
            "outputs": [],
            "stateMutability": "nonpayable"
        },
        {
            "type": "function",
            "name": "rewardsDistributor",
            "inputs": [],
            "outputs": [
                {
                    "name": "",
                    "type": "address",
                    "internalType": "contract RewardsDistributor"
                }
            ],
            "stateMutability": "view"
        },
        {
            "type": "function",
            "name": "setRewardsDistributor",
            "inputs": [
                {
                    "name": "distributor",
                    "type": "address",
                    "internalType": "address"
                }
            ],
            "outputs": [],
            "stateMutability": "nonpayable"
        },
        {
            "type": "function",
            "name": "stake",
            "inputs": [
                {
                    "name": "amount",
                    "type": "uint256",
                    "internalType": "uint256"
                }
            ],
            "outputs": [],
            "stateMutability": "nonpayable"
        },
        {
            "type": "function",
            "name": "supportsInterface",
            "inputs": [
                {
                    "name": "interfaceId",
                    "type": "bytes4",
                    "internalType": "bytes4"
                }
            ],
            "outputs": [
                {
                    "name": "",
                    "type": "bool",
                    "internalType": "bool"
                }
            ],
            "stateMutability": "view"
        },
        {
            "type": "function",
            "name": "totalBacking",
            "inputs": [],
            "outputs": [
                {
                    "name": "",
                    "type": "uint256",
                    "internalType": "uint256"
                }
            ],
            "stateMutability": "view"
        },
        {
            "type": "function",
            "name": "unpause",
            "inputs": [],
            "outputs": [],
            "stateMutability": "nonpayable"
        },
        {
            "type": "function",
            "name": "xk613",
            "inputs": [],
            "outputs": [
                {
                    "name": "",
                    "type": "address",
                    "internalType": "contract xK613"
                }
            ],
            "stateMutability": "view"
        },
        {
            "type": "event",
            "name": "ExitCancelled",
            "inputs": [
                {
                    "name": "account",
                    "type": "address",
                    "indexed": true,
                    "internalType": "address"
                },
                {
                    "name": "index",
                    "type": "uint256",
                    "indexed": false,
                    "internalType": "uint256"
                }
            ],
            "anonymous": false
        },
        {
            "type": "event",
            "name": "ExitInitiated",
            "inputs": [
                {
                    "name": "account",
                    "type": "address",
                    "indexed": true,
                    "internalType": "address"
                },
                {
                    "name": "index",
                    "type": "uint256",
                    "indexed": false,
                    "internalType": "uint256"
                },
                {
                    "name": "amount",
                    "type": "uint256",
                    "indexed": false,
                    "internalType": "uint256"
                },
                {
                    "name": "exitInitiatedAt",
                    "type": "uint256",
                    "indexed": false,
                    "internalType": "uint256"
                }
            ],
            "anonymous": false
        },
        {
            "type": "event",
            "name": "Exited",
            "inputs": [
                {
                    "name": "account",
                    "type": "address",
                    "indexed": true,
                    "internalType": "address"
                },
                {
                    "name": "index",
                    "type": "uint256",
                    "indexed": false,
                    "internalType": "uint256"
                },
                {
                    "name": "amount",
                    "type": "uint256",
                    "indexed": false,
                    "internalType": "uint256"
                }
            ],
            "anonymous": false
        },
        {
            "type": "event",
            "name": "InstantExit",
            "inputs": [
                {
                    "name": "account",
                    "type": "address",
                    "indexed": true,
                    "internalType": "address"
                },
                {
                    "name": "index",
                    "type": "uint256",
                    "indexed": false,
                    "internalType": "uint256"
                },
                {
                    "name": "amount",
                    "type": "uint256",
                    "indexed": false,
                    "internalType": "uint256"
                },
                {
                    "name": "penalty",
                    "type": "uint256",
                    "indexed": false,
                    "internalType": "uint256"
                }
            ],
            "anonymous": false
        },
        {
            "type": "event",
            "name": "Paused",
            "inputs": [
                {
                    "name": "account",
                    "type": "address",
                    "indexed": false,
                    "internalType": "address"
                }
            ],
            "anonymous": false
        },
        {
            "type": "event",
            "name": "RewardsDistributorUpdated",
            "inputs": [
                {
                    "name": "distributor",
                    "type": "address",
                    "indexed": true,
                    "internalType": "address"
                }
            ],
            "anonymous": false
        },
        {
            "type": "event",
            "name": "RoleAdminChanged",
            "inputs": [
                {
                    "name": "role",
                    "type": "bytes32",
                    "indexed": true,
                    "internalType": "bytes32"
                },
                {
                    "name": "previousAdminRole",
                    "type": "bytes32",
                    "indexed": true,
                    "internalType": "bytes32"
                },
                {
                    "name": "newAdminRole",
                    "type": "bytes32",
                    "indexed": true,
                    "internalType": "bytes32"
                }
            ],
            "anonymous": false
        },
        {
            "type": "event",
            "name": "RoleGranted",
            "inputs": [
                {
                    "name": "role",
                    "type": "bytes32",
                    "indexed": true,
                    "internalType": "bytes32"
                },
                {
                    "name": "account",
                    "type": "address",
                    "indexed": true,
                    "internalType": "address"
                },
                {
                    "name": "sender",
                    "type": "address",
                    "indexed": true,
                    "internalType": "address"
                }
            ],
            "anonymous": false
        },
        {
            "type": "event",
            "name": "RoleRevoked",
            "inputs": [
                {
                    "name": "role",
                    "type": "bytes32",
                    "indexed": true,
                    "internalType": "bytes32"
                },
                {
                    "name": "account",
                    "type": "address",
                    "indexed": true,
                    "internalType": "address"
                },
                {
                    "name": "sender",
                    "type": "address",
                    "indexed": true,
                    "internalType": "address"
                }
            ],
            "anonymous": false
        },
        {
            "type": "event",
            "name": "Staked",
            "inputs": [
                {
                    "name": "account",
                    "type": "address",
                    "indexed": true,
                    "internalType": "address"
                },
                {
                    "name": "amount",
                    "type": "uint256",
                    "indexed": false,
                    "internalType": "uint256"
                }
            ],
            "anonymous": false
        },
        {
            "type": "event",
            "name": "Unpaused",
            "inputs": [
                {
                    "name": "account",
                    "type": "address",
                    "indexed": false,
                    "internalType": "address"
                }
            ],
            "anonymous": false
        },
        {
            "type": "error",
            "name": "AccessControlBadConfirmation",
            "inputs": []
        },
        {
            "type": "error",
            "name": "AccessControlUnauthorizedAccount",
            "inputs": [
                {
                    "name": "account",
                    "type": "address",
                    "internalType": "address"
                },
                {
                    "name": "neededRole",
                    "type": "bytes32",
                    "internalType": "bytes32"
                }
            ]
        },
        {
            "type": "error",
            "name": "AmountExceedsStake",
            "inputs": []
        },
        {
            "type": "error",
            "name": "EnforcedPause",
            "inputs": []
        },
        {
            "type": "error",
            "name": "ExitQueueFull",
            "inputs": []
        },
        {
            "type": "error",
            "name": "ExpectedPause",
            "inputs": []
        },
        {
            "type": "error",
            "name": "InsufficientxK613",
            "inputs": []
        },
        {
            "type": "error",
            "name": "InvalidBps",
            "inputs": []
        },
        {
            "type": "error",
            "name": "InvalidExitIndex",
            "inputs": []
        },
        {
            "type": "error",
            "name": "Locked",
            "inputs": []
        },
        {
            "type": "error",
            "name": "NothingToInitiate",
            "inputs": []
        },
        {
            "type": "error",
            "name": "ReentrancyGuardReentrantCall",
            "inputs": []
        },
        {
            "type": "error",
            "name": "RewardsDistributorNotSet",
            "inputs": []
        },
        {
            "type": "error",
            "name": "SafeERC20FailedOperation",
            "inputs": [
                {
                    "name": "token",
                    "type": "address",
                    "internalType": "address"
                }
            ]
        },
        {
            "type": "error",
            "name": "Unlocked",
            "inputs": []
        },
        {
            "type": "error",
            "name": "ZeroAddress",
            "inputs": []
        },
        {
            "type": "error",
            "name": "ZeroAmount",
            "inputs": []
        }
    ],
    "bytecode": {
        "object": "0x610100604052348015610010575f5ffd5b50604051612d3c380380612d3c83398181016040528101906100329190610415565b60016100506100456101f360201b60201c565b61021c60201b60201c565b5f01819055505f73ffffffffffffffffffffffffffffffffffffffff168473ffffffffffffffffffffffffffffffffffffffff1614806100bb57505f73ffffffffffffffffffffffffffffffffffffffff168373ffffffffffffffffffffffffffffffffffffffff16145b156100f2576040517fd92e233d00000000000000000000000000000000000000000000000000000000815260040160405180910390fd5b61271081111561012e576040517fc6cc5d7f00000000000000000000000000000000000000000000000000000000815260040160405180910390fd5b6101405f5f1b3361022560201b60201c565b506101717f65d7a28e3265b37a6474929f336521b332c1681b933f6cb9f3376673440d862a3361022560201b60201c565b508373ffffffffffffffffffffffffffffffffffffffff1660808173ffffffffffffffffffffffffffffffffffffffff16815250508273ffffffffffffffffffffffffffffffffffffffff1660a08173ffffffffffffffffffffffffffffffffffffffff16815250508160c081815250508060e0818152505050505050610479565b5f7f9b779b17422d0df92223018b32b4d1fa46e071723d6817e2486d003becc55f005f1b905090565b5f819050919050565b5f610236838361031a60201b60201c565b6103105760015f5f8581526020019081526020015f205f015f8473ffffffffffffffffffffffffffffffffffffffff1673ffffffffffffffffffffffffffffffffffffffff1681526020019081526020015f205f6101000a81548160ff0219169083151502179055506102ad61037d60201b60201c565b73ffffffffffffffffffffffffffffffffffffffff168273ffffffffffffffffffffffffffffffffffffffff16847f2f8788117e7eff1d82e926ec794901d17c78024a50270940304540a733656f0d60405160405180910390a460019050610314565b5f90505b92915050565b5f5f5f8481526020019081526020015f205f015f8373ffffffffffffffffffffffffffffffffffffffff1673ffffffffffffffffffffffffffffffffffffffff1681526020019081526020015f205f9054906101000a900460ff16905092915050565b5f33905090565b5f5ffd5b5f73ffffffffffffffffffffffffffffffffffffffff82169050919050565b5f6103b182610388565b9050919050565b6103c1816103a7565b81146103cb575f5ffd5b50565b5f815190506103dc816103b8565b92915050565b5f819050919050565b6103f4816103e2565b81146103fe575f5ffd5b50565b5f8151905061040f816103eb565b92915050565b5f5f5f5f6080858703121561042d5761042c610384565b5b5f61043a878288016103ce565b945050602061044b878288016103ce565b935050604061045c87828801610401565b925050606061046d87828801610401565b91505092959194509250565b60805160a05160c05160e05161282e61050e5f395f8181610916015261105401525f81816105e6015281816109ef0152610fe101525f818161087501528181610a9a01528181610d9401528181611167015281816115de01528181611748015261180701525f8181610b2701528181610bcb01528181610d4d01528181610e780152818161121c01526112ee015261282e5ff3fe608060405234801561000f575f5ffd5b50600436106101cd575f3560e01c80638456cb5911610102578063d1f5c33b116100a0578063f23c620c1161006f578063f23c620c146104e2578063f4ea93d8146104fe578063f8e8289e1461051c578063fc7e286d1461053a576101cd565b8063d1f5c33b1461046e578063d547741f1461048a578063e63ab1e9146104a6578063eb2cd258146104c4576101cd565b8063a694fc3a116100dc578063a694fc3a146103e8578063ad01b12a14610404578063c4e9c05614610422578063ce1e39211461043e576101cd565b80638456cb591461039057806391d148541461039a578063a217fddf146103ca576101cd565b80633f4ba83a1161016f578063726123b411610149578063726123b41461031c5780637582a0f6146103385780637f8661a11461035657806383767b7814610372576101cd565b80633f4ba83a146102d657806347a743ad146102e05780635c975abb146102fe576101cd565b8063248a9ca3116101ab578063248a9ca3146102505780632f2ff15d1461028057806336568abe1461029c5780633f2a5540146102b8576101cd565b806301ffc9a7146101d157806304554443146102015780630c1362861461021f575b5f5ffd5b6101eb60048036038101906101e691906120f9565b61056b565b6040516101f8919061213e565b60405180910390f35b6102096105e4565b604051610216919061216f565b60405180910390f35b6102396004803603810190610234919061220c565b610608565b60405161024792919061224a565b60405180910390f35b61026a600480360381019061026591906122a4565b610680565b60405161027791906122de565b60405180910390f35b61029a600480360381019061029591906122f7565b61069c565b005b6102b660048036038101906102b191906122f7565b6106be565b005b6102c0610739565b6040516102cd9190612390565b60405180910390f35b6102de61075d565b005b6102e8610792565b6040516102f5919061216f565b60405180910390f35b610306610797565b604051610313919061213e565b60405180910390f35b610336600480360381019061033191906123a9565b6107ac565b005b610340610914565b60405161034d919061216f565b60405180910390f35b610370600480360381019061036b91906123a9565b610938565b005b61037a610bc9565b60405161038791906123f4565b60405180910390f35b610398610bed565b005b6103b460048036038101906103af91906122f7565b610c22565b6040516103c1919061213e565b60405180910390f35b6103d2610c85565b6040516103df91906122de565b60405180910390f35b61040260048036038101906103fd91906123a9565b610c8b565b005b61040c610e74565b604051610419919061213e565b60405180910390f35b61043c600480360381019061043791906123a9565b610f2a565b005b6104586004803603810190610453919061240d565b611394565b604051610465919061216f565b60405180910390f35b6104886004803603810190610483919061240d565b6113e0565b005b6104a4600480360381019061049f91906122f7565b611473565b005b6104ae611495565b6040516104bb91906122de565b60405180910390f35b6104cc6114b9565b6040516104d9919061216f565b60405180910390f35b6104fc60048036038101906104f791906123a9565b6114c2565b005b6105066117ff565b604051610513919061216f565b60405180910390f35b610524611805565b6040516105319190612458565b60405180910390f35b610554600480360381019061054f919061240d565b611829565b604051610562929190612555565b60405180910390f35b5f7f7965db0b000000000000000000000000000000000000000000000000000000007bffffffffffffffffffffffffffffffffffffffffffffffffffffffff1916827bffffffffffffffffffffffffffffffffffffffffffffffffffffffff191614806105dd57506105dc826118e4565b5b9050919050565b7f000000000000000000000000000000000000000000000000000000000000000081565b5f5f5f60025f8673ffffffffffffffffffffffffffffffffffffffff1673ffffffffffffffffffffffffffffffffffffffff1681526020019081526020015f20600101848154811061065d5761065c612583565b5b905f5260205f2090600202019050805f0154816001015492509250509250929050565b5f5f5f8381526020019081526020015f20600101549050919050565b6106a582610680565b6106ae8161194d565b6106b88383611961565b50505050565b6106c6611a4a565b73ffffffffffffffffffffffffffffffffffffffff168173ffffffffffffffffffffffffffffffffffffffff161461072a576040517f6697b23200000000000000000000000000000000000000000000000000000000815260040160405180910390fd5b6107348282611a51565b505050565b60018054906101000a900473ffffffffffffffffffffffffffffffffffffffff1681565b7f65d7a28e3265b37a6474929f336521b332c1681b933f6cb9f3376673440d862a6107878161194d565b61078f611b3a565b50565b600a81565b5f60015f9054906101000a900460ff16905090565b6107b4611b9b565b6107bc611bbd565b5f60025f3373ffffffffffffffffffffffffffffffffffffffff1673ffffffffffffffffffffffffffffffffffffffff1681526020019081526020015f2090508060010180549050821061083c576040517f9ca8eef900000000000000000000000000000000000000000000000000000000815260040160405180910390fd5b5f81600101838154811061085357610852612583565b5b905f5260205f2090600202015f0154905061086e3384611bfe565b6108b933827f000000000000000000000000000000000000000000000000000000000000000073ffffffffffffffffffffffffffffffffffffffff16611cf49092919063ffffffff16565b3373ffffffffffffffffffffffffffffffffffffffff167fc13b3459e1e44bb22a6eaf26970a9cbea34628d966d84909f839f724003175e3846040516108ff919061216f565b60405180910390a25050610911611d47565b50565b7f000000000000000000000000000000000000000000000000000000000000000081565b610940611b9b565b610948611bbd565b5f60025f3373ffffffffffffffffffffffffffffffffffffffff1673ffffffffffffffffffffffffffffffffffffffff1681526020019081526020015f209050806001018054905082106109c8576040517f9ca8eef900000000000000000000000000000000000000000000000000000000815260040160405180910390fd5b5f8160010183815481106109df576109de612583565b5b905f5260205f20906002020190507f00000000000000000000000000000000000000000000000000000000000000008160010154610a1d91906125dd565b421015610a56576040517f0f2e5b6c00000000000000000000000000000000000000000000000000000000815260040160405180910390fd5b5f815f01549050610a673385611bfe565b80835f015f828254610a799190612610565b925050819055508060035f828254610a919190612610565b925050819055507f000000000000000000000000000000000000000000000000000000000000000073ffffffffffffffffffffffffffffffffffffffff166379cc679030836040518363ffffffff1660e01b8152600401610af3929190612652565b5f604051808303815f87803b158015610b0a575f5ffd5b505af1158015610b1c573d5f5f3e3d5ffd5b50505050610b6b33827f000000000000000000000000000000000000000000000000000000000000000073ffffffffffffffffffffffffffffffffffffffff16611cf49092919063ffffffff16565b3373ffffffffffffffffffffffffffffffffffffffff167fba49bb5279636ff80eebc4fcda6a47bdf6053db74c3719cc3f9cc54e44b2878b8583604051610bb392919061224a565b60405180910390a2505050610bc6611d47565b50565b7f000000000000000000000000000000000000000000000000000000000000000081565b7f65d7a28e3265b37a6474929f336521b332c1681b933f6cb9f3376673440d862a610c178161194d565b610c1f611d61565b50565b5f5f5f8481526020019081526020015f205f015f8373ffffffffffffffffffffffffffffffffffffffff1673ffffffffffffffffffffffffffffffffffffffff1681526020019081526020015f205f9054906101000a900460ff16905092915050565b5f5f1b81565b610c93611b9b565b610c9b611bbd565b5f8103610cd4576040517f1f2a200500000000000000000000000000000000000000000000000000000000815260040160405180910390fd5b5f60025f3373ffffffffffffffffffffffffffffffffffffffff1673ffffffffffffffffffffffffffffffffffffffff1681526020019081526020015f20905081815f015f828254610d2691906125dd565b925050819055508160035f828254610d3e91906125dd565b92505081905550610d923330847f000000000000000000000000000000000000000000000000000000000000000073ffffffffffffffffffffffffffffffffffffffff16611dc2909392919063ffffffff16565b7f000000000000000000000000000000000000000000000000000000000000000073ffffffffffffffffffffffffffffffffffffffff166340c10f1933846040518363ffffffff1660e01b8152600401610ded929190612652565b5f604051808303815f87803b158015610e04575f5ffd5b505af1158015610e16573d5f5f3e3d5ffd5b505050503373ffffffffffffffffffffffffffffffffffffffff167f9e71bc8eea02a63969f509818f2dafb9254532904319f9dbda79b67bd34a5f3d83604051610e60919061216f565b60405180910390a250610e71611d47565b50565b5f5f7f000000000000000000000000000000000000000000000000000000000000000073ffffffffffffffffffffffffffffffffffffffff166370a08231306040518263ffffffff1660e01b8152600401610ecf9190612679565b602060405180830381865afa158015610eea573d5f5f3e3d5ffd5b505050506040513d601f19601f82011682018060405250810190610f0e91906126a6565b90506003548110158015610f2457506003548111155b91505090565b610f32611b9b565b610f3a611bbd565b5f60025f3373ffffffffffffffffffffffffffffffffffffffff1673ffffffffffffffffffffffffffffffffffffffff1681526020019081526020015f20905080600101805490508210610fba576040517f9ca8eef900000000000000000000000000000000000000000000000000000000815260040160405180910390fd5b5f816001018381548110610fd157610fd0612583565b5b905f5260205f20906002020190507f0000000000000000000000000000000000000000000000000000000000000000816001015461100f91906125dd565b4210611047576040517f19aad37100000000000000000000000000000000000000000000000000000000815260040160405180910390fd5b5f815f015490505f6127107f00000000000000000000000000000000000000000000000000000000000000008361107e91906126d1565b611088919061273f565b90505f81836110979190612610565b90505f821180156110f357505f73ffffffffffffffffffffffffffffffffffffffff1660018054906101000a900473ffffffffffffffffffffffffffffffffffffffff1673ffffffffffffffffffffffffffffffffffffffff16145b1561112a576040517ff8fb53dc00000000000000000000000000000000000000000000000000000000815260040160405180910390fd5b6111343387611bfe565b82855f015f8282546111469190612610565b925050819055508260035f82825461115e9190612610565b925050819055507f000000000000000000000000000000000000000000000000000000000000000073ffffffffffffffffffffffffffffffffffffffff166379cc679030856040518363ffffffff1660e01b81526004016111c0929190612652565b5f604051808303815f87803b1580156111d7575f5ffd5b505af11580156111e9573d5f5f3e3d5ffd5b505050505f8211156112e75761126060018054906101000a900473ffffffffffffffffffffffffffffffffffffffff16837f000000000000000000000000000000000000000000000000000000000000000073ffffffffffffffffffffffffffffffffffffffff16611cf49092919063ffffffff16565b60018054906101000a900473ffffffffffffffffffffffffffffffffffffffff1673ffffffffffffffffffffffffffffffffffffffff166389423406836040518263ffffffff1660e01b81526004016112b9919061216f565b5f604051808303815f87803b1580156112d0575f5ffd5b505af11580156112e2573d5f5f3e3d5ffd5b505050505b61133233827f000000000000000000000000000000000000000000000000000000000000000073ffffffffffffffffffffffffffffffffffffffff16611cf49092919063ffffffff16565b3373ffffffffffffffffffffffffffffffffffffffff167f1285dbd6094157b530d43e51966a26a3514412fa92ad718fc1290f26e80b661587858560405161137c9392919061276f565b60405180910390a25050505050611391611d47565b50565b5f60025f8373ffffffffffffffffffffffffffffffffffffffff1673ffffffffffffffffffffffffffffffffffffffff1681526020019081526020015f20600101805490509050919050565b5f5f1b6113ec8161194d565b816001806101000a81548173ffffffffffffffffffffffffffffffffffffffff021916908373ffffffffffffffffffffffffffffffffffffffff1602179055508173ffffffffffffffffffffffffffffffffffffffff167f1cc0d0fcd88df90cde5f20b27b655722f28afe56a6384c3c7a339ec18564c43960405160405180910390a25050565b61147c82610680565b6114858161194d565b61148f8383611a51565b50505050565b7f65d7a28e3265b37a6474929f336521b332c1681b933f6cb9f3376673440d862a81565b5f600354905090565b6114ca611b9b565b6114d2611bbd565b5f810361150b576040517f1f2a200500000000000000000000000000000000000000000000000000000000815260040160405180910390fd5b5f60025f3373ffffffffffffffffffffffffffffffffffffffff1673ffffffffffffffffffffffffffffffffffffffff1681526020019081526020015f2090505f61155533611e17565b905080825f015411611593576040517fff42052900000000000000000000000000000000000000000000000000000000815260040160405180910390fd5b80825f01546115a29190612610565b8311156115db576040517fb4760d1900000000000000000000000000000000000000000000000000000000815260040160405180910390fd5b827f000000000000000000000000000000000000000000000000000000000000000073ffffffffffffffffffffffffffffffffffffffff166370a08231336040518263ffffffff1660e01b81526004016116359190612679565b602060405180830381865afa158015611650573d5f5f3e3d5ffd5b505050506040513d601f19601f8201168201806040525081019061167491906126a6565b10156116ac576040517f2f24e33a00000000000000000000000000000000000000000000000000000000815260040160405180910390fd5b600a8260010180549050106116ed576040517f83fdb1cd00000000000000000000000000000000000000000000000000000000815260040160405180910390fd5b81600101604051806040016040528085815260200142815250908060018154018082558091505060019003905f5260205f2090600202015f909190919091505f820151815f015560208201518160010155505061178d3330857f000000000000000000000000000000000000000000000000000000000000000073ffffffffffffffffffffffffffffffffffffffff16611dc2909392919063ffffffff16565b3373ffffffffffffffffffffffffffffffffffffffff167fe4e87814b2d0d60d699b2f45f4e9558efd4e7ac2e6f14567c4f9cd929be45c6f600184600101805490506117d99190612610565b85426040516117ea9392919061276f565b60405180910390a250506117fc611d47565b50565b61271081565b7f000000000000000000000000000000000000000000000000000000000000000081565b5f60605f60025f8573ffffffffffffffffffffffffffffffffffffffff1673ffffffffffffffffffffffffffffffffffffffff1681526020019081526020015f209050805f0154925080600101805480602002602001604051908101604052809291908181526020015f905b828210156118d8578382905f5260205f2090600202016040518060400160405290815f820154815260200160018201548152505081526020019060010190611895565b50505050915050915091565b5f7f01ffc9a7000000000000000000000000000000000000000000000000000000007bffffffffffffffffffffffffffffffffffffffffffffffffffffffff1916827bffffffffffffffffffffffffffffffffffffffffffffffffffffffff1916149050919050565b61195e81611959611a4a565b611ead565b50565b5f61196c8383610c22565b611a405760015f5f8581526020019081526020015f205f015f8473ffffffffffffffffffffffffffffffffffffffff1673ffffffffffffffffffffffffffffffffffffffff1681526020019081526020015f205f6101000a81548160ff0219169083151502179055506119dd611a4a565b73ffffffffffffffffffffffffffffffffffffffff168273ffffffffffffffffffffffffffffffffffffffff16847f2f8788117e7eff1d82e926ec794901d17c78024a50270940304540a733656f0d60405160405180910390a460019050611a44565b5f90505b92915050565b5f33905090565b5f611a5c8383610c22565b15611b30575f5f5f8581526020019081526020015f205f015f8473ffffffffffffffffffffffffffffffffffffffff1673ffffffffffffffffffffffffffffffffffffffff1681526020019081526020015f205f6101000a81548160ff021916908315150217905550611acd611a4a565b73ffffffffffffffffffffffffffffffffffffffff168273ffffffffffffffffffffffffffffffffffffffff16847ff6391f5c32d9c69d2a47ea670b442974b53935d1edc7fd64eb21e047a839171b60405160405180910390a460019050611b34565b5f90505b92915050565b611b42611efe565b5f60015f6101000a81548160ff0219169083151502179055507f5db9ee0a495bf2e6ff9c91a7834c1ba4fdd244a5e8aa4e537bd38aeae4b073aa611b84611a4a565b604051611b919190612679565b60405180910390a1565b611ba3611f3e565b6002611bb5611bb0611f7f565b611fa8565b5f0181905550565b611bc5610797565b15611bfc576040517fd93c066500000000000000000000000000000000000000000000000000000000815260040160405180910390fd5b565b5f60025f8473ffffffffffffffffffffffffffffffffffffffff1673ffffffffffffffffffffffffffffffffffffffff1681526020019081526020015f2090505f60018260010180549050611c539190612610565b9050808314611cb657816001018181548110611c7257611c71612583565b5b905f5260205f209060020201826001018481548110611c9457611c93612583565b5b905f5260205f2090600202015f820154815f0155600182015481600101559050505b81600101805480611cca57611cc96127a4565b5b600190038181905f5260205f2090600202015f5f82015f9055600182015f90555050905550505050565b611d018383836001611fb1565b611d4257826040517f5274afe7000000000000000000000000000000000000000000000000000000008152600401611d399190612679565b60405180910390fd5b505050565b6001611d59611d54611f7f565b611fa8565b5f0181905550565b611d69611bbd565b6001805f6101000a81548160ff0219169083151502179055507f62e78cea01bee320cd4e420270b5ea74000d11b0c9f74754ebdbfc544b05a258611dab611a4a565b604051611db89190612679565b60405180910390a1565b611dd0848484846001612013565b611e1157836040517f5274afe7000000000000000000000000000000000000000000000000000000008152600401611e089190612679565b60405180910390fd5b50505050565b5f5f60025f8473ffffffffffffffffffffffffffffffffffffffff1673ffffffffffffffffffffffffffffffffffffffff1681526020019081526020015f2060010190505f5f90505b8180549050811015611ea657818181548110611e7f57611e7e612583565b5b905f5260205f2090600202015f015483611e9991906125dd565b9250806001019050611e60565b5050919050565b611eb78282610c22565b611efa5780826040517fe2517d3f000000000000000000000000000000000000000000000000000000008152600401611ef19291906127d1565b60405180910390fd5b5050565b611f06610797565b611f3c576040517f8dfc202b00000000000000000000000000000000000000000000000000000000815260040160405180910390fd5b565b611f46612084565b15611f7d576040517f3ee5aeb500000000000000000000000000000000000000000000000000000000815260040160405180910390fd5b565b5f7f9b779b17422d0df92223018b32b4d1fa46e071723d6817e2486d003becc55f005f1b905090565b5f819050919050565b5f5f63a9059cbb60e01b9050604051815f525f1960601c86166004528460245260205f60445f5f8b5af1925060015f51148316612005578383151615611ff9573d5f823e3d81fd5b5f873b113d1516831692505b806040525050949350505050565b5f5f6323b872dd60e01b9050604051815f525f1960601c87166004525f1960601c86166024528460445260205f60645f5f8c5af1925060015f51148316612071578383151615612065573d5f823e3d81fd5b5f883b113d1516831692505b806040525f606052505095945050505050565b5f6002612097612092611f7f565b611fa8565b5f015414905090565b5f5ffd5b5f7fffffffff0000000000000000000000000000000000000000000000000000000082169050919050565b6120d8816120a4565b81146120e2575f5ffd5b50565b5f813590506120f3816120cf565b92915050565b5f6020828403121561210e5761210d6120a0565b5b5f61211b848285016120e5565b91505092915050565b5f8115159050919050565b61213881612124565b82525050565b5f6020820190506121515f83018461212f565b92915050565b5f819050919050565b61216981612157565b82525050565b5f6020820190506121825f830184612160565b92915050565b5f73ffffffffffffffffffffffffffffffffffffffff82169050919050565b5f6121b182612188565b9050919050565b6121c1816121a7565b81146121cb575f5ffd5b50565b5f813590506121dc816121b8565b92915050565b6121eb81612157565b81146121f5575f5ffd5b50565b5f81359050612206816121e2565b92915050565b5f5f60408385031215612222576122216120a0565b5b5f61222f858286016121ce565b9250506020612240858286016121f8565b9150509250929050565b5f60408201905061225d5f830185612160565b61226a6020830184612160565b9392505050565b5f819050919050565b61228381612271565b811461228d575f5ffd5b50565b5f8135905061229e8161227a565b92915050565b5f602082840312156122b9576122b86120a0565b5b5f6122c684828501612290565b91505092915050565b6122d881612271565b82525050565b5f6020820190506122f15f8301846122cf565b92915050565b5f5f6040838503121561230d5761230c6120a0565b5b5f61231a85828601612290565b925050602061232b858286016121ce565b9150509250929050565b5f819050919050565b5f61235861235361234e84612188565b612335565b612188565b9050919050565b5f6123698261233e565b9050919050565b5f61237a8261235f565b9050919050565b61238a81612370565b82525050565b5f6020820190506123a35f830184612381565b92915050565b5f602082840312156123be576123bd6120a0565b5b5f6123cb848285016121f8565b91505092915050565b5f6123de8261235f565b9050919050565b6123ee816123d4565b82525050565b5f6020820190506124075f8301846123e5565b92915050565b5f60208284031215612422576124216120a0565b5b5f61242f848285016121ce565b91505092915050565b5f6124428261235f565b9050919050565b61245281612438565b82525050565b5f60208201905061246b5f830184612449565b92915050565b5f81519050919050565b5f82825260208201905092915050565b5f819050602082019050919050565b6124a381612157565b82525050565b604082015f8201516124bd5f85018261249a565b5060208201516124d0602085018261249a565b50505050565b5f6124e183836124a9565b60408301905092915050565b5f602082019050919050565b5f61250382612471565b61250d818561247b565b93506125188361248b565b805f5b8381101561254857815161252f88826124d6565b975061253a836124ed565b92505060018101905061251b565b5085935050505092915050565b5f6040820190506125685f830185612160565b818103602083015261257a81846124f9565b90509392505050565b7f4e487b71000000000000000000000000000000000000000000000000000000005f52603260045260245ffd5b7f4e487b71000000000000000000000000000000000000000000000000000000005f52601160045260245ffd5b5f6125e782612157565b91506125f283612157565b925082820190508082111561260a576126096125b0565b5b92915050565b5f61261a82612157565b915061262583612157565b925082820390508181111561263d5761263c6125b0565b5b92915050565b61264c816121a7565b82525050565b5f6040820190506126655f830185612643565b6126726020830184612160565b9392505050565b5f60208201905061268c5f830184612643565b92915050565b5f815190506126a0816121e2565b92915050565b5f602082840312156126bb576126ba6120a0565b5b5f6126c884828501612692565b91505092915050565b5f6126db82612157565b91506126e683612157565b92508282026126f481612157565b9150828204841483151761270b5761270a6125b0565b5b5092915050565b7f4e487b71000000000000000000000000000000000000000000000000000000005f52601260045260245ffd5b5f61274982612157565b915061275483612157565b92508261276457612763612712565b5b828204905092915050565b5f6060820190506127825f830186612160565b61278f6020830185612160565b61279c6040830184612160565b949350505050565b7f4e487b71000000000000000000000000000000000000000000000000000000005f52603160045260245ffd5b5f6040820190506127e45f830185612643565b6127f160208301846122cf565b939250505056fea2646970667358221220157ebcb9c27fe1d7d7a0b598942c7802cf1ac6b598ddc1f1b70d6877d9e8daf164736f6c63430008220033",
        "linkReferences": {}
    },
    "methodIdentifiers": {
        "DEFAULT_ADMIN_ROLE()": "a217fddf",
        "MAX_BASIS_POINTS()": "f4ea93d8",
        "MAX_EXIT_REQUESTS()": "47a743ad",
        "PAUSER_ROLE()": "e63ab1e9",
        "backingIntegrity()": "ad01b12a",
        "cancelExit(uint256)": "726123b4",
        "deposits(address)": "fc7e286d",
        "exit(uint256)": "7f8661a1",
        "exitQueueLength(address)": "ce1e3921",
        "exitRequestAt(address,uint256)": "0c136286",
        "getRoleAdmin(bytes32)": "248a9ca3",
        "grantRole(bytes32,address)": "2f2ff15d",
        "hasRole(bytes32,address)": "91d14854",
        "initiateExit(uint256)": "f23c620c",
        "instantExit(uint256)": "c4e9c056",
        "instantExitPenaltyBps()": "7582a0f6",
        "k613()": "83767b78",
        "lockDuration()": "04554443",
        "pause()": "8456cb59",
        "paused()": "5c975abb",
        "renounceRole(bytes32,address)": "36568abe",
        "revokeRole(bytes32,address)": "d547741f",
        "rewardsDistributor()": "3f2a5540",
        "setRewardsDistributor(address)": "d1f5c33b",
        "stake(uint256)": "a694fc3a",
        "supportsInterface(bytes4)": "01ffc9a7",
        "totalBacking()": "eb2cd258",
        "unpause()": "3f4ba83a",
        "xk613()": "f8e8289e"
    },
    "id": 41
}