{
    "abi": [
        {
            "type": "constructor",
            "inputs": [
                {
                    "name": "initialMinter",
                    "type": "address",
                    "internalType": "address"
                }
            ],
            "stateMutability": "nonpayable"
        },
        {
            "type": "function",
            "name": "DEFAULT_ADMIN_ROLE",
            "inputs": [],
            "outputs": [
                {
                    "name": "",
                    "type": "bytes32",
                    "internalType": "bytes32"
                }
            ],
            "stateMutability": "view"
        },
        {
            "type": "function",
            "name": "MINTER_ROLE",
            "inputs": [],
            "outputs": [
                {
                    "name": "",
                    "type": "bytes32",
                    "internalType": "bytes32"
                }
            ],
            "stateMutability": "view"
        },
        {
            "type": "function",
            "name": "PAUSER_ROLE",
            "inputs": [],
            "outputs": [
                {
                    "name": "",
                    "type": "bytes32",
                    "internalType": "bytes32"
                }
            ],
            "stateMutability": "view"
        },
        {
            "type": "function",
            "name": "allowance",
            "inputs": [
                {
                    "name": "owner",
                    "type": "address",
                    "internalType": "address"
                },
                {
                    "name": "spender",
                    "type": "address",
                    "internalType": "address"
                }
            ],
            "outputs": [
                {
                    "name": "",
                    "type": "uint256",
                    "internalType": "uint256"
                }
            ],
            "stateMutability": "view"
        },
        {
            "type": "function",
            "name": "approve",
            "inputs": [
                {
                    "name": "spender",
                    "type": "address",
                    "internalType": "address"
                },
                {
                    "name": "value",
                    "type": "uint256",
                    "internalType": "uint256"
                }
            ],
            "outputs": [
                {
                    "name": "",
                    "type": "bool",
                    "internalType": "bool"
                }
            ],
            "stateMutability": "nonpayable"
        },
        {
            "type": "function",
            "name": "balanceOf",
            "inputs": [
                {
                    "name": "account",
                    "type": "address",
                    "internalType": "address"
                }
            ],
            "outputs": [
                {
                    "name": "",
                    "type": "uint256",
                    "internalType": "uint256"
                }
            ],
            "stateMutability": "view"
        },
        {
            "type": "function",
            "name": "burnFrom",
            "inputs": [
                {
                    "name": "from",
                    "type": "address",
                    "internalType": "address"
                },
                {
                    "name": "amount",
                    "type": "uint256",
                    "internalType": "uint256"
                }
            ],
            "outputs": [],
            "stateMutability": "nonpayable"
        },
        {
            "type": "function",
            "name": "decimals",
            "inputs": [],
            "outputs": [
                {
                    "name": "",
                    "type": "uint8",
                    "internalType": "uint8"
                }
            ],
            "stateMutability": "view"
        },
        {
            "type": "function",
            "name": "getRoleAdmin",
            "inputs": [
                {
                    "name": "role",
                    "type": "bytes32",
                    "internalType": "bytes32"
                }
            ],
            "outputs": [
                {
                    "name": "",
                    "type": "bytes32",
                    "internalType": "bytes32"
                }
            ],
            "stateMutability": "view"
        },
        {
            "type": "function",
            "name": "grantRole",
            "inputs": [
                {
                    "name": "role",
                    "type": "bytes32",
                    "internalType": "bytes32"
                },
                {
                    "name": "account",
                    "type": "address",
                    "internalType": "address"
                }
            ],
            "outputs": [],
            "stateMutability": "nonpayable"
        },
        {
            "type": "function",
            "name": "hasRole",
            "inputs": [
                {
                    "name": "role",
                    "type": "bytes32",
                    "internalType": "bytes32"
                },
                {
                    "name": "account",
                    "type": "address",
                    "internalType": "address"
                }
            ],
            "outputs": [
                {
                    "name": "",
                    "type": "bool",
                    "internalType": "bool"
                }
            ],
            "stateMutability": "view"
        },
        {
            "type": "function",
            "name": "mint",
            "inputs": [
                {
                    "name": "to",
                    "type": "address",
                    "internalType": "address"
                },
                {
                    "name": "amount",
                    "type": "uint256",
                    "internalType": "uint256"
                }
            ],
            "outputs": [],
            "stateMutability": "nonpayable"
        },
        {
            "type": "function",
            "name": "minter",
            "inputs": [],
            "outputs": [
                {
                    "name": "",
                    "type": "address",
                    "internalType": "address"
                }
            ],
            "stateMutability": "view"
        },
        {
            "type": "function",
            "name": "name",
            "inputs": [],
            "outputs": [
                {
                    "name": "",
                    "type": "string",
                    "internalType": "string"
                }
            ],
            "stateMutability": "view"
        },
        {
            "type": "function",
            "name": "pause",
            "inputs": [],
            "outputs": [],
            "stateMutability": "nonpayable"
        },
        {
            "type": "function",
            "name": "paused",
            "inputs": [],
            "outputs": [
                {
                    "name": "",
                    "type": "bool",
                    "internalType": "bool"
                }
            ],
            "stateMutability": "view"
        },
        {
            "type": "function",
            "name": "renounceRole",
            "inputs": [
                {
                    "name": "role",
                    "type": "bytes32",
                    "internalType": "bytes32"
                },
                {
                    "name": "callerConfirmation",
                    "type": "address",
                    "internalType": "address"
                }
            ],
            "outputs": [],
            "stateMutability": "nonpayable"
        },
        {
            "type": "function",
            "name": "revokeRole",
            "inputs": [
                {
                    "name": "role",
                    "type": "bytes32",
                    "internalType": "bytes32"
                },
                {
                    "name": "account",
                    "type": "address",
                    "internalType": "address"
                }
            ],
            "outputs": [],
            "stateMutability": "nonpayable"
        },
        {
            "type": "function",
            "name": "setMinter",
            "inputs": [
                {
                    "name": "newMinter",
                    "type": "address",
                    "internalType": "address"
                }
            ],
            "outputs": [],
            "stateMutability": "nonpayable"
        },
        {
            "type": "function",
            "name": "setTransferWhitelist",
            "inputs": [
                {
                    "name": "account",
                    "type": "address",
                    "internalType": "address"
                },
                {
                    "name": "allowed",
                    "type": "bool",
                    "internalType": "bool"
                }
            ],
            "outputs": [],
            "stateMutability": "nonpayable"
        },
        {
            "type": "function",
            "name": "supportsInterface",
            "inputs": [
                {
                    "name": "interfaceId",
                    "type": "bytes4",
                    "internalType": "bytes4"
                }
            ],
            "outputs": [
                {
                    "name": "",
                    "type": "bool",
                    "internalType": "bool"
                }
            ],
            "stateMutability": "view"
        },
        {
            "type": "function",
            "name": "symbol",
            "inputs": [],
            "outputs": [
                {
                    "name": "",
                    "type": "string",
                    "internalType": "string"
                }
            ],
            "stateMutability": "view"
        },
        {
            "type": "function",
            "name": "totalSupply",
            "inputs": [],
            "outputs": [
                {
                    "name": "",
                    "type": "uint256",
                    "internalType": "uint256"
                }
            ],
            "stateMutability": "view"
        },
        {
            "type": "function",
            "name": "transfer",
            "inputs": [
                {
                    "name": "to",
                    "type": "address",
                    "internalType": "address"
                },
                {
                    "name": "value",
                    "type": "uint256",
                    "internalType": "uint256"
                }
            ],
            "outputs": [
                {
                    "name": "",
                    "type": "bool",
                    "internalType": "bool"
                }
            ],
            "stateMutability": "nonpayable"
        },
        {
            "type": "function",
            "name": "transferFrom",
            "inputs": [
                {
                    "name": "from",
                    "type": "address",
                    "internalType": "address"
                },
                {
                    "name": "to",
                    "type": "address",
                    "internalType": "address"
                },
                {
                    "name": "value",
                    "type": "uint256",
                    "internalType": "uint256"
                }
            ],
            "outputs": [
                {
                    "name": "",
                    "type": "bool",
                    "internalType": "bool"
                }
            ],
            "stateMutability": "nonpayable"
        },
        {
            "type": "function",
            "name": "transferWhitelist",
            "inputs": [
                {
                    "name": "",
                    "type": "address",
                    "internalType": "address"
                }
            ],
            "outputs": [
                {
                    "name": "",
                    "type": "bool",
                    "internalType": "bool"
                }
            ],
            "stateMutability": "view"
        },
        {
            "type": "function",
            "name": "unpause",
            "inputs": [],
            "outputs": [],
            "stateMutability": "nonpayable"
        },
        {
            "type": "event",
            "name": "Approval",
            "inputs": [
                {
                    "name": "owner",
                    "type": "address",
                    "indexed": true,
                    "internalType": "address"
                },
                {
                    "name": "spender",
                    "type": "address",
                    "indexed": true,
                    "internalType": "address"
                },
                {
                    "name": "value",
                    "type": "uint256",
                    "indexed": false,
                    "internalType": "uint256"
                }
            ],
            "anonymous": false
        },
        {
            "type": "event",
            "name": "MinterUpdated",
            "inputs": [
                {
                    "name": "previousMinter",
                    "type": "address",
                    "indexed": true,
                    "internalType": "address"
                },
                {
                    "name": "newMinter",
                    "type": "address",
                    "indexed": true,
                    "internalType": "address"
                }
            ],
            "anonymous": false
        },
        {
            "type": "event",
            "name": "Paused",
            "inputs": [
                {
                    "name": "account",
                    "type": "address",
                    "indexed": false,
                    "internalType": "address"
                }
            ],
            "anonymous": false
        },
        {
            "type": "event",
            "name": "RoleAdminChanged",
            "inputs": [
                {
                    "name": "role",
                    "type": "bytes32",
                    "indexed": true,
                    "internalType": "bytes32"
                },
                {
                    "name": "previousAdminRole",
                    "type": "bytes32",
                    "indexed": true,
                    "internalType": "bytes32"
                },
                {
                    "name": "newAdminRole",
                    "type": "bytes32",
                    "indexed": true,
                    "internalType": "bytes32"
                }
            ],
            "anonymous": false
        },
        {
            "type": "event",
            "name": "RoleGranted",
            "inputs": [
                {
                    "name": "role",
                    "type": "bytes32",
                    "indexed": true,
                    "internalType": "bytes32"
                },
                {
                    "name": "account",
                    "type": "address",
                    "indexed": true,
                    "internalType": "address"
                },
                {
                    "name": "sender",
                    "type": "address",
                    "indexed": true,
                    "internalType": "address"
                }
            ],
            "anonymous": false
        },
        {
            "type": "event",
            "name": "RoleRevoked",
            "inputs": [
                {
                    "name": "role",
                    "type": "bytes32",
                    "indexed": true,
                    "internalType": "bytes32"
                },
                {
                    "name": "account",
                    "type": "address",
                    "indexed": true,
                    "internalType": "address"
                },
                {
                    "name": "sender",
                    "type": "address",
                    "indexed": true,
                    "internalType": "address"
                }
            ],
            "anonymous": false
        },
        {
            "type": "event",
            "name": "Transfer",
            "inputs": [
                {
                    "name": "from",
                    "type": "address",
                    "indexed": true,
                    "internalType": "address"
                },
                {
                    "name": "to",
                    "type": "address",
                    "indexed": true,
                    "internalType": "address"
                },
                {
                    "name": "value",
                    "type": "uint256",
                    "indexed": false,
                    "internalType": "uint256"
                }
            ],
            "anonymous": false
        },
        {
            "type": "event",
            "name": "TransferWhitelistUpdated",
            "inputs": [
                {
                    "name": "account",
                    "type": "address",
                    "indexed": true,
                    "internalType": "address"
                },
                {
                    "name": "allowed",
                    "type": "bool",
                    "indexed": false,
                    "internalType": "bool"
                }
            ],
            "anonymous": false
        },
        {
            "type": "event",
            "name": "Unpaused",
            "inputs": [
                {
                    "name": "account",
                    "type": "address",
                    "indexed": false,
                    "internalType": "address"
                }
            ],
            "anonymous": false
        },
        {
            "type": "error",
            "name": "AccessControlBadConfirmation",
            "inputs": []
        },
        {
            "type": "error",
            "name": "AccessControlUnauthorizedAccount",
            "inputs": [
                {
                    "name": "account",
                    "type": "address",
                    "internalType": "address"
                },
                {
                    "name": "neededRole",
                    "type": "bytes32",
                    "internalType": "bytes32"
                }
            ]
        },
        {
            "type": "error",
            "name": "ERC20InsufficientAllowance",
            "inputs": [
                {
                    "name": "spender",
                    "type": "address",
                    "internalType": "address"
                },
                {
                    "name": "allowance",
                    "type": "uint256",
                    "internalType": "uint256"
                },
                {
                    "name": "needed",
                    "type": "uint256",
                    "internalType": "uint256"
                }
            ]
        },
        {
            "type": "error",
            "name": "ERC20InsufficientBalance",
            "inputs": [
                {
                    "name": "sender",
                    "type": "address",
                    "internalType": "address"
                },
                {
                    "name": "balance",
                    "type": "uint256",
                    "internalType": "uint256"
                },
                {
                    "name": "needed",
                    "type": "uint256",
                    "internalType": "uint256"
                }
            ]
        },
        {
            "type": "error",
            "name": "ERC20InvalidApprover",
            "inputs": [
                {
                    "name": "approver",
                    "type": "address",
                    "internalType": "address"
                }
            ]
        },
        {
            "type": "error",
            "name": "ERC20InvalidReceiver",
            "inputs": [
                {
                    "name": "receiver",
                    "type": "address",
                    "internalType": "address"
                }
            ]
        },
        {
            "type": "error",
            "name": "ERC20InvalidSender",
            "inputs": [
                {
                    "name": "sender",
                    "type": "address",
                    "internalType": "address"
                }
            ]
        },
        {
            "type": "error",
            "name": "ERC20InvalidSpender",
            "inputs": [
                {
                    "name": "spender",
                    "type": "address",
                    "internalType": "address"
                }
            ]
        },
        {
            "type": "error",
            "name": "EnforcedPause",
            "inputs": []
        },
        {
            "type": "error",
            "name": "ExpectedPause",
            "inputs": []
        },
        {
            "type": "error",
            "name": "OnlyMinter",
            "inputs": []
        },
        {
            "type": "error",
            "name": "TransfersDisabled",
            "inputs": []
        },
        {
            "type": "error",
            "name": "ZeroAddress",
            "inputs": []
        }
    ],
    "bytecode": {
        "object": "0x608060405234801561000f575f5ffd5b506040516126ed3803806126ed833981810160405281019061003191906103f9565b6040518060400160405280600581526020017f784b3631330000000000000000000000000000000000000000000000000000008152506040518060400160405280600581526020017f784b36313300000000000000000000000000000000000000000000000000000081525081600390816100ac9190610672565b5080600490816100bc9190610672565b5050505f73ffffffffffffffffffffffffffffffffffffffff168173ffffffffffffffffffffffffffffffffffffffff1603610124576040517fd92e233d00000000000000000000000000000000000000000000000000000000815260040160405180910390fd5b6101365f5f1b3361023a60201b60201c565b506101677f65d7a28e3265b37a6474929f336521b332c1681b933f6cb9f3376673440d862a3361023a60201b60201c565b5080600660016101000a81548173ffffffffffffffffffffffffffffffffffffffff021916908373ffffffffffffffffffffffffffffffffffffffff1602179055506101d97f9f2df0fed2c77648de5860a4cc508cd0818c85b8b8a1ab4ceeef8d981c8956a68261023a60201b60201c565b508073ffffffffffffffffffffffffffffffffffffffff165f73ffffffffffffffffffffffffffffffffffffffff167f1cf2de25c5bf439ac0287061c3a0fa69b3b02867d0ccfd2ded34e42577050b7360405160405180910390a350610741565b5f61024b838361033060201b60201c565b61032657600160055f8581526020019081526020015f205f015f8473ffffffffffffffffffffffffffffffffffffffff1673ffffffffffffffffffffffffffffffffffffffff1681526020019081526020015f205f6101000a81548160ff0219169083151502179055506102c361039460201b60201c565b73ffffffffffffffffffffffffffffffffffffffff168273ffffffffffffffffffffffffffffffffffffffff16847f2f8788117e7eff1d82e926ec794901d17c78024a50270940304540a733656f0d60405160405180910390a46001905061032a565b5f90505b92915050565b5f60055f8481526020019081526020015f205f015f8373ffffffffffffffffffffffffffffffffffffffff1673ffffffffffffffffffffffffffffffffffffffff1681526020019081526020015f205f9054906101000a900460ff16905092915050565b5f33905090565b5f5ffd5b5f73ffffffffffffffffffffffffffffffffffffffff82169050919050565b5f6103c88261039f565b9050919050565b6103d8816103be565b81146103e2575f5ffd5b50565b5f815190506103f3816103cf565b92915050565b5f6020828403121561040e5761040d61039b565b5b5f61041b848285016103e5565b91505092915050565b5f81519050919050565b7f4e487b71000000000000000000000000000000000000000000000000000000005f52604160045260245ffd5b7f4e487b71000000000000000000000000000000000000000000000000000000005f52602260045260245ffd5b5f600282049050600182168061049f57607f821691505b6020821081036104b2576104b161045b565b5b50919050565b5f819050815f5260205f209050919050565b5f6020601f8301049050919050565b5f82821b905092915050565b5f600883026105147fffffffffffffffffffffffffffffffffffffffffffffffffffffffffffffffff826104d9565b61051e86836104d9565b95508019841693508086168417925050509392505050565b5f819050919050565b5f819050919050565b5f61056261055d61055884610536565b61053f565b610536565b9050919050565b5f819050919050565b61057b83610548565b61058f61058782610569565b8484546104e5565b825550505050565b5f5f905090565b6105a6610597565b6105b1818484610572565b505050565b5f5b828110156105d7576105cc5f82840161059e565b6001810190506105b8565b505050565b601f82111561062a5782821115610629576105f6816104b8565b6105ff836104ca565b610608856104ca565b6020861015610615575f90505b808301610624828403826105b6565b505050505b5b505050565b5f82821c905092915050565b5f61064a5f198460080261062f565b1980831691505092915050565b5f610662838361063b565b9150826002028217905092915050565b61067b82610424565b67ffffffffffffffff8111156106945761069361042e565b5b61069e8254610488565b6106a98282856105dc565b5f60209050601f8311600181146106da575f84156106c8578287015190505b6106d28582610657565b865550610739565b601f1984166106e8866104b8565b5f5b8281101561070f578489015182556001820191506020850194506020810190506106ea565b8683101561072c5784890151610728601f89168261063b565b8355505b6001600288020188555050505b505050505050565b611f9f8061074e5f395ff3fe608060405234801561000f575f5ffd5b50600436106101a7575f3560e01c806370a08231116100f7578063a9059cbb11610095578063dd62ed3e1161006f578063dd62ed3e146104bb578063e4a34dce146104eb578063e63ab1e914610507578063fca3b5aa14610525576101a7565b8063a9059cbb14610451578063d539139314610481578063d547741f1461049f576101a7565b80638456cb59116100d15780638456cb59146103db57806391d14854146103e557806395d89b4114610415578063a217fddf14610433576101a7565b806370a082311461035f57806379cc67901461038f5780637ffbe241146103ab576101a7565b8063248a9ca31161016457806336568abe1161013e57806336568abe146102ff5780633f4ba83a1461031b57806340c10f19146103255780635c975abb14610341576101a7565b8063248a9ca3146102955780632f2ff15d146102c5578063313ce567146102e1576101a7565b806301ffc9a7146101ab57806306fdde03146101db57806307546172146101f9578063095ea7b31461021757806318160ddd1461024757806323b872dd14610265575b5f5ffd5b6101c560048036038101906101c09190611a2e565b610541565b6040516101d29190611a73565b60405180910390f35b6101e36105ba565b6040516101f09190611afc565b60405180910390f35b61020161064a565b60405161020e9190611b5b565b60405180910390f35b610231600480360381019061022c9190611bd1565b610670565b60405161023e9190611a73565b60405180910390f35b61024f610692565b60405161025c9190611c1e565b60405180910390f35b61027f600480360381019061027a9190611c37565b61069b565b60405161028c9190611a73565b60405180910390f35b6102af60048036038101906102aa9190611cba565b6106c9565b6040516102bc9190611cf4565b60405180910390f35b6102df60048036038101906102da9190611d0d565b6106e6565b005b6102e9610708565b6040516102f69190611d66565b60405180910390f35b61031960048036038101906103149190611d0d565b610710565b005b61032361078b565b005b61033f600480360381019061033a9190611bd1565b6107c0565b005b61034961082e565b6040516103569190611a73565b60405180910390f35b61037960048036038101906103749190611d7f565b610843565b6040516103869190611c1e565b60405180910390f35b6103a960048036038101906103a49190611bd1565b610888565b005b6103c560048036038101906103c09190611d7f565b6108f6565b6040516103d29190611a73565b60405180910390f35b6103e3610913565b005b6103ff60048036038101906103fa9190611d0d565b610948565b60405161040c9190611a73565b60405180910390f35b61041d6109ac565b60405161042a9190611afc565b60405180910390f35b61043b610a3c565b6040516104489190611cf4565b60405180910390f35b61046b60048036038101906104669190611bd1565b610a42565b6040516104789190611a73565b60405180910390f35b610489610a64565b6040516104969190611cf4565b60405180910390f35b6104b960048036038101906104b49190611d0d565b610a88565b005b6104d560048036038101906104d09190611daa565b610aaa565b6040516104e29190611c1e565b60405180910390f35b61050560048036038101906105009190611e12565b610b2c565b005b61050f610c44565b60405161051c9190611cf4565b60405180910390f35b61053f600480360381019061053a9190611d7f565b610c68565b005b5f7f7965db0b000000000000000000000000000000000000000000000000000000007bffffffffffffffffffffffffffffffffffffffffffffffffffffffff1916827bffffffffffffffffffffffffffffffffffffffffffffffffffffffff191614806105b357506105b282610e12565b5b9050919050565b6060600380546105c990611e7d565b80601f01602080910402602001604051908101604052809291908181526020018280546105f590611e7d565b80156106405780601f1061061757610100808354040283529160200191610640565b820191905f5260205f20905b81548152906001019060200180831161062357829003601f168201915b5050505050905090565b600660019054906101000a900473ffffffffffffffffffffffffffffffffffffffff1681565b5f5f61067a610e7b565b9050610687818585610e82565b600191505092915050565b5f600254905090565b5f5f6106a5610e7b565b90506106b2858285610e94565b6106bd858585610f27565b60019150509392505050565b5f60055f8381526020019081526020015f20600101549050919050565b6106ef826106c9565b6106f881611017565b610702838361102b565b50505050565b5f6012905090565b610718610e7b565b73ffffffffffffffffffffffffffffffffffffffff168173ffffffffffffffffffffffffffffffffffffffff161461077c576040517f6697b23200000000000000000000000000000000000000000000000000000000815260040160405180910390fd5b6107868282611115565b505050565b7f65d7a28e3265b37a6474929f336521b332c1681b933f6cb9f3376673440d862a6107b581611017565b6107bd6111ff565b50565b6107ea7f9f2df0fed2c77648de5860a4cc508cd0818c85b8b8a1ab4ceeef8d981c8956a633610948565b610820576040517f9cdc2ed500000000000000000000000000000000000000000000000000000000815260040160405180910390fd5b61082a8282611260565b5050565b5f60065f9054906101000a900460ff16905090565b5f5f5f8373ffffffffffffffffffffffffffffffffffffffff1673ffffffffffffffffffffffffffffffffffffffff1681526020019081526020015f20549050919050565b6108b27f9f2df0fed2c77648de5860a4cc508cd0818c85b8b8a1ab4ceeef8d981c8956a633610948565b6108e8576040517f9cdc2ed500000000000000000000000000000000000000000000000000000000815260040160405180910390fd5b6108f282826112df565b5050565b6007602052805f5260405f205f915054906101000a900460ff1681565b7f65d7a28e3265b37a6474929f336521b332c1681b933f6cb9f3376673440d862a61093d81611017565b61094561135e565b50565b5f60055f8481526020019081526020015f205f015f8373ffffffffffffffffffffffffffffffffffffffff1673ffffffffffffffffffffffffffffffffffffffff1681526020019081526020015f205f9054906101000a900460ff16905092915050565b6060600480546109bb90611e7d565b80601f01602080910402602001604051908101604052809291908181526020018280546109e790611e7d565b8015610a325780601f10610a0957610100808354040283529160200191610a32565b820191905f5260205f20905b815481529060010190602001808311610a1557829003601f168201915b5050505050905090565b5f5f1b81565b5f5f610a4c610e7b565b9050610a59818585610f27565b600191505092915050565b7f9f2df0fed2c77648de5860a4cc508cd0818c85b8b8a1ab4ceeef8d981c8956a681565b610a91826106c9565b610a9a81611017565b610aa48383611115565b50505050565b5f60015f8473ffffffffffffffffffffffffffffffffffffffff1673ffffffffffffffffffffffffffffffffffffffff1681526020019081526020015f205f8373ffffffffffffffffffffffffffffffffffffffff1673ffffffffffffffffffffffffffffffffffffffff1681526020019081526020015f2054905092915050565b5f5f1b610b3881611017565b5f73ffffffffffffffffffffffffffffffffffffffff168373ffffffffffffffffffffffffffffffffffffffff1603610b9d576040517fd92e233d00000000000000000000000000000000000000000000000000000000815260040160405180910390fd5b8160075f8573ffffffffffffffffffffffffffffffffffffffff1673ffffffffffffffffffffffffffffffffffffffff1681526020019081526020015f205f6101000a81548160ff0219169083151502179055508273ffffffffffffffffffffffffffffffffffffffff167fe3b4918d2544570f4fd920ce69294772100c0d60360c88d94c56fadbbef76cb183604051610c379190611a73565b60405180910390a2505050565b7f65d7a28e3265b37a6474929f336521b332c1681b933f6cb9f3376673440d862a81565b5f5f1b610c7481611017565b5f73ffffffffffffffffffffffffffffffffffffffff168273ffffffffffffffffffffffffffffffffffffffff1603610cd9576040517fd92e233d00000000000000000000000000000000000000000000000000000000815260040160405180910390fd5b610d257f9f2df0fed2c77648de5860a4cc508cd0818c85b8b8a1ab4ceeef8d981c8956a6600660019054906101000a900473ffffffffffffffffffffffffffffffffffffffff16611115565b508173ffffffffffffffffffffffffffffffffffffffff16600660019054906101000a900473ffffffffffffffffffffffffffffffffffffffff1673ffffffffffffffffffffffffffffffffffffffff167f1cf2de25c5bf439ac0287061c3a0fa69b3b02867d0ccfd2ded34e42577050b7360405160405180910390a381600660016101000a81548173ffffffffffffffffffffffffffffffffffffffff021916908373ffffffffffffffffffffffffffffffffffffffff160217905550610e0d7f9f2df0fed2c77648de5860a4cc508cd0818c85b8b8a1ab4ceeef8d981c8956a68361102b565b505050565b5f7f01ffc9a7000000000000000000000000000000000000000000000000000000007bffffffffffffffffffffffffffffffffffffffffffffffffffffffff1916827bffffffffffffffffffffffffffffffffffffffffffffffffffffffff1916149050919050565b5f33905090565b610e8f83838360016113c0565b505050565b5f610e9f8484610aaa565b90507fffffffffffffffffffffffffffffffffffffffffffffffffffffffffffffffff811015610f215781811015610f12578281836040517ffb8f41b2000000000000000000000000000000000000000000000000000000008152600401610f0993929190611ead565b60405180910390fd5b610f2084848484035f6113c0565b5b50505050565b5f73ffffffffffffffffffffffffffffffffffffffff168373ffffffffffffffffffffffffffffffffffffffff1603610f97575f6040517f96c6fd1e000000000000000000000000000000000000000000000000000000008152600401610f8e9190611b5b565b60405180910390fd5b5f73ffffffffffffffffffffffffffffffffffffffff168273ffffffffffffffffffffffffffffffffffffffff1603611007575f6040517fec442f05000000000000000000000000000000000000000000000000000000008152600401610ffe9190611b5b565b60405180910390fd5b61101283838361158f565b505050565b61102881611023610e7b565b6116ea565b50565b5f6110368383610948565b61110b57600160055f8581526020019081526020015f205f015f8473ffffffffffffffffffffffffffffffffffffffff1673ffffffffffffffffffffffffffffffffffffffff1681526020019081526020015f205f6101000a81548160ff0219169083151502179055506110a8610e7b565b73ffffffffffffffffffffffffffffffffffffffff168273ffffffffffffffffffffffffffffffffffffffff16847f2f8788117e7eff1d82e926ec794901d17c78024a50270940304540a733656f0d60405160405180910390a46001905061110f565b5f90505b92915050565b5f6111208383610948565b156111f5575f60055f8581526020019081526020015f205f015f8473ffffffffffffffffffffffffffffffffffffffff1673ffffffffffffffffffffffffffffffffffffffff1681526020019081526020015f205f6101000a81548160ff021916908315150217905550611192610e7b565b73ffffffffffffffffffffffffffffffffffffffff168273ffffffffffffffffffffffffffffffffffffffff16847ff6391f5c32d9c69d2a47ea670b442974b53935d1edc7fd64eb21e047a839171b60405160405180910390a4600190506111f9565b5f90505b92915050565b61120761173b565b5f60065f6101000a81548160ff0219169083151502179055507f5db9ee0a495bf2e6ff9c91a7834c1ba4fdd244a5e8aa4e537bd38aeae4b073aa611249610e7b565b6040516112569190611b5b565b60405180910390a1565b5f73ffffffffffffffffffffffffffffffffffffffff168273ffffffffffffffffffffffffffffffffffffffff16036112d0575f6040517fec442f050000000000000000000000000000000000000000000000000000000081526004016112c79190611b5b565b60405180910390fd5b6112db5f838361158f565b5050565b5f73ffffffffffffffffffffffffffffffffffffffff168273ffffffffffffffffffffffffffffffffffffffff160361134f575f6040517f96c6fd1e0000000000000000000000000000000000000000000000000000000081526004016113469190611b5b565b60405180910390fd5b61135a825f8361158f565b5050565b61136661177b565b600160065f6101000a81548160ff0219169083151502179055507f62e78cea01bee320cd4e420270b5ea74000d11b0c9f74754ebdbfc544b05a2586113a9610e7b565b6040516113b69190611b5b565b60405180910390a1565b5f73ffffffffffffffffffffffffffffffffffffffff168473ffffffffffffffffffffffffffffffffffffffff1603611430575f6040517fe602df050000000000000000000000000000000000000000000000000000000081526004016114279190611b5b565b60405180910390fd5b5f73ffffffffffffffffffffffffffffffffffffffff168373ffffffffffffffffffffffffffffffffffffffff16036114a0575f6040517f94280d620000000000000000000000000000000000000000000000000000000081526004016114979190611b5b565b60405180910390fd5b8160015f8673ffffffffffffffffffffffffffffffffffffffff1673ffffffffffffffffffffffffffffffffffffffff1681526020019081526020015f205f8573ffffffffffffffffffffffffffffffffffffffff1673ffffffffffffffffffffffffffffffffffffffff1681526020019081526020015f20819055508015611589578273ffffffffffffffffffffffffffffffffffffffff168473ffffffffffffffffffffffffffffffffffffffff167f8c5be1e5ebec7d5bd14f71427d1e84f3dd0314c0f7b2291e5b200ac8c7c3b925846040516115809190611c1e565b60405180910390a35b50505050565b61159761177b565b5f73ffffffffffffffffffffffffffffffffffffffff168373ffffffffffffffffffffffffffffffffffffffff16141580156115ff57505f73ffffffffffffffffffffffffffffffffffffffff168273ffffffffffffffffffffffffffffffffffffffff1614155b156116da5760075f8473ffffffffffffffffffffffffffffffffffffffff1673ffffffffffffffffffffffffffffffffffffffff1681526020019081526020015f205f9054906101000a900460ff161580156116a2575060075f8373ffffffffffffffffffffffffffffffffffffffff1673ffffffffffffffffffffffffffffffffffffffff1681526020019081526020015f205f9054906101000a900460ff16155b156116d9576040517f8574adcf00000000000000000000000000000000000000000000000000000000815260040160405180910390fd5b5b6116e58383836117bc565b505050565b6116f48282610948565b6117375780826040517fe2517d3f00000000000000000000000000000000000000000000000000000000815260040161172e929190611ee2565b60405180910390fd5b5050565b61174361082e565b611779576040517f8dfc202b00000000000000000000000000000000000000000000000000000000815260040160405180910390fd5b565b61178361082e565b156117ba576040517fd93c066500000000000000000000000000000000000000000000000000000000815260040160405180910390fd5b565b5f73ffffffffffffffffffffffffffffffffffffffff168373ffffffffffffffffffffffffffffffffffffffff160361180c578060025f8282546118009190611f36565b925050819055506118da565b5f5f5f8573ffffffffffffffffffffffffffffffffffffffff1673ffffffffffffffffffffffffffffffffffffffff1681526020019081526020015f2054905081811015611895578381836040517fe450d38c00000000000000000000000000000000000000000000000000000000815260040161188c93929190611ead565b60405180910390fd5b8181035f5f8673ffffffffffffffffffffffffffffffffffffffff1673ffffffffffffffffffffffffffffffffffffffff1681526020019081526020015f2081905550505b5f73ffffffffffffffffffffffffffffffffffffffff168273ffffffffffffffffffffffffffffffffffffffff1603611921578060025f828254039250508190555061196b565b805f5f8473ffffffffffffffffffffffffffffffffffffffff1673ffffffffffffffffffffffffffffffffffffffff1681526020019081526020015f205f82825401925050819055505b8173ffffffffffffffffffffffffffffffffffffffff168373ffffffffffffffffffffffffffffffffffffffff167fddf252ad1be2c89b69c2b068fc378daa952ba7f163c4a11628f55a4df523b3ef836040516119c89190611c1e565b60405180910390a3505050565b5f5ffd5b5f7fffffffff0000000000000000000000000000000000000000000000000000000082169050919050565b611a0d816119d9565b8114611a17575f5ffd5b50565b5f81359050611a2881611a04565b92915050565b5f60208284031215611a4357611a426119d5565b5b5f611a5084828501611a1a565b91505092915050565b5f8115159050919050565b611a6d81611a59565b82525050565b5f602082019050611a865f830184611a64565b92915050565b5f81519050919050565b5f82825260208201905092915050565b8281835e5f83830152505050565b5f601f19601f8301169050919050565b5f611ace82611a8c565b611ad88185611a96565b9350611ae8818560208601611aa6565b611af181611ab4565b840191505092915050565b5f6020820190508181035f830152611b148184611ac4565b905092915050565b5f73ffffffffffffffffffffffffffffffffffffffff82169050919050565b5f611b4582611b1c565b9050919050565b611b5581611b3b565b82525050565b5f602082019050611b6e5f830184611b4c565b92915050565b611b7d81611b3b565b8114611b87575f5ffd5b50565b5f81359050611b9881611b74565b92915050565b5f819050919050565b611bb081611b9e565b8114611bba575f5ffd5b50565b5f81359050611bcb81611ba7565b92915050565b5f5f60408385031215611be757611be66119d5565b5b5f611bf485828601611b8a565b9250506020611c0585828601611bbd565b9150509250929050565b611c1881611b9e565b82525050565b5f602082019050611c315f830184611c0f565b92915050565b5f5f5f60608486031215611c4e57611c4d6119d5565b5b5f611c5b86828701611b8a565b9350506020611c6c86828701611b8a565b9250506040611c7d86828701611bbd565b9150509250925092565b5f819050919050565b611c9981611c87565b8114611ca3575f5ffd5b50565b5f81359050611cb481611c90565b92915050565b5f60208284031215611ccf57611cce6119d5565b5b5f611cdc84828501611ca6565b91505092915050565b611cee81611c87565b82525050565b5f602082019050611d075f830184611ce5565b92915050565b5f5f60408385031215611d2357611d226119d5565b5b5f611d3085828601611ca6565b9250506020611d4185828601611b8a565b9150509250929050565b5f60ff82169050919050565b611d6081611d4b565b82525050565b5f602082019050611d795f830184611d57565b92915050565b5f60208284031215611d9457611d936119d5565b5b5f611da184828501611b8a565b91505092915050565b5f5f60408385031215611dc057611dbf6119d5565b5b5f611dcd85828601611b8a565b9250506020611dde85828601611b8a565b9150509250929050565b611df181611a59565b8114611dfb575f5ffd5b50565b5f81359050611e0c81611de8565b92915050565b5f5f60408385031215611e2857611e276119d5565b5b5f611e3585828601611b8a565b9250506020611e4685828601611dfe565b9150509250929050565b7f4e487b71000000000000000000000000000000000000000000000000000000005f52602260045260245ffd5b5f6002820490506001821680611e9457607f821691505b602082108103611ea757611ea6611e50565b5b50919050565b5f606082019050611ec05f830186611b4c565b611ecd6020830185611c0f565b611eda6040830184611c0f565b949350505050565b5f604082019050611ef55f830185611b4c565b611f026020830184611ce5565b9392505050565b7f4e487b71000000000000000000000000000000000000000000000000000000005f52601160045260245ffd5b5f611f4082611b9e565b9150611f4b83611b9e565b9250828201905080821115611f6357611f62611f09565b5b9291505056fea26469706673582212201d11c133b81b42bc0bf65256be047286e55c64d65905f7f199c356b3117a2a8064736f6c63430008220033",
        "linkReferences": {}
    },
    "methodIdentifiers": {
        "DEFAULT_ADMIN_ROLE()": "a217fddf",
        "MINTER_ROLE()": "d5391393",
        "PAUSER_ROLE()": "e63ab1e9",
        "allowance(address,address)": "dd62ed3e",
        "approve(address,uint256)": "095ea7b3",
        "balanceOf(address)": "70a08231",
        "burnFrom(address,uint256)": "79cc6790",
        "decimals()": "313ce567",
        "getRoleAdmin(bytes32)": "248a9ca3",
        "grantRole(bytes32,address)": "2f2ff15d",
        "hasRole(bytes32,address)": "91d14854",
        "mint(address,uint256)": "40c10f19",
        "minter()": "07546172",
        "name()": "06fdde03",
        "pause()": "8456cb59",
        "paused()": "5c975abb",
        "renounceRole(bytes32,address)": "36568abe",
        "revokeRole(bytes32,address)": "d547741f",
        "setMinter(address)": "fca3b5aa",
        "setTransferWhitelist(address,bool)": "e4a34dce",
        "supportsInterface(bytes4)": "01ffc9a7",
        "symbol()": "95d89b41",
        "totalSupply()": "18160ddd",
        "transfer(address,uint256)": "a9059cbb",
        "transferFrom(address,address,uint256)": "23b872dd",
        "transferWhitelist(address)": "7ffbe241",
        "unpause()": "3f4ba83a"
    },
    "id": 43
}